{"abi":[{"inputs":[{"internalType":"contract IERC20","name":"paycoin","type":"address"},{"internalType":"contract IExchangeAMPM","name":"exchange","type":"address"}],"payable":false,"stateMutability":"nonpayable","type":"constructor","name":"constructor"},{"anonymous":false,"inputs":[{"indexed":true,"internalType":"address","name":"account","type":"address"}],"name":"CustomerAdded","type":"event"},{"anonymous":false,"inputs":[{"indexed":true,"internalType":"address","name":"account","type":"address"}],"name":"CustomerRemoved","type":"event"},{"anonymous":false,"inputs":[{"indexed":true,"internalType":"address","name":"challenger","type":"address"},{"indexed":true,"internalType":"address","name":"challenged","type":"address"},{"indexed":false,"internalType":"uint256","name":"flag","type":"uint256"}],"name":"DirectChallenge","type":"event"},{"anonymous":false,"inputs":[{"indexed":true,"internalType":"address","name":"winner","type":"address"},{"indexed":true,"internalType":"uint256","name":"flag","type":"uint256"},{"indexed":true,"internalType":"uint256","name":"amount","type":"uint256"}],"name":"DirectChallengeWon","type":"event"},{"anonymous":false,"inputs":[{"indexed":true,"internalType":"address","name":"account","type":"address"}],"name":"ManagerAdded","type":"event"},{"anonymous":false,"inputs":[{"indexed":true,"internalType":"address","name":"account","type":"address"}],"name":"ManagerRemoved","type":"event"},{"anonymous":false,"inputs":[{"indexed":true,"internalType":"address","name":"winner","type":"address"},{"indexed":true,"internalType":"uint256","name":"coin_won","type":"uint256"}],"name":"Overnight","type":"event"},{"anonymous":false,"inputs":[{"indexed":true,"internalType":"address","name":"teamAddres","type":"address"}],"name":"Registered","type":"event"},{"anonymous":false,"inputs":[{"indexed":true,"internalType":"address","name":"challenger","type":"address"},{"indexed":false,"internalType":"uint256","name":"flag","type":"uint256"}],"name":"TeamChallenge","type":"event"},{"anonymous":false,"inputs":[{"indexed":true,"internalType":"address","name":"winner","type":"address"},{"indexed":true,"internalType":"uint256","name":"flag","type":"uint256"},{"indexed":true,"internalType":"uint256","name":"amount","type":"uint256"}],"name":"TeamChallengeWon","type":"event"},{"constant":false,"inputs":[{"internalType":"address","name":"account","type":"address"}],"name":"addCustomer","outputs":[],"payable":false,"stateMutability":"nonpayable","type":"function"},{"constant":false,"inputs":[{"internalType":"address","name":"account","type":"address"}],"name":"addManager","outputs":[],"payable":false,"stateMutability":"nonpayable","type":"function"},{"constant":false,"inputs":[{"internalType":"address","name":"challenged","type":"address"},{"internalType":"uint256","name":"flag","type":"uint256"}],"name":"challengeStart","outputs":[],"payable":false,"stateMutability":"nonpayable","type":"function"},{"constant":false,"inputs":[{"internalType":"uint256","name":"flag","type":"uint256"}],"name":"challengeStart","outputs":[],"payable":false,"stateMutability":"nonpayable","type":"function"},{"constant":false,"inputs":[],"name":"close","outputs":[],"payable":false,"stateMutability":"nonpayable","type":"function"},{"constant":true,"inputs":[{"internalType":"uint256","name":"flag","type":"uint256"}],"name":"directcheckFlag","outputs":[{"internalType":"bool","name":"","type":"bool"}],"payable":false,"stateMutability":"view","type":"function"},{"constant":true,"inputs":[{"internalType":"address","name":"account","type":"address"}],"name":"isCustomer","outputs":[{"internalType":"bool","name":"","type":"bool"}],"payable":false,"stateMutability":"view","type":"function"},{"constant":true,"inputs":[{"internalType":"address","name":"account","type":"address"}],"name":"isManager","outputs":[{"internalType":"bool","name":"","type":"bool"}],"payable":false,"stateMutability":"view","type":"function"},{"constant":true,"inputs":[{"internalType":"address","name":"_ownerAddress","type":"address"}],"name":"isRegistered","outputs":[{"internalType":"bool","name":"","type":"bool"}],"payable":false,"stateMutability":"view","type":"function"},{"constant":false,"inputs":[{"internalType":"uint256","name":"id_prezzo","type":"uint256"}],"name":"overnightCheck","outputs":[],"payable":false,"stateMutability":"nonpayable","type":"function"},{"constant":false,"inputs":[{"internalType":"int256","name":"percentage","type":"int256"}],"name":"overnightStart","outputs":[],"payable":false,"stateMutability":"nonpayable","type":"function"},{"constant":false,"inputs":[{"internalType":"address","name":"_ownerAddress","type":"address"}],"name":"register","outputs":[],"payable":false,"stateMutability":"nonpayable","type":"function"},{"constant":false,"inputs":[],"name":"renounceCustomer","outputs":[],"payable":false,"stateMutability":"nonpayable","type":"function"},{"constant":false,"inputs":[],"name":"renounceManager","outputs":[],"payable":false,"stateMutability":"nonpayable","type":"function"},{"constant":false,"inputs":[{"internalType":"contract IExchangeAMPM","name":"exchange","type":"address"}],"name":"set_Exchange","outputs":[],"payable":false,"stateMutability":"nonpayable","type":"function"},{"constant":false,"inputs":[{"internalType":"contract IERC20","name":"paycoin","type":"address"}],"name":"set_PayCoin","outputs":[],"payable":false,"stateMutability":"nonpayable","type":"function"},{"constant":true,"inputs":[{"internalType":"uint256","name":"flag","type":"uint256"}],"name":"teamcheckFlag","outputs":[{"internalType":"bool","name":"","type":"bool"}],"payable":false,"stateMutability":"view","type":"function"},{"constant":false,"inputs":[{"internalType":"uint256","name":"flag","type":"uint256"}],"name":"winDirectChallenge","outputs":[{"internalType":"bool","name":"","type":"bool"}],"payable":false,"stateMutability":"nonpayable","type":"function"},{"constant":false,"inputs":[{"internalType":"uint256","name":"flag","type":"uint256"}],"name":"winTeamChallenge","outputs":[{"internalType":"bool","name":"","type":"bool"}],"payable":false,"stateMutability":"nonpayable","type":"function"}],"bytecode":"60806040523480156200001157600080fd5b506040516200298738038062002987833981810160405260408110156200003757600080fd5b50805160209091015162000066620000576001600160e01b03620001be16565b6001600160e01b03620001c216565b6200008e7368706afc2acf51eee9e9c6120197e5276c0b093e6001600160e01b03620001c216565b620000b4620000a56001600160e01b03620001be16565b6001600160e01b036200021416565b620000dc7368706afc2acf51eee9e9c6120197e5276c0b093e6001600160e01b036200021416565b6001600160a01b038216620001235760405162461bcd60e51b8152600401808060200182810382526026815260200180620029616026913960400191505060405180910390fd5b6001600160a01b0381166200016a5760405162461bcd60e51b815260040180806020018281038252602b81526020018062002914602b913960400191505060405180910390fd5b6200017d6001600160e01b03620001be16565b600480546001600160a01b03199081166001600160a01b0393841617909155600280548216948316949094179093556003805490931691161790556200035c565b3390565b620001dd8160006200026660201b62001f9f1790919060201c565b6040516001600160a01b038216907f3b4a40cccf2058c593542587329dd385be4f0b588db5471fbd9598e56dd7093a90600090a250565b6200022f8160016200026660201b62001f9f1790919060201c565b6040516001600160a01b038216907fcd118a02bd36f224f6f1b93812f78d2bbc2c2dc1bc0f60c176e3b4fe09f1483f90600090a250565b6200027b82826001600160e01b03620002f316565b15620002ce576040805162461bcd60e51b815260206004820152601f60248201527f526f6c65733a206163636f756e7420616c72656164792068617320726f6c6500604482015290519081900360640190fd5b6001600160a01b0316600090815260209190915260409020805460ff19166001179055565b60006001600160a01b0382166200033c5760405162461bcd60e51b81526004018080602001828103825260228152602001806200293f6022913960400191505060405180910390fd5b506001600160a01b03166000908152602091909152604090205460ff1690565b6125a8806200036c6000396000f3fe608060405234801561001057600080fd5b50600436106101215760003560e01c806378591bfd116100ad578063c3c5a54711610071578063c3c5a547146102e4578063d5d35f951461030a578063e036e28814610327578063f3ae24151461034d578063f8b91abe1461037357610121565b806378591bfd1461025f578063931289021461027c578063a5c6a02214610299578063ac98e6db146102b6578063ad973d74146102be57610121565b80634420e486116100f45780634420e486146101b6578063561675e1146101dc5780635c1badb5146101f9578063612b75431461021657806376a9e7b31461024257610121565b806328fd5e83146101265780632ce45fef146101605780632d06177a1461018857806343d726d6146101ae575b600080fd5b61014c6004803603602081101561013c57600080fd5b50356001600160a01b031661037b565b604080519115158252519081900360200190f35b6101866004803603602081101561017657600080fd5b50356001600160a01b0316610396565b005b6101866004803603602081101561019e57600080fd5b50356001600160a01b0316610403565b610186610455565b610186600480360360208110156101cc57600080fd5b50356001600160a01b03166104a9565b61014c600480360360208110156101f257600080fd5b5035610651565b61014c6004803603602081101561020f57600080fd5b50356109ee565b6101866004803603604081101561022c57600080fd5b506001600160a01b038135169060200135610a4c565b6101866004803603602081101561025857600080fd5b5035610da1565b61014c6004803603602081101561027557600080fd5b503561121b565b61014c6004803603602081101561029257600080fd5b5035611532565b610186600480360360208110156102af57600080fd5b5035611590565b610186611871565b610186600480360360208110156102d457600080fd5b50356001600160a01b0316611883565b61014c600480360360208110156102fa57600080fd5b50356001600160a01b03166118d2565b6101866004803603602081101561032057600080fd5b50356118dd565b6101866004803603602081101561033d57600080fd5b50356001600160a01b0316611af2565b61014c6004803603602081101561036357600080fd5b50356001600160a01b0316611b5a565b610186611b6c565b600061038e60018363ffffffff611b7c16565b90505b919050565b6103a66103a1611be7565b611b5a565b6103e15760405162461bcd60e51b815260040180806020018281038252603281526020018061238b6032913960400191505060405180910390fd5b600280546001600160a01b0319166001600160a01b0392909216919091179055565b61040e6103a1611be7565b6104495760405162461bcd60e51b815260040180806020018281038252603281526020018061238b6032913960400191505060405180910390fd5b61045281611beb565b50565b6104606103a1611be7565b61049b5760405162461bcd60e51b815260040180806020018281038252603281526020018061238b6032913960400191505060405180910390fd5b6004546001600160a01b0316ff5b6104b96104b4611be7565b61037b565b6104f45760405162461bcd60e51b81526004018080602001828103825260348152602001806121566034913960400191505060405180910390fd5b600360009054906101000a90046001600160a01b03166001600160a01b03166347535d7b6040518163ffffffff1660e01b815260040160206040518083038186803b15801561054257600080fd5b505afa158015610556573d6000803e3d6000fd5b505050506040513d602081101561056c57600080fd5b5051156105c0576040805162461bcd60e51b815260206004820152601a60248201527f4368616c6c656e67653a206d61726b6574206973206f70656e2e000000000000604482015290519081900360640190fd5b6105c981611c33565b156106055760405162461bcd60e51b815260040180806020018281038252602681526020018061240f6026913960400191505060405180910390fd5b6001600160a01b0381166000818152600b6020526040808220805460ff19166001179055517f2d3734a8e47ac8316e500ac231c90a6e1848ca2285f40d07eaa52005e4b3a0e99190a250565b600061065e6104b4611be7565b6106995760405162461bcd60e51b81526004018080602001828103825260348152602001806121566034913960400191505060405180910390fd5b6106a96106a4611be7565b611c33565b6106e45760405162461bcd60e51b815260040180806020018281038252603481526020018061218a6034913960400191505060405180910390fd5b60025468056bc75e2d63100000906001600160a01b031663dd62ed3e610708611be7565b604080516001600160e01b031960e085901b1681526001600160a01b039092166004830152306024830152516044808301926020929190829003018186803b15801561075357600080fd5b505afa158015610767573d6000803e3d6000fd5b505050506040513d602081101561077d57600080fd5b505110156107bc5760405162461bcd60e51b815260040180806020018281038252603c8152602001806121f2603c913960400191505060405180910390fd5b61085c6107c7611be7565b6002546001600160a01b031663dd62ed3e6107e0611be7565b604080516001600160e01b031960e085901b1681526001600160a01b039092166004830152306024830152516044808301926020929190829003018186803b15801561082b57600080fd5b505afa15801561083f573d6000803e3d6000fd5b505050506040513d602081101561085557600080fd5b5051611c51565b60008281526006602052604090205460ff166108a95760405162461bcd60e51b815260040180806020018281038252602c81526020018061233e602c913960400191505060405180910390fd5b600082815260066020526040902060020154600160a01b900460ff16610916576040805162461bcd60e51b815260206004820152601a60248201527f4368616c6c656e67653a20616c726561647920636c6f7365642e000000000000604482015290519081900360640190fd5b60008281526006602052604090206001015461012c0142101561093b57506000610391565b6000828152600660205260408120600201805460ff60a01b1981169091556001600160a01b031661096a611be7565b6001600160a01b031614156109895750685150ae84a8cdf00000610995565b50683635c9adc5dea000005b6109a66109a0611be7565b82611d0e565b80836109b0611be7565b6001600160a01b03167ffa5c135de8c72e98296cdf12890ca8b3682f079fbb46849f6f549372f634802960405160405180910390a450600192915050565b60006109fb6103a1611be7565b610a365760405162461bcd60e51b815260040180806020018281038252603281526020018061238b6032913960400191505060405180910390fd5b5060009081526006602052604090205460ff1690565b610a576103a1611be7565b610a925760405162461bcd60e51b815260040180806020018281038252603281526020018061238b6032913960400191505060405180910390fd5b600a600c5410610ad35760405162461bcd60e51b815260040180806020018281038252602e81526020018061222e602e913960400191505060405180910390fd5b60008181526005602052604090205460ff1615610b37576040805162461bcd60e51b815260206004820152601d60248201527f4368616c6c656e67653a20666c616720616c726561647920757365642e000000604482015290519081900360640190fd5b610b4082611c33565b610b7b5760405162461bcd60e51b81526004018080602001828103825260348152602001806121be6034913960400191505060405180910390fd5b816001600160a01b0316610b8d611be7565b6001600160a01b03161415610bd35760405162461bcd60e51b81526004018080602001828103825260298152602001806122f46029913960400191505060405180910390fd5b6002546802b5e3af16b1880000906001600160a01b031663dd62ed3e610bf7611be7565b604080516001600160e01b031960e085901b1681526001600160a01b039092166004830152306024830152516044808301926020929190829003018186803b158015610c4257600080fd5b505afa158015610c56573d6000803e3d6000fd5b505050506040513d6020811015610c6c57600080fd5b50511015610cab5760405162461bcd60e51b815260040180806020018281038252603b815260200180612539603b913960400191505060405180910390fd5b600c54610cbf90600163ffffffff611dcb16565b600c556000818152600560205260409020805460ff1916600190811782554290820155600301805460ff60a01b1916600160a01b179055610cfe611be7565b60008281526005602052604090206002810180546001600160a01b03199081166001600160a01b039485161790915560039091018054909116918416919091179055610d4b6107c7611be7565b816001600160a01b0316610d5d611be7565b6001600160a01b03167fed4685cef203f43449f0207532eb272e1f2de4f8a6992033ed24099f086c2106836040518082815260200191505060405180910390a35050565b610dac6103a1611be7565b610de75760405162461bcd60e51b815260040180806020018281038252603281526020018061238b6032913960400191505060405180910390fd5b6004600e5410610e285760405162461bcd60e51b81526004018080602001828103825260308152602001806123df6030913960400191505060405180910390fd5b600360009054906101000a90046001600160a01b03166001600160a01b03166347535d7b6040518163ffffffff1660e01b815260040160206040518083038186803b158015610e7657600080fd5b505afa158015610e8a573d6000803e3d6000fd5b505050506040513d6020811015610ea057600080fd5b505115610ef4576040805162461bcd60e51b815260206004820152601a60248201527f4368616c6c656e67653a206d61726b6574206973206f70656e2e000000000000604482015290519081900360640190fd5b60008112610f5757600a811115610f52576040805162461bcd60e51b815260206004820152601e60248201527f4368616c6c656e67653a20657865656465642070657263656e746167652e0000604482015290519081900360640190fd5b610fb0565b600a816000031115610fb0576040805162461bcd60e51b815260206004820152601e60248201527f4368616c6c656e67653a20657865656465642070657263656e746167652e0000604482015290519081900360640190fd5b600254680ad78ebc5ac6200000906001600160a01b031663dd62ed3e610fd4611be7565b604080516001600160e01b031960e085901b1681526001600160a01b039092166004830152306024830152516044808301926020929190829003018186803b15801561101f57600080fd5b505afa158015611033573d6000803e3d6000fd5b505050506040513d602081101561104957600080fd5b505110156110885760405162461bcd60e51b815260040180806020018281038252603c815260200180612489603c913960400191505060405180910390fd5b6003546040805163029f8a6d60e11b815281516000936001600160a01b03169263053f14da9260048082019391829003018186803b1580156110c957600080fd5b505afa1580156110dd573d6000803e3d6000fd5b505050506040513d60408110156110f357600080fd5b50602001519050600080831261112b576111246064611118848663ffffffff611e2c16565b9063ffffffff611e8516565b905061114a565b611144606461111884600087900363ffffffff611e2c16565b60000390505b600e5461115e90600163ffffffff611dcb16565b600e55611169611be7565b600880546001600160a01b0319166001600160a01b039283161790554260095560035460408051635f56a35160e01b81526004810185905290519190921691635f56a3519160248083019260209291908290030181600087803b1580156111cf57600080fd5b505af11580156111e3573d6000803e3d6000fd5b505050506040513d60208110156111f957600080fd5b5051600755600a805460ff191660011790556112166107c7611be7565b505050565b60006112286104b4611be7565b6112635760405162461bcd60e51b81526004018080602001828103825260348152602001806121566034913960400191505060405180910390fd5b61126b611be7565b6000838152600560205260409020600301546001600160a01b03908116911614806112ba5750611299611be7565b6000838152600560205260409020600201546001600160a01b039081169116145b6112f55760405162461bcd60e51b81526004018080602001828103825260458152602001806124c56045913960600191505060405180910390fd5b6002546802b5e3af16b1880000906001600160a01b031663dd62ed3e611319611be7565b604080516001600160e01b031960e085901b1681526001600160a01b039092166004830152306024830152516044808301926020929190829003018186803b15801561136457600080fd5b505afa158015611378573d6000803e3d6000fd5b505050506040513d602081101561138e57600080fd5b505110156113cd5760405162461bcd60e51b815260040180806020018281038252603b815260200180612298603b913960400191505060405180910390fd5b6113d86107c7611be7565b60008281526005602052604090205460ff166114255760405162461bcd60e51b815260040180806020018281038252602c81526020018061233e602c913960400191505060405180910390fd5b600082815260056020526040902060030154600160a01b900460ff16611487576040805162461bcd60e51b815260206004820152601260248201527121b430b63632b733b29d1031b637b9b2b21760711b604482015290519081900360640190fd5b60008281526005602052604090206001015461012c014210156114ac57506000610391565b6000828152600560205260409020600301805460ff60a01b191690556114e26114d3611be7565b683635c9adc5dea00000611d0e565b683635c9adc5dea00000826114f5611be7565b6001600160a01b03167f06c48e695609c5cc5b9d779d70abb26282055513fb1a55cba442b3cbc6d43bcd60405160405180910390a4506001919050565b600061153f6103a1611be7565b61157a5760405162461bcd60e51b815260040180806020018281038252603281526020018061238b6032913960400191505060405180910390fd5b5060009081526005602052604090205460ff1690565b61159b6103a1611be7565b6115d65760405162461bcd60e51b815260040180806020018281038252603281526020018061238b6032913960400191505060405180910390fd5b600a600d54106116175760405162461bcd60e51b815260040180806020018281038252602c81526020018061212a602c913960400191505060405180910390fd5b6116226106a4611be7565b61165d5760405162461bcd60e51b815260040180806020018281038252602f81526020018061250a602f913960400191505060405180910390fd5b60008181526006602052604090205460ff16156116c1576040805162461bcd60e51b815260206004820152601d60248201527f4368616c6c656e67653a20666c616720616c726561647920757365642e000000604482015290519081900360640190fd5b60025468056bc75e2d63100000906001600160a01b031663dd62ed3e6116e5611be7565b604080516001600160e01b031960e085901b1681526001600160a01b039092166004830152306024830152516044808301926020929190829003018186803b15801561173057600080fd5b505afa158015611744573d6000803e3d6000fd5b505050506040513d602081101561175a57600080fd5b505110156117995760405162461bcd60e51b815260040180806020018281038252603c81526020018061225c603c913960400191505060405180910390fd5b600d546117ad90600163ffffffff611dcb16565b600d556000818152600660205260409020805460ff1916600190811782554290820155600201805460ff60a01b1916600160a01b1790556117ec611be7565b600082815260066020526040902060020180546001600160a01b0319166001600160a01b03929092169190911790556118266107c7611be7565b61182e611be7565b6001600160a01b03167f3d1151f535ab57b7eefbbf3baaff50efaac64f3f0df368617499905f78cb2373826040518082815260200191505060405180910390a250565b61188161187c611be7565b611ec7565b565b61188e6104b4611be7565b6118c95760405162461bcd60e51b81526004018080602001828103825260348152602001806121566034913960400191505060405180910390fd5b61045281611f0f565b600061038e82611c33565b6118e86104b4611be7565b6119235760405162461bcd60e51b81526004018080602001828103825260348152602001806121566034913960400191505060405180910390fd5b6007548114611970576040805162461bcd60e51b815260206004820152601460248201527321b430b63632b733b29d103bb937b7339034b21760611b604482015290519081900360640190fd5b600a5460ff166119bc576040805162461bcd60e51b815260206004820152601260248201527121b430b63632b733b29d1031b637b9b2b21760711b604482015290519081900360640190fd5b600954600090610e10014211611a89576008546001600160a01b03166119e0611be7565b6001600160a01b03161415611a265760405162461bcd60e51b81526004018080602001828103825260338152602001806124566033913960400191505060405180910390fd5b5068410d586a20a4c00000611a3c6109a0611be7565b600a805460ff1916905580611a4f611be7565b6001600160a01b03167f75e44bccb8e953f3228b7bde1dc2a77ac72025aa92a8a329378d26b4f4e1a86060405160405180910390a3611aee565b50600854686c6b935b8bbd40000090611aab906001600160a01b031682611d0e565b600a805460ff1916905560085460405182916001600160a01b0316907f75e44bccb8e953f3228b7bde1dc2a77ac72025aa92a8a329378d26b4f4e1a86090600090a35b5050565b611afd6103a1611be7565b611b385760405162461bcd60e51b815260040180806020018281038252603281526020018061238b6032913960400191505060405180910390fd5b600380546001600160a01b0319166001600160a01b0392909216919091179055565b600061038e818363ffffffff611b7c16565b611881611b77611be7565b611f57565b60006001600160a01b038216611bc35760405162461bcd60e51b81526004018080602001828103825260228152602001806123bd6022913960400191505060405180910390fd5b506001600160a01b03811660009081526020839052604090205460ff165b92915050565b3390565b611bfc60008263ffffffff611f9f16565b6040516001600160a01b038216907f3b4a40cccf2058c593542587329dd385be4f0b588db5471fbd9598e56dd7093a90600090a250565b6001600160a01b03166000908152600b602052604090205460ff1690565b6002546040805163079cc67960e41b81526001600160a01b03858116600483015260248201859052915191909216916379cc67909160448083019260209291908290030181600087803b158015611ca757600080fd5b505af1158015611cbb573d6000803e3d6000fd5b505050506040513d6020811015611cd157600080fd5b5051611aee5760405162461bcd60e51b815260040180806020018281038252602181526020018061231d6021913960400191505060405180910390fd5b600254604080516340c10f1960e01b81526001600160a01b03858116600483015260248201859052915191909216916340c10f199160448083019260209291908290030181600087803b158015611d6457600080fd5b505af1158015611d78573d6000803e3d6000fd5b505050506040513d6020811015611d8e57600080fd5b5051611aee5760405162461bcd60e51b81526004018080602001828103825260218152602001806124356021913960400191505060405180910390fd5b600082820183811015611e25576040805162461bcd60e51b815260206004820152601b60248201527f536166654d6174683a206164646974696f6e206f766572666c6f770000000000604482015290519081900360640190fd5b9392505050565b600082611e3b57506000611be1565b82820282848281611e4857fe5b0414611e255760405162461bcd60e51b815260040180806020018281038252602181526020018061236a6021913960400191505060405180910390fd5b6000611e2583836040518060400160405280601a81526020017f536166654d6174683a206469766973696f6e206279207a65726f000000000000815250612020565b611ed860018263ffffffff6120c216565b6040516001600160a01b038216907fb4c88a9c5cd906354abdd1cc29e4f94c6c4de90754fb80ce51e6a33417bc81b690600090a250565b611f2060018263ffffffff611f9f16565b6040516001600160a01b038216907fcd118a02bd36f224f6f1b93812f78d2bbc2c2dc1bc0f60c176e3b4fe09f1483f90600090a250565b611f6860008263ffffffff6120c216565b6040516001600160a01b038216907fef69f7d97228658c92417be1b16b19058315de71fecb435d07b7d23728b6bd3190600090a250565b611fa98282611b7c565b15611ffb576040805162461bcd60e51b815260206004820152601f60248201527f526f6c65733a206163636f756e7420616c72656164792068617320726f6c6500604482015290519081900360640190fd5b6001600160a01b0316600090815260209190915260409020805460ff19166001179055565b600081836120ac5760405162461bcd60e51b81526004018080602001828103825283818151815260200191508051906020019080838360005b83811015612071578181015183820152602001612059565b50505050905090810190601f16801561209e5780820380516001836020036101000a031916815260200191505b509250505060405180910390fd5b5060008385816120b857fe5b0495945050505050565b6120cc8282611b7c565b6121075760405162461bcd60e51b81526004018080602001828103825260218152602001806122d36021913960400191505060405180910390fd5b6001600160a01b0316600090815260209190915260409020805460ff1916905556fe4368616c6c656e67653a203130205465616d4368616c6c656e676520616c726561647920737461727465642e437573746f6d6572526f6c653a2063616c6c657220646f6573206e6f7420686176652074686520437573746f6d657220726f6c654368616c6c656e67653a20796f75206861766520746f206265207265676973746572656420746f2070617274656369706174652e4368616c6c656e67653a20796f75206861766520746f206368616c6c656e676520736f6d656f6e6520726567697374657265642e4368616c6c656e67653a207365742031303020506179436f696e20616c6c6f77616e636520746f20636865636b20746865206368616c6c656e67652e4368616c6c656e67653a203130204469726563744368616c6c656e676520616c726561647920737461727465642e4368616c6c656e67653a207365742031303020506179436f696e20616c6c6f77616e636520746f20737461727420746865206368616c6c656e67652e4368616c6c656e67653a2073657420353020506179436f696e20616c6c6f77616e636520746f20636865636b20746865206368616c6c656e67652e526f6c65733a206163636f756e7420646f6573206e6f74206861766520726f6c654368616c6c656e67653a20796f752063616e6e6f74206368616c6c656e676520796f757273656c662e4368616c6c656e67653a206275726e696e6720506179436f696e206661696c65644368616c6c656e67653a207468697320666c616720686173206e65766572206265656e20737461727465642e536166654d6174683a206d756c7469706c69636174696f6e206f766572666c6f774d616e61676572526f6c653a2063616c6c657220646f6573206e6f74206861766520746865204d616e6167657220726f6c65526f6c65733a206163636f756e7420697320746865207a65726f20616464726573734368616c6c656e67653a2034204f7665726e696768744368616c6c656e676520616c726561647920737461727465642e4368616c6c656e67653a206164647265737320616c726561647920726567697374657265642e4368616c6c656e67653a206d696e74696e6720506179436f696e206661696c65644368616c6c656e67653a20796f752063616e6e6f7420636865636b20796f7572206f776e206f7665726e69676874207965742e4368616c6c656e67653a207365742032303020506179436f696e20616c6c6f77616e636520746f20737461727420746865206368616c6c656e67652e4368616c6c656e67653a20796f7520617265206e6f7420746865206368616c6c656e676564206f7220746865206368616c6c616e676572206f66207468697320666c61672e4368616c6c656e67653a20796f75206861766520746f20726567697374657220796f757273656c662066697273742e4368616c6c656e67653a2073657420353020506179436f696e20616c6c6f77616e636520746f20737461727420746865206368616c6c656e67652ea265627a7a72315820bba389d94eb78d1a9f81dd31bd1df656938dd66a2c3d911da313061d98c53e8164736f6c634300051100324368616c6c656e67653a2045786368616e6765414d504d20697320746865207a65726f2061646472657373526f6c65733a206163636f756e7420697320746865207a65726f20616464726573734368616c6c656e67653a20506179436f696e20697320746865207a65726f2061646472657373","bytecodeSha1":"da39a3ee5e6b4b0d3255bfef95601890afd80709","compiler":{"evm_version":"istanbul","optimizer":{"enabled":true,"runs":200},"version":"0.5.17"},"contractName":"ChallengeAMPM","language":"Solidity","natspec":{"methods":{}},"opcodes":"PUSH1 0x80 PUSH1 0x40 MSTORE CALLVALUE DUP1 ISZERO PUSH2 0x10 JUMPI PUSH1 0x0 DUP1 REVERT JUMPDEST POP PUSH1 0x4 CALLDATASIZE LT PUSH2 0x121 JUMPI PUSH1 0x0 CALLDATALOAD PUSH1 0xE0 SHR DUP1 PUSH4 0x78591BFD GT PUSH2 0xAD JUMPI DUP1 PUSH4 0xC3C5A547 GT PUSH2 0x71 JUMPI DUP1 PUSH4 0xC3C5A547 EQ PUSH2 0x2E4 JUMPI DUP1 PUSH4 0xD5D35F95 EQ PUSH2 0x30A JUMPI DUP1 PUSH4 0xE036E288 EQ PUSH2 0x327 JUMPI DUP1 PUSH4 0xF3AE2415 EQ PUSH2 0x34D JUMPI DUP1 PUSH4 0xF8B91ABE EQ PUSH2 0x373 JUMPI PUSH2 0x121 JUMP JUMPDEST DUP1 PUSH4 0x78591BFD EQ PUSH2 0x25F JUMPI DUP1 PUSH4 0x93128902 EQ PUSH2 0x27C JUMPI DUP1 PUSH4 0xA5C6A022 EQ PUSH2 0x299 JUMPI DUP1 PUSH4 0xAC98E6DB EQ PUSH2 0x2B6 JUMPI DUP1 PUSH4 0xAD973D74 EQ PUSH2 0x2BE JUMPI PUSH2 0x121 JUMP JUMPDEST DUP1 PUSH4 0x4420E486 GT PUSH2 0xF4 JUMPI DUP1 PUSH4 0x4420E486 EQ PUSH2 0x1B6 JUMPI DUP1 PUSH4 0x561675E1 EQ PUSH2 0x1DC JUMPI DUP1 PUSH4 0x5C1BADB5 EQ PUSH2 0x1F9 JUMPI DUP1 PUSH4 0x612B7543 EQ PUSH2 0x216 JUMPI DUP1 PUSH4 0x76A9E7B3 EQ PUSH2 0x242 JUMPI PUSH2 0x121 JUMP JUMPDEST DUP1 PUSH4 0x28FD5E83 EQ PUSH2 0x126 JUMPI DUP1 PUSH4 0x2CE45FEF EQ PUSH2 0x160 JUMPI DUP1 PUSH4 0x2D06177A EQ PUSH2 0x188 JUMPI DUP1 PUSH4 0x43D726D6 EQ PUSH2 0x1AE JUMPI JUMPDEST PUSH1 0x0 DUP1 REVERT JUMPDEST PUSH2 0x14C PUSH1 0x4 DUP1 CALLDATASIZE SUB PUSH1 0x20 DUP2 LT ISZERO PUSH2 0x13C JUMPI PUSH1 0x0 DUP1 REVERT JUMPDEST POP CALLDATALOAD PUSH1 0x1 PUSH1 0x1 PUSH1 0xA0 SHL SUB AND PUSH2 0x37B JUMP JUMPDEST PUSH1 0x40 DUP1 MLOAD SWAP2 ISZERO ISZERO DUP3 MSTORE MLOAD SWAP1 DUP2 SWAP1 SUB PUSH1 0x20 ADD SWAP1 RETURN JUMPDEST PUSH2 0x186 PUSH1 0x4 DUP1 CALLDATASIZE SUB PUSH1 0x20 DUP2 LT ISZERO PUSH2 0x176 JUMPI PUSH1 0x0 DUP1 REVERT JUMPDEST POP CALLDATALOAD PUSH1 0x1 PUSH1 0x1 PUSH1 0xA0 SHL SUB AND PUSH2 0x396 JUMP JUMPDEST STOP JUMPDEST PUSH2 0x186 PUSH1 0x4 DUP1 CALLDATASIZE SUB PUSH1 0x20 DUP2 LT ISZERO PUSH2 0x19E JUMPI PUSH1 0x0 DUP1 REVERT JUMPDEST POP CALLDATALOAD PUSH1 0x1 PUSH1 0x1 PUSH1 0xA0 SHL SUB AND PUSH2 0x403 JUMP JUMPDEST PUSH2 0x186 PUSH2 0x455 JUMP JUMPDEST PUSH2 0x186 PUSH1 0x4 DUP1 CALLDATASIZE SUB PUSH1 0x20 DUP2 LT ISZERO PUSH2 0x1CC JUMPI PUSH1 0x0 DUP1 REVERT JUMPDEST POP CALLDATALOAD PUSH1 0x1 PUSH1 0x1 PUSH1 0xA0 SHL SUB AND PUSH2 0x4A9 JUMP JUMPDEST PUSH2 0x14C PUSH1 0x4 DUP1 CALLDATASIZE SUB PUSH1 0x20 DUP2 LT ISZERO PUSH2 0x1F2 JUMPI PUSH1 0x0 DUP1 REVERT JUMPDEST POP CALLDATALOAD PUSH2 0x651 JUMP JUMPDEST PUSH2 0x14C PUSH1 0x4 DUP1 CALLDATASIZE SUB PUSH1 0x20 DUP2 LT ISZERO PUSH2 0x20F JUMPI PUSH1 0x0 DUP1 REVERT JUMPDEST POP CALLDATALOAD PUSH2 0x9EE JUMP JUMPDEST PUSH2 0x186 PUSH1 0x4 DUP1 CALLDATASIZE SUB PUSH1 0x40 DUP2 LT ISZERO PUSH2 0x22C JUMPI PUSH1 0x0 DUP1 REVERT JUMPDEST POP PUSH1 0x1 PUSH1 0x1 PUSH1 0xA0 SHL SUB DUP2 CALLDATALOAD AND SWAP1 PUSH1 0x20 ADD CALLDATALOAD PUSH2 0xA4C JUMP JUMPDEST PUSH2 0x186 PUSH1 0x4 DUP1 CALLDATASIZE SUB PUSH1 0x20 DUP2 LT ISZERO PUSH2 0x258 JUMPI PUSH1 0x0 DUP1 REVERT JUMPDEST POP CALLDATALOAD PUSH2 0xDA1 JUMP JUMPDEST PUSH2 0x14C PUSH1 0x4 DUP1 CALLDATASIZE SUB PUSH1 0x20 DUP2 LT ISZERO PUSH2 0x275 JUMPI PUSH1 0x0 DUP1 REVERT JUMPDEST POP CALLDATALOAD PUSH2 0x121B JUMP JUMPDEST PUSH2 0x14C PUSH1 0x4 DUP1 CALLDATASIZE SUB PUSH1 0x20 DUP2 LT ISZERO PUSH2 0x292 JUMPI PUSH1 0x0 DUP1 REVERT JUMPDEST POP CALLDATALOAD PUSH2 0x1532 JUMP JUMPDEST PUSH2 0x186 PUSH1 0x4 DUP1 CALLDATASIZE SUB PUSH1 0x20 DUP2 LT ISZERO PUSH2 0x2AF JUMPI PUSH1 0x0 DUP1 REVERT JUMPDEST POP CALLDATALOAD PUSH2 0x1590 JUMP JUMPDEST PUSH2 0x186 PUSH2 0x1871 JUMP JUMPDEST PUSH2 0x186 PUSH1 0x4 DUP1 CALLDATASIZE SUB PUSH1 0x20 DUP2 LT ISZERO PUSH2 0x2D4 JUMPI PUSH1 0x0 DUP1 REVERT JUMPDEST POP CALLDATALOAD PUSH1 0x1 PUSH1 0x1 PUSH1 0xA0 SHL SUB AND PUSH2 0x1883 JUMP JUMPDEST PUSH2 0x14C PUSH1 0x4 DUP1 CALLDATASIZE SUB PUSH1 0x20 DUP2 LT ISZERO PUSH2 0x2FA JUMPI PUSH1 0x0 DUP1 REVERT JUMPDEST POP CALLDATALOAD PUSH1 0x1 PUSH1 0x1 PUSH1 0xA0 SHL SUB AND PUSH2 0x18D2 JUMP JUMPDEST PUSH2 0x186 PUSH1 0x4 DUP1 CALLDATASIZE SUB PUSH1 0x20 DUP2 LT ISZERO PUSH2 0x320 JUMPI PUSH1 0x0 DUP1 REVERT JUMPDEST POP CALLDATALOAD PUSH2 0x18DD JUMP JUMPDEST PUSH2 0x186 PUSH1 0x4 DUP1 CALLDATASIZE SUB PUSH1 0x20 DUP2 LT ISZERO PUSH2 0x33D JUMPI PUSH1 0x0 DUP1 REVERT JUMPDEST POP CALLDATALOAD PUSH1 0x1 PUSH1 0x1 PUSH1 0xA0 SHL SUB AND PUSH2 0x1AF2 JUMP JUMPDEST PUSH2 0x14C PUSH1 0x4 DUP1 CALLDATASIZE SUB PUSH1 0x20 DUP2 LT ISZERO PUSH2 0x363 JUMPI PUSH1 0x0 DUP1 REVERT JUMPDEST POP CALLDATALOAD PUSH1 0x1 PUSH1 0x1 PUSH1 0xA0 SHL SUB AND PUSH2 0x1B5A JUMP JUMPDEST PUSH2 0x186 PUSH2 0x1B6C JUMP JUMPDEST PUSH1 0x0 PUSH2 0x38E PUSH1 0x1 DUP4 PUSH4 0xFFFFFFFF PUSH2 0x1B7C AND JUMP JUMPDEST SWAP1 POP JUMPDEST SWAP2 SWAP1 POP JUMP JUMPDEST PUSH2 0x3A6 PUSH2 0x3A1 PUSH2 0x1BE7 JUMP JUMPDEST PUSH2 0x1B5A JUMP JUMPDEST PUSH2 0x3E1 JUMPI PUSH1 0x40 MLOAD PUSH3 0x461BCD PUSH1 0xE5 SHL DUP2 MSTORE PUSH1 0x4 ADD DUP1 DUP1 PUSH1 0x20 ADD DUP3 DUP2 SUB DUP3 MSTORE PUSH1 0x32 DUP2 MSTORE PUSH1 0x20 ADD DUP1 PUSH2 0x238B PUSH1 0x32 SWAP2 CODECOPY PUSH1 0x40 ADD SWAP2 POP POP PUSH1 0x40 MLOAD DUP1 SWAP2 SUB SWAP1 REVERT JUMPDEST PUSH1 0x2 DUP1 SLOAD PUSH1 0x1 PUSH1 0x1 PUSH1 0xA0 SHL SUB NOT AND PUSH1 0x1 PUSH1 0x1 PUSH1 0xA0 SHL SUB SWAP3 SWAP1 SWAP3 AND SWAP2 SWAP1 SWAP2 OR SWAP1 SSTORE JUMP JUMPDEST PUSH2 0x40E PUSH2 0x3A1 PUSH2 0x1BE7 JUMP JUMPDEST PUSH2 0x449 JUMPI PUSH1 0x40 MLOAD PUSH3 0x461BCD PUSH1 0xE5 SHL DUP2 MSTORE PUSH1 0x4 ADD DUP1 DUP1 PUSH1 0x20 ADD DUP3 DUP2 SUB DUP3 MSTORE PUSH1 0x32 DUP2 MSTORE PUSH1 0x20 ADD DUP1 PUSH2 0x238B PUSH1 0x32 SWAP2 CODECOPY PUSH1 0x40 ADD SWAP2 POP POP PUSH1 0x40 MLOAD DUP1 SWAP2 SUB SWAP1 REVERT JUMPDEST PUSH2 0x452 DUP2 PUSH2 0x1BEB JUMP JUMPDEST POP JUMP JUMPDEST PUSH2 0x460 PUSH2 0x3A1 PUSH2 0x1BE7 JUMP JUMPDEST PUSH2 0x49B JUMPI PUSH1 0x40 MLOAD PUSH3 0x461BCD PUSH1 0xE5 SHL DUP2 MSTORE PUSH1 0x4 ADD DUP1 DUP1 PUSH1 0x20 ADD DUP3 DUP2 SUB DUP3 MSTORE PUSH1 0x32 DUP2 MSTORE PUSH1 0x20 ADD DUP1 PUSH2 0x238B PUSH1 0x32 SWAP2 CODECOPY PUSH1 0x40 ADD SWAP2 POP POP PUSH1 0x40 MLOAD DUP1 SWAP2 SUB SWAP1 REVERT JUMPDEST PUSH1 0x4 SLOAD PUSH1 0x1 PUSH1 0x1 PUSH1 0xA0 SHL SUB AND SELFDESTRUCT JUMPDEST PUSH2 0x4B9 PUSH2 0x4B4 PUSH2 0x1BE7 JUMP JUMPDEST PUSH2 0x37B JUMP JUMPDEST PUSH2 0x4F4 JUMPI PUSH1 0x40 MLOAD PUSH3 0x461BCD PUSH1 0xE5 SHL DUP2 MSTORE PUSH1 0x4 ADD DUP1 DUP1 PUSH1 0x20 ADD DUP3 DUP2 SUB DUP3 MSTORE PUSH1 0x34 DUP2 MSTORE PUSH1 0x20 ADD DUP1 PUSH2 0x2156 PUSH1 0x34 SWAP2 CODECOPY PUSH1 0x40 ADD SWAP2 POP POP PUSH1 0x40 MLOAD DUP1 SWAP2 SUB SWAP1 REVERT JUMPDEST PUSH1 0x3 PUSH1 0x0 SWAP1 SLOAD SWAP1 PUSH2 0x100 EXP SWAP1 DIV PUSH1 0x1 PUSH1 0x1 PUSH1 0xA0 SHL SUB AND PUSH1 0x1 PUSH1 0x1 PUSH1 0xA0 SHL SUB AND PUSH4 0x47535D7B PUSH1 0x40 MLOAD DUP2 PUSH4 0xFFFFFFFF AND PUSH1 0xE0 SHL DUP2 MSTORE PUSH1 0x4 ADD PUSH1 0x20 PUSH1 0x40 MLOAD DUP1 DUP4 SUB DUP2 DUP7 DUP1 EXTCODESIZE ISZERO DUP1 ISZERO PUSH2 0x542 JUMPI PUSH1 0x0 DUP1 REVERT JUMPDEST POP GAS STATICCALL ISZERO DUP1 ISZERO PUSH2 0x556 JUMPI RETURNDATASIZE PUSH1 0x0 DUP1 RETURNDATACOPY RETURNDATASIZE PUSH1 0x0 REVERT JUMPDEST POP POP POP POP PUSH1 0x40 MLOAD RETURNDATASIZE PUSH1 0x20 DUP2 LT ISZERO PUSH2 0x56C JUMPI PUSH1 0x0 DUP1 REVERT JUMPDEST POP MLOAD ISZERO PUSH2 0x5C0 JUMPI PUSH1 0x40 DUP1 MLOAD PUSH3 0x461BCD PUSH1 0xE5 SHL DUP2 MSTORE PUSH1 0x20 PUSH1 0x4 DUP3 ADD MSTORE PUSH1 0x1A PUSH1 0x24 DUP3 ADD MSTORE PUSH32 0x4368616C6C656E67653A206D61726B6574206973206F70656E2E000000000000 PUSH1 0x44 DUP3 ADD MSTORE SWAP1 MLOAD SWAP1 DUP2 SWAP1 SUB PUSH1 0x64 ADD SWAP1 REVERT JUMPDEST PUSH2 0x5C9 DUP2 PUSH2 0x1C33 JUMP JUMPDEST ISZERO PUSH2 0x605 JUMPI PUSH1 0x40 MLOAD PUSH3 0x461BCD PUSH1 0xE5 SHL DUP2 MSTORE PUSH1 0x4 ADD DUP1 DUP1 PUSH1 0x20 ADD DUP3 DUP2 SUB DUP3 MSTORE PUSH1 0x26 DUP2 MSTORE PUSH1 0x20 ADD DUP1 PUSH2 0x240F PUSH1 0x26 SWAP2 CODECOPY PUSH1 0x40 ADD SWAP2 POP POP PUSH1 0x40 MLOAD DUP1 SWAP2 SUB SWAP1 REVERT JUMPDEST PUSH1 0x1 PUSH1 0x1 PUSH1 0xA0 SHL SUB DUP2 AND PUSH1 0x0 DUP2 DUP2 MSTORE PUSH1 0xB PUSH1 0x20 MSTORE PUSH1 0x40 DUP1 DUP3 KECCAK256 DUP1 SLOAD PUSH1 0xFF NOT AND PUSH1 0x1 OR SWAP1 SSTORE MLOAD PUSH32 0x2D3734A8E47AC8316E500AC231C90A6E1848CA2285F40D07EAA52005E4B3A0E9 SWAP2 SWAP1 LOG2 POP JUMP JUMPDEST PUSH1 0x0 PUSH2 0x65E PUSH2 0x4B4 PUSH2 0x1BE7 JUMP JUMPDEST PUSH2 0x699 JUMPI PUSH1 0x40 MLOAD PUSH3 0x461BCD PUSH1 0xE5 SHL DUP2 MSTORE PUSH1 0x4 ADD DUP1 DUP1 PUSH1 0x20 ADD DUP3 DUP2 SUB DUP3 MSTORE PUSH1 0x34 DUP2 MSTORE PUSH1 0x20 ADD DUP1 PUSH2 0x2156 PUSH1 0x34 SWAP2 CODECOPY PUSH1 0x40 ADD SWAP2 POP POP PUSH1 0x40 MLOAD DUP1 SWAP2 SUB SWAP1 REVERT JUMPDEST PUSH2 0x6A9 PUSH2 0x6A4 PUSH2 0x1BE7 JUMP JUMPDEST PUSH2 0x1C33 JUMP JUMPDEST PUSH2 0x6E4 JUMPI PUSH1 0x40 MLOAD PUSH3 0x461BCD PUSH1 0xE5 SHL DUP2 MSTORE PUSH1 0x4 ADD DUP1 DUP1 PUSH1 0x20 ADD DUP3 DUP2 SUB DUP3 MSTORE PUSH1 0x34 DUP2 MSTORE PUSH1 0x20 ADD DUP1 PUSH2 0x218A PUSH1 0x34 SWAP2 CODECOPY PUSH1 0x40 ADD SWAP2 POP POP PUSH1 0x40 MLOAD DUP1 SWAP2 SUB SWAP1 REVERT JUMPDEST PUSH1 0x2 SLOAD PUSH9 0x56BC75E2D63100000 SWAP1 PUSH1 0x1 PUSH1 0x1 PUSH1 0xA0 SHL SUB AND PUSH4 0xDD62ED3E PUSH2 0x708 PUSH2 0x1BE7 JUMP JUMPDEST PUSH1 0x40 DUP1 MLOAD PUSH1 0x1 PUSH1 0x1 PUSH1 0xE0 SHL SUB NOT PUSH1 0xE0 DUP6 SWAP1 SHL AND DUP2 MSTORE PUSH1 0x1 PUSH1 0x1 PUSH1 0xA0 SHL SUB SWAP1 SWAP3 AND PUSH1 0x4 DUP4 ADD MSTORE ADDRESS PUSH1 0x24 DUP4 ADD MSTORE MLOAD PUSH1 0x44 DUP1 DUP4 ADD SWAP3 PUSH1 0x20 SWAP3 SWAP2 SWAP1 DUP3 SWAP1 SUB ADD DUP2 DUP7 DUP1 EXTCODESIZE ISZERO DUP1 ISZERO PUSH2 0x753 JUMPI PUSH1 0x0 DUP1 REVERT JUMPDEST POP GAS STATICCALL ISZERO DUP1 ISZERO PUSH2 0x767 JUMPI RETURNDATASIZE PUSH1 0x0 DUP1 RETURNDATACOPY RETURNDATASIZE PUSH1 0x0 REVERT JUMPDEST POP POP POP POP PUSH1 0x40 MLOAD RETURNDATASIZE PUSH1 0x20 DUP2 LT ISZERO PUSH2 0x77D JUMPI PUSH1 0x0 DUP1 REVERT JUMPDEST POP MLOAD LT ISZERO PUSH2 0x7BC JUMPI PUSH1 0x40 MLOAD PUSH3 0x461BCD PUSH1 0xE5 SHL DUP2 MSTORE PUSH1 0x4 ADD DUP1 DUP1 PUSH1 0x20 ADD DUP3 DUP2 SUB DUP3 MSTORE PUSH1 0x3C DUP2 MSTORE PUSH1 0x20 ADD DUP1 PUSH2 0x21F2 PUSH1 0x3C SWAP2 CODECOPY PUSH1 0x40 ADD SWAP2 POP POP PUSH1 0x40 MLOAD DUP1 SWAP2 SUB SWAP1 REVERT JUMPDEST PUSH2 0x85C PUSH2 0x7C7 PUSH2 0x1BE7 JUMP JUMPDEST PUSH1 0x2 SLOAD PUSH1 0x1 PUSH1 0x1 PUSH1 0xA0 SHL SUB AND PUSH4 0xDD62ED3E PUSH2 0x7E0 PUSH2 0x1BE7 JUMP JUMPDEST PUSH1 0x40 DUP1 MLOAD PUSH1 0x1 PUSH1 0x1 PUSH1 0xE0 SHL SUB NOT PUSH1 0xE0 DUP6 SWAP1 SHL AND DUP2 MSTORE PUSH1 0x1 PUSH1 0x1 PUSH1 0xA0 SHL SUB SWAP1 SWAP3 AND PUSH1 0x4 DUP4 ADD MSTORE ADDRESS PUSH1 0x24 DUP4 ADD MSTORE MLOAD PUSH1 0x44 DUP1 DUP4 ADD SWAP3 PUSH1 0x20 SWAP3 SWAP2 SWAP1 DUP3 SWAP1 SUB ADD DUP2 DUP7 DUP1 EXTCODESIZE ISZERO DUP1 ISZERO PUSH2 0x82B JUMPI PUSH1 0x0 DUP1 REVERT JUMPDEST POP GAS STATICCALL ISZERO DUP1 ISZERO PUSH2 0x83F JUMPI RETURNDATASIZE PUSH1 0x0 DUP1 RETURNDATACOPY RETURNDATASIZE PUSH1 0x0 REVERT JUMPDEST POP POP POP POP PUSH1 0x40 MLOAD RETURNDATASIZE PUSH1 0x20 DUP2 LT ISZERO PUSH2 0x855 JUMPI PUSH1 0x0 DUP1 REVERT JUMPDEST POP MLOAD PUSH2 0x1C51 JUMP JUMPDEST PUSH1 0x0 DUP3 DUP2 MSTORE PUSH1 0x6 PUSH1 0x20 MSTORE PUSH1 0x40 SWAP1 KECCAK256 SLOAD PUSH1 0xFF AND PUSH2 0x8A9 JUMPI PUSH1 0x40 MLOAD PUSH3 0x461BCD PUSH1 0xE5 SHL DUP2 MSTORE PUSH1 0x4 ADD DUP1 DUP1 PUSH1 0x20 ADD DUP3 DUP2 SUB DUP3 MSTORE PUSH1 0x2C DUP2 MSTORE PUSH1 0x20 ADD DUP1 PUSH2 0x233E PUSH1 0x2C SWAP2 CODECOPY PUSH1 0x40 ADD SWAP2 POP POP PUSH1 0x40 MLOAD DUP1 SWAP2 SUB SWAP1 REVERT JUMPDEST PUSH1 0x0 DUP3 DUP2 MSTORE PUSH1 0x6 PUSH1 0x20 MSTORE PUSH1 0x40 SWAP1 KECCAK256 PUSH1 0x2 ADD SLOAD PUSH1 0x1 PUSH1 0xA0 SHL SWAP1 DIV PUSH1 0xFF AND PUSH2 0x916 JUMPI PUSH1 0x40 DUP1 MLOAD PUSH3 0x461BCD PUSH1 0xE5 SHL DUP2 MSTORE PUSH1 0x20 PUSH1 0x4 DUP3 ADD MSTORE PUSH1 0x1A PUSH1 0x24 DUP3 ADD MSTORE PUSH32 0x4368616C6C656E67653A20616C726561647920636C6F7365642E000000000000 PUSH1 0x44 DUP3 ADD MSTORE SWAP1 MLOAD SWAP1 DUP2 SWAP1 SUB PUSH1 0x64 ADD SWAP1 REVERT JUMPDEST PUSH1 0x0 DUP3 DUP2 MSTORE PUSH1 0x6 PUSH1 0x20 MSTORE PUSH1 0x40 SWAP1 KECCAK256 PUSH1 0x1 ADD SLOAD PUSH2 0x12C ADD TIMESTAMP LT ISZERO PUSH2 0x93B JUMPI POP PUSH1 0x0 PUSH2 0x391 JUMP JUMPDEST PUSH1 0x0 DUP3 DUP2 MSTORE PUSH1 0x6 PUSH1 0x20 MSTORE PUSH1 0x40 DUP2 KECCAK256 PUSH1 0x2 ADD DUP1 SLOAD PUSH1 0xFF PUSH1 0xA0 SHL NOT DUP2 AND SWAP1 SWAP2 SSTORE PUSH1 0x1 PUSH1 0x1 PUSH1 0xA0 SHL SUB AND PUSH2 0x96A PUSH2 0x1BE7 JUMP JUMPDEST PUSH1 0x1 PUSH1 0x1 PUSH1 0xA0 SHL SUB AND EQ ISZERO PUSH2 0x989 JUMPI POP PUSH9 0x5150AE84A8CDF00000 PUSH2 0x995 JUMP JUMPDEST POP PUSH9 0x3635C9ADC5DEA00000 JUMPDEST PUSH2 0x9A6 PUSH2 0x9A0 PUSH2 0x1BE7 JUMP JUMPDEST DUP3 PUSH2 0x1D0E JUMP JUMPDEST DUP1 DUP4 PUSH2 0x9B0 PUSH2 0x1BE7 JUMP JUMPDEST PUSH1 0x1 PUSH1 0x1 PUSH1 0xA0 SHL SUB AND PUSH32 0xFA5C135DE8C72E98296CDF12890CA8B3682F079FBB46849F6F549372F6348029 PUSH1 0x40 MLOAD PUSH1 0x40 MLOAD DUP1 SWAP2 SUB SWAP1 LOG4 POP PUSH1 0x1 SWAP3 SWAP2 POP POP JUMP JUMPDEST PUSH1 0x0 PUSH2 0x9FB PUSH2 0x3A1 PUSH2 0x1BE7 JUMP JUMPDEST PUSH2 0xA36 JUMPI PUSH1 0x40 MLOAD PUSH3 0x461BCD PUSH1 0xE5 SHL DUP2 MSTORE PUSH1 0x4 ADD DUP1 DUP1 PUSH1 0x20 ADD DUP3 DUP2 SUB DUP3 MSTORE PUSH1 0x32 DUP2 MSTORE PUSH1 0x20 ADD DUP1 PUSH2 0x238B PUSH1 0x32 SWAP2 CODECOPY PUSH1 0x40 ADD SWAP2 POP POP PUSH1 0x40 MLOAD DUP1 SWAP2 SUB SWAP1 REVERT JUMPDEST POP PUSH1 0x0 SWAP1 DUP2 MSTORE PUSH1 0x6 PUSH1 0x20 MSTORE PUSH1 0x40 SWAP1 KECCAK256 SLOAD PUSH1 0xFF AND SWAP1 JUMP JUMPDEST PUSH2 0xA57 PUSH2 0x3A1 PUSH2 0x1BE7 JUMP JUMPDEST PUSH2 0xA92 JUMPI PUSH1 0x40 MLOAD PUSH3 0x461BCD PUSH1 0xE5 SHL DUP2 MSTORE PUSH1 0x4 ADD DUP1 DUP1 PUSH1 0x20 ADD DUP3 DUP2 SUB DUP3 MSTORE PUSH1 0x32 DUP2 MSTORE PUSH1 0x20 ADD DUP1 PUSH2 0x238B PUSH1 0x32 SWAP2 CODECOPY PUSH1 0x40 ADD SWAP2 POP POP PUSH1 0x40 MLOAD DUP1 SWAP2 SUB SWAP1 REVERT JUMPDEST PUSH1 0xA PUSH1 0xC SLOAD LT PUSH2 0xAD3 JUMPI PUSH1 0x40 MLOAD PUSH3 0x461BCD PUSH1 0xE5 SHL DUP2 MSTORE PUSH1 0x4 ADD DUP1 DUP1 PUSH1 0x20 ADD DUP3 DUP2 SUB DUP3 MSTORE PUSH1 0x2E DUP2 MSTORE PUSH1 0x20 ADD DUP1 PUSH2 0x222E PUSH1 0x2E SWAP2 CODECOPY PUSH1 0x40 ADD SWAP2 POP POP PUSH1 0x40 MLOAD DUP1 SWAP2 SUB SWAP1 REVERT JUMPDEST PUSH1 0x0 DUP2 DUP2 MSTORE PUSH1 0x5 PUSH1 0x20 MSTORE PUSH1 0x40 SWAP1 KECCAK256 SLOAD PUSH1 0xFF AND ISZERO PUSH2 0xB37 JUMPI PUSH1 0x40 DUP1 MLOAD PUSH3 0x461BCD PUSH1 0xE5 SHL DUP2 MSTORE PUSH1 0x20 PUSH1 0x4 DUP3 ADD MSTORE PUSH1 0x1D PUSH1 0x24 DUP3 ADD MSTORE PUSH32 0x4368616C6C656E67653A20666C616720616C726561647920757365642E000000 PUSH1 0x44 DUP3 ADD MSTORE SWAP1 MLOAD SWAP1 DUP2 SWAP1 SUB PUSH1 0x64 ADD SWAP1 REVERT JUMPDEST PUSH2 0xB40 DUP3 PUSH2 0x1C33 JUMP JUMPDEST PUSH2 0xB7B JUMPI PUSH1 0x40 MLOAD PUSH3 0x461BCD PUSH1 0xE5 SHL DUP2 MSTORE PUSH1 0x4 ADD DUP1 DUP1 PUSH1 0x20 ADD DUP3 DUP2 SUB DUP3 MSTORE PUSH1 0x34 DUP2 MSTORE PUSH1 0x20 ADD DUP1 PUSH2 0x21BE PUSH1 0x34 SWAP2 CODECOPY PUSH1 0x40 ADD SWAP2 POP POP PUSH1 0x40 MLOAD DUP1 SWAP2 SUB SWAP1 REVERT JUMPDEST DUP2 PUSH1 0x1 PUSH1 0x1 PUSH1 0xA0 SHL SUB AND PUSH2 0xB8D PUSH2 0x1BE7 JUMP JUMPDEST PUSH1 0x1 PUSH1 0x1 PUSH1 0xA0 SHL SUB AND EQ ISZERO PUSH2 0xBD3 JUMPI PUSH1 0x40 MLOAD PUSH3 0x461BCD PUSH1 0xE5 SHL DUP2 MSTORE PUSH1 0x4 ADD DUP1 DUP1 PUSH1 0x20 ADD DUP3 DUP2 SUB DUP3 MSTORE PUSH1 0x29 DUP2 MSTORE PUSH1 0x20 ADD DUP1 PUSH2 0x22F4 PUSH1 0x29 SWAP2 CODECOPY PUSH1 0x40 ADD SWAP2 POP POP PUSH1 0x40 MLOAD DUP1 SWAP2 SUB SWAP1 REVERT JUMPDEST PUSH1 0x2 SLOAD PUSH9 0x2B5E3AF16B1880000 SWAP1 PUSH1 0x1 PUSH1 0x1 PUSH1 0xA0 SHL SUB AND PUSH4 0xDD62ED3E PUSH2 0xBF7 PUSH2 0x1BE7 JUMP JUMPDEST PUSH1 0x40 DUP1 MLOAD PUSH1 0x1 PUSH1 0x1 PUSH1 0xE0 SHL SUB NOT PUSH1 0xE0 DUP6 SWAP1 SHL AND DUP2 MSTORE PUSH1 0x1 PUSH1 0x1 PUSH1 0xA0 SHL SUB SWAP1 SWAP3 AND PUSH1 0x4 DUP4 ADD MSTORE ADDRESS PUSH1 0x24 DUP4 ADD MSTORE MLOAD PUSH1 0x44 DUP1 DUP4 ADD SWAP3 PUSH1 0x20 SWAP3 SWAP2 SWAP1 DUP3 SWAP1 SUB ADD DUP2 DUP7 DUP1 EXTCODESIZE ISZERO DUP1 ISZERO PUSH2 0xC42 JUMPI PUSH1 0x0 DUP1 REVERT JUMPDEST POP GAS STATICCALL ISZERO DUP1 ISZERO PUSH2 0xC56 JUMPI RETURNDATASIZE PUSH1 0x0 DUP1 RETURNDATACOPY RETURNDATASIZE PUSH1 0x0 REVERT JUMPDEST POP POP POP POP PUSH1 0x40 MLOAD RETURNDATASIZE PUSH1 0x20 DUP2 LT ISZERO PUSH2 0xC6C JUMPI PUSH1 0x0 DUP1 REVERT JUMPDEST POP MLOAD LT ISZERO PUSH2 0xCAB JUMPI PUSH1 0x40 MLOAD PUSH3 0x461BCD PUSH1 0xE5 SHL DUP2 MSTORE PUSH1 0x4 ADD DUP1 DUP1 PUSH1 0x20 ADD DUP3 DUP2 SUB DUP3 MSTORE PUSH1 0x3B DUP2 MSTORE PUSH1 0x20 ADD DUP1 PUSH2 0x2539 PUSH1 0x3B SWAP2 CODECOPY PUSH1 0x40 ADD SWAP2 POP POP PUSH1 0x40 MLOAD DUP1 SWAP2 SUB SWAP1 REVERT JUMPDEST PUSH1 0xC SLOAD PUSH2 0xCBF SWAP1 PUSH1 0x1 PUSH4 0xFFFFFFFF PUSH2 0x1DCB AND JUMP JUMPDEST PUSH1 0xC SSTORE PUSH1 0x0 DUP2 DUP2 MSTORE PUSH1 0x5 PUSH1 0x20 MSTORE PUSH1 0x40 SWAP1 KECCAK256 DUP1 SLOAD PUSH1 0xFF NOT AND PUSH1 0x1 SWAP1 DUP2 OR DUP3 SSTORE TIMESTAMP SWAP1 DUP3 ADD SSTORE PUSH1 0x3 ADD DUP1 SLOAD PUSH1 0xFF PUSH1 0xA0 SHL NOT AND PUSH1 0x1 PUSH1 0xA0 SHL OR SWAP1 SSTORE PUSH2 0xCFE PUSH2 0x1BE7 JUMP JUMPDEST PUSH1 0x0 DUP3 DUP2 MSTORE PUSH1 0x5 PUSH1 0x20 MSTORE PUSH1 0x40 SWAP1 KECCAK256 PUSH1 0x2 DUP2 ADD DUP1 SLOAD PUSH1 0x1 PUSH1 0x1 PUSH1 0xA0 SHL SUB NOT SWAP1 DUP2 AND PUSH1 0x1 PUSH1 0x1 PUSH1 0xA0 SHL SUB SWAP5 DUP6 AND OR SWAP1 SWAP2 SSTORE PUSH1 0x3 SWAP1 SWAP2 ADD DUP1 SLOAD SWAP1 SWAP2 AND SWAP2 DUP5 AND SWAP2 SWAP1 SWAP2 OR SWAP1 SSTORE PUSH2 0xD4B PUSH2 0x7C7 PUSH2 0x1BE7 JUMP JUMPDEST DUP2 PUSH1 0x1 PUSH1 0x1 PUSH1 0xA0 SHL SUB AND PUSH2 0xD5D PUSH2 0x1BE7 JUMP JUMPDEST PUSH1 0x1 PUSH1 0x1 PUSH1 0xA0 SHL SUB AND PUSH32 0xED4685CEF203F43449F0207532EB272E1F2DE4F8A6992033ED24099F086C2106 DUP4 PUSH1 0x40 MLOAD DUP1 DUP3 DUP2 MSTORE PUSH1 0x20 ADD SWAP2 POP POP PUSH1 0x40 MLOAD DUP1 SWAP2 SUB SWAP1 LOG3 POP POP JUMP JUMPDEST PUSH2 0xDAC PUSH2 0x3A1 PUSH2 0x1BE7 JUMP JUMPDEST PUSH2 0xDE7 JUMPI PUSH1 0x40 MLOAD PUSH3 0x461BCD PUSH1 0xE5 SHL DUP2 MSTORE PUSH1 0x4 ADD DUP1 DUP1 PUSH1 0x20 ADD DUP3 DUP2 SUB DUP3 MSTORE PUSH1 0x32 DUP2 MSTORE PUSH1 0x20 ADD DUP1 PUSH2 0x238B PUSH1 0x32 SWAP2 CODECOPY PUSH1 0x40 ADD SWAP2 POP POP PUSH1 0x40 MLOAD DUP1 SWAP2 SUB SWAP1 REVERT JUMPDEST PUSH1 0x4 PUSH1 0xE SLOAD LT PUSH2 0xE28 JUMPI PUSH1 0x40 MLOAD PUSH3 0x461BCD PUSH1 0xE5 SHL DUP2 MSTORE PUSH1 0x4 ADD DUP1 DUP1 PUSH1 0x20 ADD DUP3 DUP2 SUB DUP3 MSTORE PUSH1 0x30 DUP2 MSTORE PUSH1 0x20 ADD DUP1 PUSH2 0x23DF PUSH1 0x30 SWAP2 CODECOPY PUSH1 0x40 ADD SWAP2 POP POP PUSH1 0x40 MLOAD DUP1 SWAP2 SUB SWAP1 REVERT JUMPDEST PUSH1 0x3 PUSH1 0x0 SWAP1 SLOAD SWAP1 PUSH2 0x100 EXP SWAP1 DIV PUSH1 0x1 PUSH1 0x1 PUSH1 0xA0 SHL SUB AND PUSH1 0x1 PUSH1 0x1 PUSH1 0xA0 SHL SUB AND PUSH4 0x47535D7B PUSH1 0x40 MLOAD DUP2 PUSH4 0xFFFFFFFF AND PUSH1 0xE0 SHL DUP2 MSTORE PUSH1 0x4 ADD PUSH1 0x20 PUSH1 0x40 MLOAD DUP1 DUP4 SUB DUP2 DUP7 DUP1 EXTCODESIZE ISZERO DUP1 ISZERO PUSH2 0xE76 JUMPI PUSH1 0x0 DUP1 REVERT JUMPDEST POP GAS STATICCALL ISZERO DUP1 ISZERO PUSH2 0xE8A JUMPI RETURNDATASIZE PUSH1 0x0 DUP1 RETURNDATACOPY RETURNDATASIZE PUSH1 0x0 REVERT JUMPDEST POP POP POP POP PUSH1 0x40 MLOAD RETURNDATASIZE PUSH1 0x20 DUP2 LT ISZERO PUSH2 0xEA0 JUMPI PUSH1 0x0 DUP1 REVERT JUMPDEST POP MLOAD ISZERO PUSH2 0xEF4 JUMPI PUSH1 0x40 DUP1 MLOAD PUSH3 0x461BCD PUSH1 0xE5 SHL DUP2 MSTORE PUSH1 0x20 PUSH1 0x4 DUP3 ADD MSTORE PUSH1 0x1A PUSH1 0x24 DUP3 ADD MSTORE PUSH32 0x4368616C6C656E67653A206D61726B6574206973206F70656E2E000000000000 PUSH1 0x44 DUP3 ADD MSTORE SWAP1 MLOAD SWAP1 DUP2 SWAP1 SUB PUSH1 0x64 ADD SWAP1 REVERT JUMPDEST PUSH1 0x0 DUP2 SLT PUSH2 0xF57 JUMPI PUSH1 0xA DUP2 GT ISZERO PUSH2 0xF52 JUMPI PUSH1 0x40 DUP1 MLOAD PUSH3 0x461BCD PUSH1 0xE5 SHL DUP2 MSTORE PUSH1 0x20 PUSH1 0x4 DUP3 ADD MSTORE PUSH1 0x1E PUSH1 0x24 DUP3 ADD MSTORE PUSH32 0x4368616C6C656E67653A20657865656465642070657263656E746167652E0000 PUSH1 0x44 DUP3 ADD MSTORE SWAP1 MLOAD SWAP1 DUP2 SWAP1 SUB PUSH1 0x64 ADD SWAP1 REVERT JUMPDEST PUSH2 0xFB0 JUMP JUMPDEST PUSH1 0xA DUP2 PUSH1 0x0 SUB GT ISZERO PUSH2 0xFB0 JUMPI PUSH1 0x40 DUP1 MLOAD PUSH3 0x461BCD PUSH1 0xE5 SHL DUP2 MSTORE PUSH1 0x20 PUSH1 0x4 DUP3 ADD MSTORE PUSH1 0x1E PUSH1 0x24 DUP3 ADD MSTORE PUSH32 0x4368616C6C656E67653A20657865656465642070657263656E746167652E0000 PUSH1 0x44 DUP3 ADD MSTORE SWAP1 MLOAD SWAP1 DUP2 SWAP1 SUB PUSH1 0x64 ADD SWAP1 REVERT JUMPDEST PUSH1 0x2 SLOAD PUSH9 0xAD78EBC5AC6200000 SWAP1 PUSH1 0x1 PUSH1 0x1 PUSH1 0xA0 SHL SUB AND PUSH4 0xDD62ED3E PUSH2 0xFD4 PUSH2 0x1BE7 JUMP JUMPDEST PUSH1 0x40 DUP1 MLOAD PUSH1 0x1 PUSH1 0x1 PUSH1 0xE0 SHL SUB NOT PUSH1 0xE0 DUP6 SWAP1 SHL AND DUP2 MSTORE PUSH1 0x1 PUSH1 0x1 PUSH1 0xA0 SHL SUB SWAP1 SWAP3 AND PUSH1 0x4 DUP4 ADD MSTORE ADDRESS PUSH1 0x24 DUP4 ADD MSTORE MLOAD PUSH1 0x44 DUP1 DUP4 ADD SWAP3 PUSH1 0x20 SWAP3 SWAP2 SWAP1 DUP3 SWAP1 SUB ADD DUP2 DUP7 DUP1 EXTCODESIZE ISZERO DUP1 ISZERO PUSH2 0x101F JUMPI PUSH1 0x0 DUP1 REVERT JUMPDEST POP GAS STATICCALL ISZERO DUP1 ISZERO PUSH2 0x1033 JUMPI RETURNDATASIZE PUSH1 0x0 DUP1 RETURNDATACOPY RETURNDATASIZE PUSH1 0x0 REVERT JUMPDEST POP POP POP POP PUSH1 0x40 MLOAD RETURNDATASIZE PUSH1 0x20 DUP2 LT ISZERO PUSH2 0x1049 JUMPI PUSH1 0x0 DUP1 REVERT JUMPDEST POP MLOAD LT ISZERO PUSH2 0x1088 JUMPI PUSH1 0x40 MLOAD PUSH3 0x461BCD PUSH1 0xE5 SHL DUP2 MSTORE PUSH1 0x4 ADD DUP1 DUP1 PUSH1 0x20 ADD DUP3 DUP2 SUB DUP3 MSTORE PUSH1 0x3C DUP2 MSTORE PUSH1 0x20 ADD DUP1 PUSH2 0x2489 PUSH1 0x3C SWAP2 CODECOPY PUSH1 0x40 ADD SWAP2 POP POP PUSH1 0x40 MLOAD DUP1 SWAP2 SUB SWAP1 REVERT JUMPDEST PUSH1 0x3 SLOAD PUSH1 0x40 DUP1 MLOAD PUSH4 0x29F8A6D PUSH1 0xE1 SHL DUP2 MSTORE DUP2 MLOAD PUSH1 0x0 SWAP4 PUSH1 0x1 PUSH1 0x1 PUSH1 0xA0 SHL SUB AND SWAP3 PUSH4 0x53F14DA SWAP3 PUSH1 0x4 DUP1 DUP3 ADD SWAP4 SWAP2 DUP3 SWAP1 SUB ADD DUP2 DUP7 DUP1 EXTCODESIZE ISZERO DUP1 ISZERO PUSH2 0x10C9 JUMPI PUSH1 0x0 DUP1 REVERT JUMPDEST POP GAS STATICCALL ISZERO DUP1 ISZERO PUSH2 0x10DD JUMPI RETURNDATASIZE PUSH1 0x0 DUP1 RETURNDATACOPY RETURNDATASIZE PUSH1 0x0 REVERT JUMPDEST POP POP POP POP PUSH1 0x40 MLOAD RETURNDATASIZE PUSH1 0x40 DUP2 LT ISZERO PUSH2 0x10F3 JUMPI PUSH1 0x0 DUP1 REVERT JUMPDEST POP PUSH1 0x20 ADD MLOAD SWAP1 POP PUSH1 0x0 DUP1 DUP4 SLT PUSH2 0x112B JUMPI PUSH2 0x1124 PUSH1 0x64 PUSH2 0x1118 DUP5 DUP7 PUSH4 0xFFFFFFFF PUSH2 0x1E2C AND JUMP JUMPDEST SWAP1 PUSH4 0xFFFFFFFF PUSH2 0x1E85 AND JUMP JUMPDEST SWAP1 POP PUSH2 0x114A JUMP JUMPDEST PUSH2 0x1144 PUSH1 0x64 PUSH2 0x1118 DUP5 PUSH1 0x0 DUP8 SWAP1 SUB PUSH4 0xFFFFFFFF PUSH2 0x1E2C AND JUMP JUMPDEST PUSH1 0x0 SUB SWAP1 POP JUMPDEST PUSH1 0xE SLOAD PUSH2 0x115E SWAP1 PUSH1 0x1 PUSH4 0xFFFFFFFF PUSH2 0x1DCB AND JUMP JUMPDEST PUSH1 0xE SSTORE PUSH2 0x1169 PUSH2 0x1BE7 JUMP JUMPDEST PUSH1 0x8 DUP1 SLOAD PUSH1 0x1 PUSH1 0x1 PUSH1 0xA0 SHL SUB NOT AND PUSH1 0x1 PUSH1 0x1 PUSH1 0xA0 SHL SUB SWAP3 DUP4 AND OR SWAP1 SSTORE TIMESTAMP PUSH1 0x9 SSTORE PUSH1 0x3 SLOAD PUSH1 0x40 DUP1 MLOAD PUSH4 0x5F56A351 PUSH1 0xE0 SHL DUP2 MSTORE PUSH1 0x4 DUP2 ADD DUP6 SWAP1 MSTORE SWAP1 MLOAD SWAP2 SWAP1 SWAP3 AND SWAP2 PUSH4 0x5F56A351 SWAP2 PUSH1 0x24 DUP1 DUP4 ADD SWAP3 PUSH1 0x20 SWAP3 SWAP2 SWAP1 DUP3 SWAP1 SUB ADD DUP2 PUSH1 0x0 DUP8 DUP1 EXTCODESIZE ISZERO DUP1 ISZERO PUSH2 0x11CF JUMPI PUSH1 0x0 DUP1 REVERT JUMPDEST POP GAS CALL ISZERO DUP1 ISZERO PUSH2 0x11E3 JUMPI RETURNDATASIZE PUSH1 0x0 DUP1 RETURNDATACOPY RETURNDATASIZE PUSH1 0x0 REVERT JUMPDEST POP POP POP POP PUSH1 0x40 MLOAD RETURNDATASIZE PUSH1 0x20 DUP2 LT ISZERO PUSH2 0x11F9 JUMPI PUSH1 0x0 DUP1 REVERT JUMPDEST POP MLOAD PUSH1 0x7 SSTORE PUSH1 0xA DUP1 SLOAD PUSH1 0xFF NOT AND PUSH1 0x1 OR SWAP1 SSTORE PUSH2 0x1216 PUSH2 0x7C7 PUSH2 0x1BE7 JUMP JUMPDEST POP POP POP JUMP JUMPDEST PUSH1 0x0 PUSH2 0x1228 PUSH2 0x4B4 PUSH2 0x1BE7 JUMP JUMPDEST PUSH2 0x1263 JUMPI PUSH1 0x40 MLOAD PUSH3 0x461BCD PUSH1 0xE5 SHL DUP2 MSTORE PUSH1 0x4 ADD DUP1 DUP1 PUSH1 0x20 ADD DUP3 DUP2 SUB DUP3 MSTORE PUSH1 0x34 DUP2 MSTORE PUSH1 0x20 ADD DUP1 PUSH2 0x2156 PUSH1 0x34 SWAP2 CODECOPY PUSH1 0x40 ADD SWAP2 POP POP PUSH1 0x40 MLOAD DUP1 SWAP2 SUB SWAP1 REVERT JUMPDEST PUSH2 0x126B PUSH2 0x1BE7 JUMP JUMPDEST PUSH1 0x0 DUP4 DUP2 MSTORE PUSH1 0x5 PUSH1 0x20 MSTORE PUSH1 0x40 SWAP1 KECCAK256 PUSH1 0x3 ADD SLOAD PUSH1 0x1 PUSH1 0x1 PUSH1 0xA0 SHL SUB SWAP1 DUP2 AND SWAP2 AND EQ DUP1 PUSH2 0x12BA JUMPI POP PUSH2 0x1299 PUSH2 0x1BE7 JUMP JUMPDEST PUSH1 0x0 DUP4 DUP2 MSTORE PUSH1 0x5 PUSH1 0x20 MSTORE PUSH1 0x40 SWAP1 KECCAK256 PUSH1 0x2 ADD SLOAD PUSH1 0x1 PUSH1 0x1 PUSH1 0xA0 SHL SUB SWAP1 DUP2 AND SWAP2 AND EQ JUMPDEST PUSH2 0x12F5 JUMPI PUSH1 0x40 MLOAD PUSH3 0x461BCD PUSH1 0xE5 SHL DUP2 MSTORE PUSH1 0x4 ADD DUP1 DUP1 PUSH1 0x20 ADD DUP3 DUP2 SUB DUP3 MSTORE PUSH1 0x45 DUP2 MSTORE PUSH1 0x20 ADD DUP1 PUSH2 0x24C5 PUSH1 0x45 SWAP2 CODECOPY PUSH1 0x60 ADD SWAP2 POP POP PUSH1 0x40 MLOAD DUP1 SWAP2 SUB SWAP1 REVERT JUMPDEST PUSH1 0x2 SLOAD PUSH9 0x2B5E3AF16B1880000 SWAP1 PUSH1 0x1 PUSH1 0x1 PUSH1 0xA0 SHL SUB AND PUSH4 0xDD62ED3E PUSH2 0x1319 PUSH2 0x1BE7 JUMP JUMPDEST PUSH1 0x40 DUP1 MLOAD PUSH1 0x1 PUSH1 0x1 PUSH1 0xE0 SHL SUB NOT PUSH1 0xE0 DUP6 SWAP1 SHL AND DUP2 MSTORE PUSH1 0x1 PUSH1 0x1 PUSH1 0xA0 SHL SUB SWAP1 SWAP3 AND PUSH1 0x4 DUP4 ADD MSTORE ADDRESS PUSH1 0x24 DUP4 ADD MSTORE MLOAD PUSH1 0x44 DUP1 DUP4 ADD SWAP3 PUSH1 0x20 SWAP3 SWAP2 SWAP1 DUP3 SWAP1 SUB ADD DUP2 DUP7 DUP1 EXTCODESIZE ISZERO DUP1 ISZERO PUSH2 0x1364 JUMPI PUSH1 0x0 DUP1 REVERT JUMPDEST POP GAS STATICCALL ISZERO DUP1 ISZERO PUSH2 0x1378 JUMPI RETURNDATASIZE PUSH1 0x0 DUP1 RETURNDATACOPY RETURNDATASIZE PUSH1 0x0 REVERT JUMPDEST POP POP POP POP PUSH1 0x40 MLOAD RETURNDATASIZE PUSH1 0x20 DUP2 LT ISZERO PUSH2 0x138E JUMPI PUSH1 0x0 DUP1 REVERT JUMPDEST POP MLOAD LT ISZERO PUSH2 0x13CD JUMPI PUSH1 0x40 MLOAD PUSH3 0x461BCD PUSH1 0xE5 SHL DUP2 MSTORE PUSH1 0x4 ADD DUP1 DUP1 PUSH1 0x20 ADD DUP3 DUP2 SUB DUP3 MSTORE PUSH1 0x3B DUP2 MSTORE PUSH1 0x20 ADD DUP1 PUSH2 0x2298 PUSH1 0x3B SWAP2 CODECOPY PUSH1 0x40 ADD SWAP2 POP POP PUSH1 0x40 MLOAD DUP1 SWAP2 SUB SWAP1 REVERT JUMPDEST PUSH2 0x13D8 PUSH2 0x7C7 PUSH2 0x1BE7 JUMP JUMPDEST PUSH1 0x0 DUP3 DUP2 MSTORE PUSH1 0x5 PUSH1 0x20 MSTORE PUSH1 0x40 SWAP1 KECCAK256 SLOAD PUSH1 0xFF AND PUSH2 0x1425 JUMPI PUSH1 0x40 MLOAD PUSH3 0x461BCD PUSH1 0xE5 SHL DUP2 MSTORE PUSH1 0x4 ADD DUP1 DUP1 PUSH1 0x20 ADD DUP3 DUP2 SUB DUP3 MSTORE PUSH1 0x2C DUP2 MSTORE PUSH1 0x20 ADD DUP1 PUSH2 0x233E PUSH1 0x2C SWAP2 CODECOPY PUSH1 0x40 ADD SWAP2 POP POP PUSH1 0x40 MLOAD DUP1 SWAP2 SUB SWAP1 REVERT JUMPDEST PUSH1 0x0 DUP3 DUP2 MSTORE PUSH1 0x5 PUSH1 0x20 MSTORE PUSH1 0x40 SWAP1 KECCAK256 PUSH1 0x3 ADD SLOAD PUSH1 0x1 PUSH1 0xA0 SHL SWAP1 DIV PUSH1 0xFF AND PUSH2 0x1487 JUMPI PUSH1 0x40 DUP1 MLOAD PUSH3 0x461BCD PUSH1 0xE5 SHL DUP2 MSTORE PUSH1 0x20 PUSH1 0x4 DUP3 ADD MSTORE PUSH1 0x12 PUSH1 0x24 DUP3 ADD MSTORE PUSH18 0x21B430B63632B733B29D1031B637B9B2B217 PUSH1 0x71 SHL PUSH1 0x44 DUP3 ADD MSTORE SWAP1 MLOAD SWAP1 DUP2 SWAP1 SUB PUSH1 0x64 ADD SWAP1 REVERT JUMPDEST PUSH1 0x0 DUP3 DUP2 MSTORE PUSH1 0x5 PUSH1 0x20 MSTORE PUSH1 0x40 SWAP1 KECCAK256 PUSH1 0x1 ADD SLOAD PUSH2 0x12C ADD TIMESTAMP LT ISZERO PUSH2 0x14AC JUMPI POP PUSH1 0x0 PUSH2 0x391 JUMP JUMPDEST PUSH1 0x0 DUP3 DUP2 MSTORE PUSH1 0x5 PUSH1 0x20 MSTORE PUSH1 0x40 SWAP1 KECCAK256 PUSH1 0x3 ADD DUP1 SLOAD PUSH1 0xFF PUSH1 0xA0 SHL NOT AND SWAP1 SSTORE PUSH2 0x14E2 PUSH2 0x14D3 PUSH2 0x1BE7 JUMP JUMPDEST PUSH9 0x3635C9ADC5DEA00000 PUSH2 0x1D0E JUMP JUMPDEST PUSH9 0x3635C9ADC5DEA00000 DUP3 PUSH2 0x14F5 PUSH2 0x1BE7 JUMP JUMPDEST PUSH1 0x1 PUSH1 0x1 PUSH1 0xA0 SHL SUB AND PUSH32 0x6C48E695609C5CC5B9D779D70ABB26282055513FB1A55CBA442B3CBC6D43BCD PUSH1 0x40 MLOAD PUSH1 0x40 MLOAD DUP1 SWAP2 SUB SWAP1 LOG4 POP PUSH1 0x1 SWAP2 SWAP1 POP JUMP JUMPDEST PUSH1 0x0 PUSH2 0x153F PUSH2 0x3A1 PUSH2 0x1BE7 JUMP JUMPDEST PUSH2 0x157A JUMPI PUSH1 0x40 MLOAD PUSH3 0x461BCD PUSH1 0xE5 SHL DUP2 MSTORE PUSH1 0x4 ADD DUP1 DUP1 PUSH1 0x20 ADD DUP3 DUP2 SUB DUP3 MSTORE PUSH1 0x32 DUP2 MSTORE PUSH1 0x20 ADD DUP1 PUSH2 0x238B PUSH1 0x32 SWAP2 CODECOPY PUSH1 0x40 ADD SWAP2 POP POP PUSH1 0x40 MLOAD DUP1 SWAP2 SUB SWAP1 REVERT JUMPDEST POP PUSH1 0x0 SWAP1 DUP2 MSTORE PUSH1 0x5 PUSH1 0x20 MSTORE PUSH1 0x40 SWAP1 KECCAK256 SLOAD PUSH1 0xFF AND SWAP1 JUMP JUMPDEST PUSH2 0x159B PUSH2 0x3A1 PUSH2 0x1BE7 JUMP JUMPDEST PUSH2 0x15D6 JUMPI PUSH1 0x40 MLOAD PUSH3 0x461BCD PUSH1 0xE5 SHL DUP2 MSTORE PUSH1 0x4 ADD DUP1 DUP1 PUSH1 0x20 ADD DUP3 DUP2 SUB DUP3 MSTORE PUSH1 0x32 DUP2 MSTORE PUSH1 0x20 ADD DUP1 PUSH2 0x238B PUSH1 0x32 SWAP2 CODECOPY PUSH1 0x40 ADD SWAP2 POP POP PUSH1 0x40 MLOAD DUP1 SWAP2 SUB SWAP1 REVERT JUMPDEST PUSH1 0xA PUSH1 0xD SLOAD LT PUSH2 0x1617 JUMPI PUSH1 0x40 MLOAD PUSH3 0x461BCD PUSH1 0xE5 SHL DUP2 MSTORE PUSH1 0x4 ADD DUP1 DUP1 PUSH1 0x20 ADD DUP3 DUP2 SUB DUP3 MSTORE PUSH1 0x2C DUP2 MSTORE PUSH1 0x20 ADD DUP1 PUSH2 0x212A PUSH1 0x2C SWAP2 CODECOPY PUSH1 0x40 ADD SWAP2 POP POP PUSH1 0x40 MLOAD DUP1 SWAP2 SUB SWAP1 REVERT JUMPDEST PUSH2 0x1622 PUSH2 0x6A4 PUSH2 0x1BE7 JUMP JUMPDEST PUSH2 0x165D JUMPI PUSH1 0x40 MLOAD PUSH3 0x461BCD PUSH1 0xE5 SHL DUP2 MSTORE PUSH1 0x4 ADD DUP1 DUP1 PUSH1 0x20 ADD DUP3 DUP2 SUB DUP3 MSTORE PUSH1 0x2F DUP2 MSTORE PUSH1 0x20 ADD DUP1 PUSH2 0x250A PUSH1 0x2F SWAP2 CODECOPY PUSH1 0x40 ADD SWAP2 POP POP PUSH1 0x40 MLOAD DUP1 SWAP2 SUB SWAP1 REVERT JUMPDEST PUSH1 0x0 DUP2 DUP2 MSTORE PUSH1 0x6 PUSH1 0x20 MSTORE PUSH1 0x40 SWAP1 KECCAK256 SLOAD PUSH1 0xFF AND ISZERO PUSH2 0x16C1 JUMPI PUSH1 0x40 DUP1 MLOAD PUSH3 0x461BCD PUSH1 0xE5 SHL DUP2 MSTORE PUSH1 0x20 PUSH1 0x4 DUP3 ADD MSTORE PUSH1 0x1D PUSH1 0x24 DUP3 ADD MSTORE PUSH32 0x4368616C6C656E67653A20666C616720616C726561647920757365642E000000 PUSH1 0x44 DUP3 ADD MSTORE SWAP1 MLOAD SWAP1 DUP2 SWAP1 SUB PUSH1 0x64 ADD SWAP1 REVERT JUMPDEST PUSH1 0x2 SLOAD PUSH9 0x56BC75E2D63100000 SWAP1 PUSH1 0x1 PUSH1 0x1 PUSH1 0xA0 SHL SUB AND PUSH4 0xDD62ED3E PUSH2 0x16E5 PUSH2 0x1BE7 JUMP JUMPDEST PUSH1 0x40 DUP1 MLOAD PUSH1 0x1 PUSH1 0x1 PUSH1 0xE0 SHL SUB NOT PUSH1 0xE0 DUP6 SWAP1 SHL AND DUP2 MSTORE PUSH1 0x1 PUSH1 0x1 PUSH1 0xA0 SHL SUB SWAP1 SWAP3 AND PUSH1 0x4 DUP4 ADD MSTORE ADDRESS PUSH1 0x24 DUP4 ADD MSTORE MLOAD PUSH1 0x44 DUP1 DUP4 ADD SWAP3 PUSH1 0x20 SWAP3 SWAP2 SWAP1 DUP3 SWAP1 SUB ADD DUP2 DUP7 DUP1 EXTCODESIZE ISZERO DUP1 ISZERO PUSH2 0x1730 JUMPI PUSH1 0x0 DUP1 REVERT JUMPDEST POP GAS STATICCALL ISZERO DUP1 ISZERO PUSH2 0x1744 JUMPI RETURNDATASIZE PUSH1 0x0 DUP1 RETURNDATACOPY RETURNDATASIZE PUSH1 0x0 REVERT JUMPDEST POP POP POP POP PUSH1 0x40 MLOAD RETURNDATASIZE PUSH1 0x20 DUP2 LT ISZERO PUSH2 0x175A JUMPI PUSH1 0x0 DUP1 REVERT JUMPDEST POP MLOAD LT ISZERO PUSH2 0x1799 JUMPI PUSH1 0x40 MLOAD PUSH3 0x461BCD PUSH1 0xE5 SHL DUP2 MSTORE PUSH1 0x4 ADD DUP1 DUP1 PUSH1 0x20 ADD DUP3 DUP2 SUB DUP3 MSTORE PUSH1 0x3C DUP2 MSTORE PUSH1 0x20 ADD DUP1 PUSH2 0x225C PUSH1 0x3C SWAP2 CODECOPY PUSH1 0x40 ADD SWAP2 POP POP PUSH1 0x40 MLOAD DUP1 SWAP2 SUB SWAP1 REVERT JUMPDEST PUSH1 0xD SLOAD PUSH2 0x17AD SWAP1 PUSH1 0x1 PUSH4 0xFFFFFFFF PUSH2 0x1DCB AND JUMP JUMPDEST PUSH1 0xD SSTORE PUSH1 0x0 DUP2 DUP2 MSTORE PUSH1 0x6 PUSH1 0x20 MSTORE PUSH1 0x40 SWAP1 KECCAK256 DUP1 SLOAD PUSH1 0xFF NOT AND PUSH1 0x1 SWAP1 DUP2 OR DUP3 SSTORE TIMESTAMP SWAP1 DUP3 ADD SSTORE PUSH1 0x2 ADD DUP1 SLOAD PUSH1 0xFF PUSH1 0xA0 SHL NOT AND PUSH1 0x1 PUSH1 0xA0 SHL OR SWAP1 SSTORE PUSH2 0x17EC PUSH2 0x1BE7 JUMP JUMPDEST PUSH1 0x0 DUP3 DUP2 MSTORE PUSH1 0x6 PUSH1 0x20 MSTORE PUSH1 0x40 SWAP1 KECCAK256 PUSH1 0x2 ADD DUP1 SLOAD PUSH1 0x1 PUSH1 0x1 PUSH1 0xA0 SHL SUB NOT AND PUSH1 0x1 PUSH1 0x1 PUSH1 0xA0 SHL SUB SWAP3 SWAP1 SWAP3 AND SWAP2 SWAP1 SWAP2 OR SWAP1 SSTORE PUSH2 0x1826 PUSH2 0x7C7 PUSH2 0x1BE7 JUMP JUMPDEST PUSH2 0x182E PUSH2 0x1BE7 JUMP JUMPDEST PUSH1 0x1 PUSH1 0x1 PUSH1 0xA0 SHL SUB AND PUSH32 0x3D1151F535AB57B7EEFBBF3BAAFF50EFAAC64F3F0DF368617499905F78CB2373 DUP3 PUSH1 0x40 MLOAD DUP1 DUP3 DUP2 MSTORE PUSH1 0x20 ADD SWAP2 POP POP PUSH1 0x40 MLOAD DUP1 SWAP2 SUB SWAP1 LOG2 POP JUMP JUMPDEST PUSH2 0x1881 PUSH2 0x187C PUSH2 0x1BE7 JUMP JUMPDEST PUSH2 0x1EC7 JUMP JUMPDEST JUMP JUMPDEST PUSH2 0x188E PUSH2 0x4B4 PUSH2 0x1BE7 JUMP JUMPDEST PUSH2 0x18C9 JUMPI PUSH1 0x40 MLOAD PUSH3 0x461BCD PUSH1 0xE5 SHL DUP2 MSTORE PUSH1 0x4 ADD DUP1 DUP1 PUSH1 0x20 ADD DUP3 DUP2 SUB DUP3 MSTORE PUSH1 0x34 DUP2 MSTORE PUSH1 0x20 ADD DUP1 PUSH2 0x2156 PUSH1 0x34 SWAP2 CODECOPY PUSH1 0x40 ADD SWAP2 POP POP PUSH1 0x40 MLOAD DUP1 SWAP2 SUB SWAP1 REVERT JUMPDEST PUSH2 0x452 DUP2 PUSH2 0x1F0F JUMP JUMPDEST PUSH1 0x0 PUSH2 0x38E DUP3 PUSH2 0x1C33 JUMP JUMPDEST PUSH2 0x18E8 PUSH2 0x4B4 PUSH2 0x1BE7 JUMP JUMPDEST PUSH2 0x1923 JUMPI PUSH1 0x40 MLOAD PUSH3 0x461BCD PUSH1 0xE5 SHL DUP2 MSTORE PUSH1 0x4 ADD DUP1 DUP1 PUSH1 0x20 ADD DUP3 DUP2 SUB DUP3 MSTORE PUSH1 0x34 DUP2 MSTORE PUSH1 0x20 ADD DUP1 PUSH2 0x2156 PUSH1 0x34 SWAP2 CODECOPY PUSH1 0x40 ADD SWAP2 POP POP PUSH1 0x40 MLOAD DUP1 SWAP2 SUB SWAP1 REVERT JUMPDEST PUSH1 0x7 SLOAD DUP2 EQ PUSH2 0x1970 JUMPI PUSH1 0x40 DUP1 MLOAD PUSH3 0x461BCD PUSH1 0xE5 SHL DUP2 MSTORE PUSH1 0x20 PUSH1 0x4 DUP3 ADD MSTORE PUSH1 0x14 PUSH1 0x24 DUP3 ADD MSTORE PUSH20 0x21B430B63632B733B29D103BB937B7339034B217 PUSH1 0x61 SHL PUSH1 0x44 DUP3 ADD MSTORE SWAP1 MLOAD SWAP1 DUP2 SWAP1 SUB PUSH1 0x64 ADD SWAP1 REVERT JUMPDEST PUSH1 0xA SLOAD PUSH1 0xFF AND PUSH2 0x19BC JUMPI PUSH1 0x40 DUP1 MLOAD PUSH3 0x461BCD PUSH1 0xE5 SHL DUP2 MSTORE PUSH1 0x20 PUSH1 0x4 DUP3 ADD MSTORE PUSH1 0x12 PUSH1 0x24 DUP3 ADD MSTORE PUSH18 0x21B430B63632B733B29D1031B637B9B2B217 PUSH1 0x71 SHL PUSH1 0x44 DUP3 ADD MSTORE SWAP1 MLOAD SWAP1 DUP2 SWAP1 SUB PUSH1 0x64 ADD SWAP1 REVERT JUMPDEST PUSH1 0x9 SLOAD PUSH1 0x0 SWAP1 PUSH2 0xE10 ADD TIMESTAMP GT PUSH2 0x1A89 JUMPI PUSH1 0x8 SLOAD PUSH1 0x1 PUSH1 0x1 PUSH1 0xA0 SHL SUB AND PUSH2 0x19E0 PUSH2 0x1BE7 JUMP JUMPDEST PUSH1 0x1 PUSH1 0x1 PUSH1 0xA0 SHL SUB AND EQ ISZERO PUSH2 0x1A26 JUMPI PUSH1 0x40 MLOAD PUSH3 0x461BCD PUSH1 0xE5 SHL DUP2 MSTORE PUSH1 0x4 ADD DUP1 DUP1 PUSH1 0x20 ADD DUP3 DUP2 SUB DUP3 MSTORE PUSH1 0x33 DUP2 MSTORE PUSH1 0x20 ADD DUP1 PUSH2 0x2456 PUSH1 0x33 SWAP2 CODECOPY PUSH1 0x40 ADD SWAP2 POP POP PUSH1 0x40 MLOAD DUP1 SWAP2 SUB SWAP1 REVERT JUMPDEST POP PUSH9 0x410D586A20A4C00000 PUSH2 0x1A3C PUSH2 0x9A0 PUSH2 0x1BE7 JUMP JUMPDEST PUSH1 0xA DUP1 SLOAD PUSH1 0xFF NOT AND SWAP1 SSTORE DUP1 PUSH2 0x1A4F PUSH2 0x1BE7 JUMP JUMPDEST PUSH1 0x1 PUSH1 0x1 PUSH1 0xA0 SHL SUB AND PUSH32 0x75E44BCCB8E953F3228B7BDE1DC2A77AC72025AA92A8A329378D26B4F4E1A860 PUSH1 0x40 MLOAD PUSH1 0x40 MLOAD DUP1 SWAP2 SUB SWAP1 LOG3 PUSH2 0x1AEE JUMP JUMPDEST POP PUSH1 0x8 SLOAD PUSH9 0x6C6B935B8BBD400000 SWAP1 PUSH2 0x1AAB SWAP1 PUSH1 0x1 PUSH1 0x1 PUSH1 0xA0 SHL SUB AND DUP3 PUSH2 0x1D0E JUMP JUMPDEST PUSH1 0xA DUP1 SLOAD PUSH1 0xFF NOT AND SWAP1 SSTORE PUSH1 0x8 SLOAD PUSH1 0x40 MLOAD DUP3 SWAP2 PUSH1 0x1 PUSH1 0x1 PUSH1 0xA0 SHL SUB AND SWAP1 PUSH32 0x75E44BCCB8E953F3228B7BDE1DC2A77AC72025AA92A8A329378D26B4F4E1A860 SWAP1 PUSH1 0x0 SWAP1 LOG3 JUMPDEST POP POP JUMP JUMPDEST PUSH2 0x1AFD PUSH2 0x3A1 PUSH2 0x1BE7 JUMP JUMPDEST PUSH2 0x1B38 JUMPI PUSH1 0x40 MLOAD PUSH3 0x461BCD PUSH1 0xE5 SHL DUP2 MSTORE PUSH1 0x4 ADD DUP1 DUP1 PUSH1 0x20 ADD DUP3 DUP2 SUB DUP3 MSTORE PUSH1 0x32 DUP2 MSTORE PUSH1 0x20 ADD DUP1 PUSH2 0x238B PUSH1 0x32 SWAP2 CODECOPY PUSH1 0x40 ADD SWAP2 POP POP PUSH1 0x40 MLOAD DUP1 SWAP2 SUB SWAP1 REVERT JUMPDEST PUSH1 0x3 DUP1 SLOAD PUSH1 0x1 PUSH1 0x1 PUSH1 0xA0 SHL SUB NOT AND PUSH1 0x1 PUSH1 0x1 PUSH1 0xA0 SHL SUB SWAP3 SWAP1 SWAP3 AND SWAP2 SWAP1 SWAP2 OR SWAP1 SSTORE JUMP JUMPDEST PUSH1 0x0 PUSH2 0x38E DUP2 DUP4 PUSH4 0xFFFFFFFF PUSH2 0x1B7C AND JUMP JUMPDEST PUSH2 0x1881 PUSH2 0x1B77 PUSH2 0x1BE7 JUMP JUMPDEST PUSH2 0x1F57 JUMP JUMPDEST PUSH1 0x0 PUSH1 0x1 PUSH1 0x1 PUSH1 0xA0 SHL SUB DUP3 AND PUSH2 0x1BC3 JUMPI PUSH1 0x40 MLOAD PUSH3 0x461BCD PUSH1 0xE5 SHL DUP2 MSTORE PUSH1 0x4 ADD DUP1 DUP1 PUSH1 0x20 ADD DUP3 DUP2 SUB DUP3 MSTORE PUSH1 0x22 DUP2 MSTORE PUSH1 0x20 ADD DUP1 PUSH2 0x23BD PUSH1 0x22 SWAP2 CODECOPY PUSH1 0x40 ADD SWAP2 POP POP PUSH1 0x40 MLOAD DUP1 SWAP2 SUB SWAP1 REVERT JUMPDEST POP PUSH1 0x1 PUSH1 0x1 PUSH1 0xA0 SHL SUB DUP2 AND PUSH1 0x0 SWAP1 DUP2 MSTORE PUSH1 0x20 DUP4 SWAP1 MSTORE PUSH1 0x40 SWAP1 KECCAK256 SLOAD PUSH1 0xFF AND JUMPDEST SWAP3 SWAP2 POP POP JUMP JUMPDEST CALLER SWAP1 JUMP JUMPDEST PUSH2 0x1BFC PUSH1 0x0 DUP3 PUSH4 0xFFFFFFFF PUSH2 0x1F9F AND JUMP JUMPDEST PUSH1 0x40 MLOAD PUSH1 0x1 PUSH1 0x1 PUSH1 0xA0 SHL SUB DUP3 AND SWAP1 PUSH32 0x3B4A40CCCF2058C593542587329DD385BE4F0B588DB5471FBD9598E56DD7093A SWAP1 PUSH1 0x0 SWAP1 LOG2 POP JUMP JUMPDEST PUSH1 0x1 PUSH1 0x1 PUSH1 0xA0 SHL SUB AND PUSH1 0x0 SWAP1 DUP2 MSTORE PUSH1 0xB PUSH1 0x20 MSTORE PUSH1 0x40 SWAP1 KECCAK256 SLOAD PUSH1 0xFF AND SWAP1 JUMP JUMPDEST PUSH1 0x2 SLOAD PUSH1 0x40 DUP1 MLOAD PUSH4 0x79CC679 PUSH1 0xE4 SHL DUP2 MSTORE PUSH1 0x1 PUSH1 0x1 PUSH1 0xA0 SHL SUB DUP6 DUP2 AND PUSH1 0x4 DUP4 ADD MSTORE PUSH1 0x24 DUP3 ADD DUP6 SWAP1 MSTORE SWAP2 MLOAD SWAP2 SWAP1 SWAP3 AND SWAP2 PUSH4 0x79CC6790 SWAP2 PUSH1 0x44 DUP1 DUP4 ADD SWAP3 PUSH1 0x20 SWAP3 SWAP2 SWAP1 DUP3 SWAP1 SUB ADD DUP2 PUSH1 0x0 DUP8 DUP1 EXTCODESIZE ISZERO DUP1 ISZERO PUSH2 0x1CA7 JUMPI PUSH1 0x0 DUP1 REVERT JUMPDEST POP GAS CALL ISZERO DUP1 ISZERO PUSH2 0x1CBB JUMPI RETURNDATASIZE PUSH1 0x0 DUP1 RETURNDATACOPY RETURNDATASIZE PUSH1 0x0 REVERT JUMPDEST POP POP POP POP PUSH1 0x40 MLOAD RETURNDATASIZE PUSH1 0x20 DUP2 LT ISZERO PUSH2 0x1CD1 JUMPI PUSH1 0x0 DUP1 REVERT JUMPDEST POP MLOAD PUSH2 0x1AEE JUMPI PUSH1 0x40 MLOAD PUSH3 0x461BCD PUSH1 0xE5 SHL DUP2 MSTORE PUSH1 0x4 ADD DUP1 DUP1 PUSH1 0x20 ADD DUP3 DUP2 SUB DUP3 MSTORE PUSH1 0x21 DUP2 MSTORE PUSH1 0x20 ADD DUP1 PUSH2 0x231D PUSH1 0x21 SWAP2 CODECOPY PUSH1 0x40 ADD SWAP2 POP POP PUSH1 0x40 MLOAD DUP1 SWAP2 SUB SWAP1 REVERT JUMPDEST PUSH1 0x2 SLOAD PUSH1 0x40 DUP1 MLOAD PUSH4 0x40C10F19 PUSH1 0xE0 SHL DUP2 MSTORE PUSH1 0x1 PUSH1 0x1 PUSH1 0xA0 SHL SUB DUP6 DUP2 AND PUSH1 0x4 DUP4 ADD MSTORE PUSH1 0x24 DUP3 ADD DUP6 SWAP1 MSTORE SWAP2 MLOAD SWAP2 SWAP1 SWAP3 AND SWAP2 PUSH4 0x40C10F19 SWAP2 PUSH1 0x44 DUP1 DUP4 ADD SWAP3 PUSH1 0x20 SWAP3 SWAP2 SWAP1 DUP3 SWAP1 SUB ADD DUP2 PUSH1 0x0 DUP8 DUP1 EXTCODESIZE ISZERO DUP1 ISZERO PUSH2 0x1D64 JUMPI PUSH1 0x0 DUP1 REVERT JUMPDEST POP GAS CALL ISZERO DUP1 ISZERO PUSH2 0x1D78 JUMPI RETURNDATASIZE PUSH1 0x0 DUP1 RETURNDATACOPY RETURNDATASIZE PUSH1 0x0 REVERT JUMPDEST POP POP POP POP PUSH1 0x40 MLOAD RETURNDATASIZE PUSH1 0x20 DUP2 LT ISZERO PUSH2 0x1D8E JUMPI PUSH1 0x0 DUP1 REVERT JUMPDEST POP MLOAD PUSH2 0x1AEE JUMPI PUSH1 0x40 MLOAD PUSH3 0x461BCD PUSH1 0xE5 SHL DUP2 MSTORE PUSH1 0x4 ADD DUP1 DUP1 PUSH1 0x20 ADD DUP3 DUP2 SUB DUP3 MSTORE PUSH1 0x21 DUP2 MSTORE PUSH1 0x20 ADD DUP1 PUSH2 0x2435 PUSH1 0x21 SWAP2 CODECOPY PUSH1 0x40 ADD SWAP2 POP POP PUSH1 0x40 MLOAD DUP1 SWAP2 SUB SWAP1 REVERT JUMPDEST PUSH1 0x0 DUP3 DUP3 ADD DUP4 DUP2 LT ISZERO PUSH2 0x1E25 JUMPI PUSH1 0x40 DUP1 MLOAD PUSH3 0x461BCD PUSH1 0xE5 SHL DUP2 MSTORE PUSH1 0x20 PUSH1 0x4 DUP3 ADD MSTORE PUSH1 0x1B PUSH1 0x24 DUP3 ADD MSTORE PUSH32 0x536166654D6174683A206164646974696F6E206F766572666C6F770000000000 PUSH1 0x44 DUP3 ADD MSTORE SWAP1 MLOAD SWAP1 DUP2 SWAP1 SUB PUSH1 0x64 ADD SWAP1 REVERT JUMPDEST SWAP4 SWAP3 POP POP POP JUMP JUMPDEST PUSH1 0x0 DUP3 PUSH2 0x1E3B JUMPI POP PUSH1 0x0 PUSH2 0x1BE1 JUMP JUMPDEST DUP3 DUP3 MUL DUP3 DUP5 DUP3 DUP2 PUSH2 0x1E48 JUMPI INVALID JUMPDEST DIV EQ PUSH2 0x1E25 JUMPI PUSH1 0x40 MLOAD PUSH3 0x461BCD PUSH1 0xE5 SHL DUP2 MSTORE PUSH1 0x4 ADD DUP1 DUP1 PUSH1 0x20 ADD DUP3 DUP2 SUB DUP3 MSTORE PUSH1 0x21 DUP2 MSTORE PUSH1 0x20 ADD DUP1 PUSH2 0x236A PUSH1 0x21 SWAP2 CODECOPY PUSH1 0x40 ADD SWAP2 POP POP PUSH1 0x40 MLOAD DUP1 SWAP2 SUB SWAP1 REVERT JUMPDEST PUSH1 0x0 PUSH2 0x1E25 DUP4 DUP4 PUSH1 0x40 MLOAD DUP1 PUSH1 0x40 ADD PUSH1 0x40 MSTORE DUP1 PUSH1 0x1A DUP2 MSTORE PUSH1 0x20 ADD PUSH32 0x536166654D6174683A206469766973696F6E206279207A65726F000000000000 DUP2 MSTORE POP PUSH2 0x2020 JUMP JUMPDEST PUSH2 0x1ED8 PUSH1 0x1 DUP3 PUSH4 0xFFFFFFFF PUSH2 0x20C2 AND JUMP JUMPDEST PUSH1 0x40 MLOAD PUSH1 0x1 PUSH1 0x1 PUSH1 0xA0 SHL SUB DUP3 AND SWAP1 PUSH32 0xB4C88A9C5CD906354ABDD1CC29E4F94C6C4DE90754FB80CE51E6A33417BC81B6 SWAP1 PUSH1 0x0 SWAP1 LOG2 POP JUMP JUMPDEST PUSH2 0x1F20 PUSH1 0x1 DUP3 PUSH4 0xFFFFFFFF PUSH2 0x1F9F AND JUMP JUMPDEST PUSH1 0x40 MLOAD PUSH1 0x1 PUSH1 0x1 PUSH1 0xA0 SHL SUB DUP3 AND SWAP1 PUSH32 0xCD118A02BD36F224F6F1B93812F78D2BBC2C2DC1BC0F60C176E3B4FE09F1483F SWAP1 PUSH1 0x0 SWAP1 LOG2 POP JUMP JUMPDEST PUSH2 0x1F68 PUSH1 0x0 DUP3 PUSH4 0xFFFFFFFF PUSH2 0x20C2 AND JUMP JUMPDEST PUSH1 0x40 MLOAD PUSH1 0x1 PUSH1 0x1 PUSH1 0xA0 SHL SUB DUP3 AND SWAP1 PUSH32 0xEF69F7D97228658C92417BE1B16B19058315DE71FECB435D07B7D23728B6BD31 SWAP1 PUSH1 0x0 SWAP1 LOG2 POP JUMP JUMPDEST PUSH2 0x1FA9 DUP3 DUP3 PUSH2 0x1B7C JUMP JUMPDEST ISZERO PUSH2 0x1FFB JUMPI PUSH1 0x40 DUP1 MLOAD PUSH3 0x461BCD PUSH1 0xE5 SHL DUP2 MSTORE PUSH1 0x20 PUSH1 0x4 DUP3 ADD MSTORE PUSH1 0x1F PUSH1 0x24 DUP3 ADD MSTORE PUSH32 0x526F6C65733A206163636F756E7420616C72656164792068617320726F6C6500 PUSH1 0x44 DUP3 ADD MSTORE SWAP1 MLOAD SWAP1 DUP2 SWAP1 SUB PUSH1 0x64 ADD SWAP1 REVERT JUMPDEST PUSH1 0x1 PUSH1 0x1 PUSH1 0xA0 SHL SUB AND PUSH1 0x0 SWAP1 DUP2 MSTORE PUSH1 0x20 SWAP2 SWAP1 SWAP2 MSTORE PUSH1 0x40 SWAP1 KECCAK256 DUP1 SLOAD PUSH1 0xFF NOT AND PUSH1 0x1 OR SWAP1 SSTORE JUMP JUMPDEST PUSH1 0x0 DUP2 DUP4 PUSH2 0x20AC JUMPI PUSH1 0x40 MLOAD PUSH3 0x461BCD PUSH1 0xE5 SHL DUP2 MSTORE PUSH1 0x4 ADD DUP1 DUP1 PUSH1 0x20 ADD DUP3 DUP2 SUB DUP3 MSTORE DUP4 DUP2 DUP2 MLOAD DUP2 MSTORE PUSH1 0x20 ADD SWAP2 POP DUP1 MLOAD SWAP1 PUSH1 0x20 ADD SWAP1 DUP1 DUP4 DUP4 PUSH1 0x0 JUMPDEST DUP4 DUP2 LT ISZERO PUSH2 0x2071 JUMPI DUP2 DUP2 ADD MLOAD DUP4 DUP3 ADD MSTORE PUSH1 0x20 ADD PUSH2 0x2059 JUMP JUMPDEST POP POP POP POP SWAP1 POP SWAP1 DUP2 ADD SWAP1 PUSH1 0x1F AND DUP1 ISZERO PUSH2 0x209E JUMPI DUP1 DUP3 SUB DUP1 MLOAD PUSH1 0x1 DUP4 PUSH1 0x20 SUB PUSH2 0x100 EXP SUB NOT AND DUP2 MSTORE PUSH1 0x20 ADD SWAP2 POP JUMPDEST POP SWAP3 POP POP POP PUSH1 0x40 MLOAD DUP1 SWAP2 SUB SWAP1 REVERT JUMPDEST POP PUSH1 0x0 DUP4 DUP6 DUP2 PUSH2 0x20B8 JUMPI INVALID JUMPDEST DIV SWAP6 SWAP5 POP POP POP POP POP JUMP JUMPDEST PUSH2 0x20CC DUP3 DUP3 PUSH2 0x1B7C JUMP JUMPDEST PUSH2 0x2107 JUMPI PUSH1 0x40 MLOAD PUSH3 0x461BCD PUSH1 0xE5 SHL DUP2 MSTORE PUSH1 0x4 ADD DUP1 DUP1 PUSH1 0x20 ADD DUP3 DUP2 SUB DUP3 MSTORE PUSH1 0x21 DUP2 MSTORE PUSH1 0x20 ADD DUP1 PUSH2 0x22D3 PUSH1 0x21 SWAP2 CODECOPY PUSH1 0x40 ADD SWAP2 POP POP PUSH1 0x40 MLOAD DUP1 SWAP2 SUB SWAP1 REVERT JUMPDEST PUSH1 0x1 PUSH1 0x1 PUSH1 0xA0 SHL SUB AND PUSH1 0x0 SWAP1 DUP2 MSTORE PUSH1 0x20 SWAP2 SWAP1 SWAP2 MSTORE PUSH1 0x40 SWAP1 KECCAK256 DUP1 SLOAD PUSH1 0xFF NOT AND SWAP1 SSTORE JUMP INVALID NUMBER PUSH9 0x616C6C656E67653A20 BALANCE ADDRESS KECCAK256 SLOAD PUSH6 0x616D4368616C PUSH13 0x656E676520616C726561647920 PUSH20 0x7461727465642E437573746F6D6572526F6C653A KECCAK256 PUSH4 0x616C6C65 PUSH19 0x20646F6573206E6F7420686176652074686520 NUMBER PUSH22 0x73746F6D657220726F6C654368616C6C656E67653A20 PUSH26 0x6F75206861766520746F20626520726567697374657265642074 PUSH16 0x2070617274656369706174652E436861 PUSH13 0x6C656E67653A20796F75206861 PUSH23 0x6520746F206368616C6C656E676520736F6D656F6E6520 PUSH19 0x6567697374657265642E4368616C6C656E6765 GASPRICE KECCAK256 PUSH20 0x65742031303020506179436F696E20616C6C6F77 PUSH2 0x6E63 PUSH6 0x20746F206368 PUSH6 0x636B20746865 KECCAK256 PUSH4 0x68616C6C PUSH6 0x6E67652E4368 PUSH2 0x6C6C PUSH6 0x6E67653A2031 ADDRESS KECCAK256 DIFFICULTY PUSH10 0x726563744368616C6C65 PUSH15 0x676520616C72656164792073746172 PUSH21 0x65642E4368616C6C656E67653A2073657420313030 KECCAK256 POP PUSH2 0x7943 PUSH16 0x696E20616C6C6F77616E636520746F20 PUSH20 0x7461727420746865206368616C6C656E67652E43 PUSH9 0x616C6C656E67653A20 PUSH20 0x657420353020506179436F696E20616C6C6F7761 PUSH15 0x636520746F20636865636B20746865 KECCAK256 PUSH4 0x68616C6C PUSH6 0x6E67652E526F PUSH13 0x65733A206163636F756E742064 PUSH16 0x6573206E6F74206861766520726F6C65 NUMBER PUSH9 0x616C6C656E67653A20 PUSH26 0x6F752063616E6E6F74206368616C6C656E676520796F75727365 PUSH13 0x662E4368616C6C656E67653A20 PUSH3 0x75726E PUSH10 0x6E6720506179436F696E KECCAK256 PUSH7 0x61696C65644368 PUSH2 0x6C6C PUSH6 0x6E67653A2074 PUSH9 0x697320666C61672068 PUSH2 0x7320 PUSH15 0x65766572206265656E207374617274 PUSH6 0x642E53616665 0x4D PUSH2 0x7468 GASPRICE KECCAK256 PUSH14 0x756C7469706C69636174696F6E20 PUSH16 0x766572666C6F774D616E61676572526F PUSH13 0x653A2063616C6C657220646F65 PUSH20 0x206E6F74206861766520746865204D616E616765 PUSH19 0x20726F6C65526F6C65733A206163636F756E74 KECCAK256 PUSH10 0x7320746865207A65726F KECCAK256 PUSH2 0x6464 PUSH19 0x6573734368616C6C656E67653A2034204F7665 PUSH19 0x6E696768744368616C6C656E676520616C7265 PUSH2 0x6479 KECCAK256 PUSH20 0x7461727465642E4368616C6C656E67653A206164 PUSH5 0x7265737320 PUSH2 0x6C72 PUSH6 0x616479207265 PUSH8 0x697374657265642E NUMBER PUSH9 0x616C6C656E67653A20 PUSH14 0x696E74696E6720506179436F696E KECCAK256 PUSH7 0x61696C65644368 PUSH2 0x6C6C PUSH6 0x6E67653A2079 PUSH16 0x752063616E6E6F7420636865636B2079 PUSH16 0x7572206F776E206F7665726E69676874 KECCAK256 PUSH26 0x65742E4368616C6C656E67653A20736574203230302050617943 PUSH16 0x696E20616C6C6F77616E636520746F20 PUSH20 0x7461727420746865206368616C6C656E67652E43 PUSH9 0x616C6C656E67653A20 PUSH26 0x6F7520617265206E6F7420746865206368616C6C656E67656420 PUSH16 0x7220746865206368616C6C616E676572 KECCAK256 PUSH16 0x66207468697320666C61672E4368616C PUSH13 0x656E67653A20796F7520686176 PUSH6 0x20746F207265 PUSH8 0x697374657220796F PUSH22 0x7273656C662066697273742E4368616C6C656E67653A KECCAK256 PUSH20 0x657420353020506179436F696E20616C6C6F7761 PUSH15 0x636520746F20737461727420746865 KECCAK256 PUSH4 0x68616C6C PUSH6 0x6E67652EA265 PUSH3 0x7A7A72 BALANCE PC KECCAK256 0xBB LOG3 DUP10 0xD9 0x4E 0xB7 DUP14 BYTE SWAP16 DUP2 0xDD BALANCE 0xBD SAR 0xF6 JUMP SWAP4 DUP14 0xD6 PUSH11 0x2C3D911DA313061D98C53E DUP2 PUSH5 0x736F6C6343 STOP SDIV GT STOP ORIGIN ","sha1":"421b00ad7bcd382e390c9fac1e72c1a22785c8f1","source":"pragma solidity ^0.5.0;\n\nimport \"@openzeppelin/contracts/token/ERC20/IERC20.sol\";\nimport \"@openzeppelin/contracts/token/ERC20/ERC20Mintable.sol\";\nimport \"../ERC20/ERC20Burnable.sol\";\n\nimport \"@openzeppelin/contracts/token/ERC20/SafeERC20.sol\";\nimport \"@openzeppelin/contracts/math/SafeMath.sol\";\nimport \"../Utils/time/BokkyPooBahsDateTimeLibrary.sol\";\n\nimport \"../Exchange/IExchangeAMPM.sol\";\nimport \"../Utils/roles/ManagerRole.sol\";\nimport \"../Utils/roles/CustomerRole.sol\";\n\ncontract ChallengeAMPM is ManagerRole, CustomerRole {\n  using SafeMath for uint256;\n  using SafeERC20 for IERC20;\n  using BokkyPooBahsDateTimeLibrary for uint256;\n\n  // The token being sold\n  IERC20 private _paycoin;\n  IExchangeAMPM private _exchange;\n\n  address payable private _owner;\n\n  struct Direct {\n      bool _check;\n      uint256 _time;\n      address _challenger;\n      address _challenged;\n      bool _open;\n  }\n\n  struct Team {\n      bool _check;\n      uint256 _time;\n      address _challenger;\n      bool _open;\n  }\n\n  struct Night {\n    uint256 _id;\n    address _owner;\n    uint256 _time;\n    bool _open;\n  }\n\n  mapping (uint256 => Direct) _direct;\n  mapping (uint256 => Team) _team;\n\n  Night _ov;\n\n  mapping (address => bool) _register;\n\n  uint256 _dch;\n  uint256 _tch;\n  uint256 _och;\n\n    event Overnight(address indexed winner, uint256 indexed coin_won);\n    event DirectChallenge(address indexed challenger, address indexed challenged, uint256 flag);\n    event DirectChallengeWon(address indexed winner, uint256 indexed flag, uint256 indexed amount);\n    event TeamChallenge(address indexed challenger, uint256 flag);\n    event TeamChallengeWon(address indexed winner, uint256 indexed flag, uint256 indexed amount);\n    event Registered(address indexed teamAddres);\n\n    constructor (IERC20 paycoin, IExchangeAMPM exchange) public {\n      require(address(paycoin) != address(0), \"Challenge: PayCoin is the zero address\");\n      require(address(exchange) != address(0), \"Challenge: ExchangeAMPM is the zero address\");\n\n      _owner = _msgSender();\n      _paycoin = paycoin;\n      _exchange = exchange;\n    }\n\n    // 6. Configurazione indirizzo PayCoin e Exchange (limitato al team proprietario)\n    function set_PayCoin(IERC20 paycoin) external onlyManager {\n      _paycoin = paycoin;\n    }\n\n    function set_Exchange(IExchangeAMPM exchange) external onlyManager {\n      _exchange = exchange;\n    }\n\n    function directcheckFlag(uint256 flag) external view onlyManager returns (bool) {\n      return _direct[flag]._check;\n    }\n\n    function teamcheckFlag(uint256 flag) external view onlyManager returns (bool) {\n      return _team[flag]._check;\n    }\n\n    // 1. OvernightChallenge\n    function overnightStart(int256 percentage) external onlyManager {\n      require( _och < 4 , \"Challenge: 4 OvernightChallenge already started.\");\n      require( !_exchange.isOpen(), \"Challenge: market is open.\");\n      if (percentage >= 0) require( uint256(percentage) <= 10, \"Challenge: exeeded percentage.\");\n      else require( uint256(-percentage) <= 10, \"Challenge: exeeded percentage.\");\n      require( _paycoin.allowance(_msgSender(), address(this)) >= 200 * 10**18 , \"Challenge: set 200 PayCoin allowance to start the challenge.\");\n\n      ( , uint256 price) = _exchange.lastPrice();\n\n      int256 difference;\n      if (percentage >= 0) difference = int256(price.mul(uint256(percentage)).div(100));\n      else difference = int256(-price.mul(uint256(-percentage)).div(100));\n\n      _och = _och.add(1);\n\n      _ov._owner = _msgSender();\n      _ov._time = now;\n      _ov._id = _exchange.priceChange(difference);\n      _ov._open = true;\n\n      _burnCoins(_msgSender(), _paycoin.allowance(_msgSender(), address(this)));\n    }\n\n    function overnightCheck(uint256 id_prezzo) external onlyCustomer {\n      require( _ov._id == id_prezzo, \"Challenge: wrong id.\");\n      require( _ov._open, \"Challenge: closed.\");\n\n      uint256 amount;\n      if ( now <= _ov._time + 1 hours ) {\n        require( _msgSender() != _ov._owner, \"Challenge: you cannot check your own overnight yet.\");\n        amount = 1200 * 10**18;\n        _deliverCoins(_msgSender(), amount);\n        _ov._open = false;\n        emit Overnight(_msgSender(), amount);\n      }\n      else {\n        amount = 2000 * 10**18;\n        _deliverCoins( _ov._owner, amount);\n        _ov._open = false;\n        emit Overnight( _ov._owner, amount);\n      }\n    }\n\n\n    // 2. DirectChallenge\n    function challengeStart(address challenged, uint256 flag) external onlyManager {\n      require( _dch < 10 , \"Challenge: 10 DirectChallenge already started.\");\n      require( !_direct[flag]._check, \"Challenge: flag already used.\");\n      require( _isRegistered(challenged), \"Challenge: you have to challenge someone registered.\");\n      require( _msgSender() != challenged, \"Challenge: you cannot challenge yourself.\");\n      require( _paycoin.allowance(_msgSender(), address(this)) >= 50 * 10**18 , \"Challenge: set 50 PayCoin allowance to start the challenge.\");\n\n      _dch = _dch.add(1);\n\n      _direct[flag]._check = true;\n      _direct[flag]._time = now;\n      _direct[flag]._open = true;\n      _direct[flag]._challenger = _msgSender();\n      _direct[flag]._challenged = challenged;\n\n      _burnCoins(_msgSender(), _paycoin.allowance(_msgSender(), address(this)));\n      emit DirectChallenge(_msgSender(), challenged, flag);\n    }\n\n    function winDirectChallenge(uint256 flag) external onlyCustomer returns (bool) {\n      require( _direct[flag]._challenged == _msgSender() || _direct[flag]._challenger == _msgSender(), \"Challenge: you are not the challenged or the challanger of this flag.\");\n      require( _paycoin.allowance(_msgSender(), address(this)) >= 50 * 10**18 , \"Challenge: set 50 PayCoin allowance to check the challenge.\");\n      _burnCoins(_msgSender(), _paycoin.allowance(_msgSender(), address(this)));\n\n      require( _direct[flag]._check, \"Challenge: this flag has never been started.\" );\n      require( _direct[flag]._open, \"Challenge: closed.\");\n\n      if ( now < _direct[flag]._time + 5 minutes ) return false;\n\n      _direct[flag]._open = false;\n\n      _deliverCoins(_msgSender(), 1000 * 10**18);\n      emit DirectChallengeWon(_msgSender(), flag, 1000 * 10**18);\n\n      return true;\n    }\n\n    // 3. TeamsChallenge\n    function challengeStart(uint256 flag) external onlyManager {\n      require( _tch < 10 , \"Challenge: 10 TeamChallenge already started.\");\n      require( _isRegistered(_msgSender()), \"Challenge: you have to register yourself first.\");\n      require( !_team[flag]._check, \"Challenge: flag already used.\");\n      require( _paycoin.allowance(_msgSender(), address(this)) >= 100 * 10**18 , \"Challenge: set 100 PayCoin allowance to start the challenge.\");\n\n      _tch = _tch.add(1);\n\n      _team[flag]._check = true;\n      _team[flag]._time = now;\n      _team[flag]._open = true;\n      _team[flag]._challenger = _msgSender();\n\n      _burnCoins(_msgSender(), _paycoin.allowance(_msgSender(), address(this)));\n      emit TeamChallenge(_msgSender(), flag);\n    }\n\n    function winTeamChallenge(uint256 flag) external onlyCustomer returns (bool) {\n      require( _isRegistered(_msgSender()), \"Challenge: you have to be registered to partecipate.\");\n      require( _paycoin.allowance(_msgSender(), address(this)) >= 100 * 10**18 , \"Challenge: set 100 PayCoin allowance to check the challenge.\");\n      _burnCoins(_msgSender(), _paycoin.allowance(_msgSender(), address(this)));\n\n      require( _team[flag]._check, \"Challenge: this flag has never been started.\" );\n      require( _team[flag]._open, \"Challenge: already closed.\");\n\n      if ( now < _team[flag]._time + 5 minutes ) return false;\n\n      _team[flag]._open = false;\n\n      uint256 amount;\n      if (_msgSender() == _team[flag]._challenger) amount = 1500 * 10**18;\n      else  amount = 1000 * 10**18;\n\n      _deliverCoins(_msgSender(), amount);\n      emit TeamChallengeWon(_msgSender(), flag, amount);\n\n      return true;\n    }\n\n    // 4. Registrazione Teams\n    function register(address _ownerAddress) external onlyCustomer {\n      require( !_exchange.isOpen(), \"Challenge: market is open.\");\n      require( !_isRegistered(_ownerAddress), \"Challenge: address already registered.\");\n      _register[_ownerAddress] = true;\n\n      emit Registered(_ownerAddress);\n    }\n\n    // 5. Controllo partecipanti\n    function isRegistered(address _ownerAddress) external view returns (bool){\n      return _isRegistered(_ownerAddress);\n    }\n\n    function _isRegistered(address _ownerAddress) internal view returns (bool) {\n      return _register[_ownerAddress];\n    }\n\n    // Mint e Burn PayCoin\n    function _burnCoins(address beneficiary, uint256 payAmount) internal {\n      require(\n          ERC20Burnable(address(_paycoin)).burnFrom(beneficiary, payAmount),\n              \"Challenge: burning PayCoin failed\"\n      );\n    }\n\n    function _deliverCoins(address beneficiary, uint256 payAmount) internal {\n        require(\n            ERC20Mintable(address(_paycoin)).mint(beneficiary, payAmount),\n                \"Challenge: minting PayCoin failed\"\n        );\n    }\n\n    function close() public onlyManager {\n      selfdestruct(_owner);\n    }\n\n}\n","sourcePath":"contracts/Challenge/ChallengeAMPM.sol","type":"contract"}