{"abi":[{"inputs":[{"internalType":"uint256","name":"price","type":"uint256"},{"internalType":"contract IERC20","name":"paycoin","type":"address"},{"internalType":"contract IERC20","name":"token","type":"address"}],"payable":false,"stateMutability":"nonpayable","type":"constructor","name":"constructor"},{"anonymous":false,"inputs":[{"indexed":true,"internalType":"address","name":"buyer","type":"address"},{"indexed":true,"internalType":"uint256","name":"amount","type":"uint256"},{"indexed":true,"internalType":"uint256","name":"price","type":"uint256"}],"name":"Buy","type":"event"},{"anonymous":false,"inputs":[{"indexed":true,"internalType":"address","name":"who","type":"address"},{"indexed":true,"internalType":"uint256","name":"when","type":"uint256"}],"name":"ChangeEnd","type":"event"},{"anonymous":false,"inputs":[{"indexed":true,"internalType":"address","name":"who","type":"address"},{"indexed":true,"internalType":"uint256","name":"when","type":"uint256"}],"name":"ChangeStart","type":"event"},{"anonymous":false,"inputs":[{"indexed":true,"internalType":"address","name":"account","type":"address"}],"name":"CustomerAdded","type":"event"},{"anonymous":false,"inputs":[{"indexed":true,"internalType":"address","name":"account","type":"address"}],"name":"CustomerRemoved","type":"event"},{"anonymous":false,"inputs":[{"indexed":true,"internalType":"address","name":"account","type":"address"}],"name":"ManagerAdded","type":"event"},{"anonymous":false,"inputs":[{"indexed":true,"internalType":"address","name":"account","type":"address"}],"name":"ManagerRemoved","type":"event"},{"anonymous":false,"inputs":[{"indexed":true,"internalType":"address","name":"addres","type":"address"},{"indexed":true,"internalType":"uint256","name":"id_price","type":"uint256"},{"indexed":true,"internalType":"uint256","name":"price","type":"uint256"}],"name":"PriceChange","type":"event"},{"anonymous":false,"inputs":[{"indexed":true,"internalType":"address","name":"buyer","type":"address"},{"indexed":true,"internalType":"uint256","name":"amount","type":"uint256"},{"indexed":true,"internalType":"uint256","name":"price","type":"uint256"}],"name":"Sell","type":"event"},{"constant":false,"inputs":[{"internalType":"address","name":"account","type":"address"}],"name":"addCustomer","outputs":[],"payable":false,"stateMutability":"nonpayable","type":"function"},{"constant":false,"inputs":[{"internalType":"address","name":"account","type":"address"}],"name":"addManager","outputs":[],"payable":false,"stateMutability":"nonpayable","type":"function"},{"constant":false,"inputs":[{"internalType":"uint256","name":"tknAmount","type":"uint256"}],"name":"buy","outputs":[],"payable":false,"stateMutability":"nonpayable","type":"function"},{"constant":false,"inputs":[{"internalType":"uint256","name":"end","type":"uint256"}],"name":"changeEnd","outputs":[],"payable":false,"stateMutability":"nonpayable","type":"function"},{"constant":false,"inputs":[{"internalType":"uint256","name":"start","type":"uint256"}],"name":"changeStart","outputs":[],"payable":false,"stateMutability":"nonpayable","type":"function"},{"constant":false,"inputs":[],"name":"close","outputs":[],"payable":false,"stateMutability":"nonpayable","type":"function"},{"constant":true,"inputs":[{"internalType":"uint256","name":"_id_prezzo","type":"uint256"}],"name":"getHistory","outputs":[{"internalType":"uint256","name":"","type":"uint256"}],"payable":false,"stateMutability":"view","type":"function"},{"constant":true,"inputs":[{"internalType":"address","name":"account","type":"address"}],"name":"isCustomer","outputs":[{"internalType":"bool","name":"","type":"bool"}],"payable":false,"stateMutability":"view","type":"function"},{"constant":true,"inputs":[{"internalType":"address","name":"account","type":"address"}],"name":"isManager","outputs":[{"internalType":"bool","name":"","type":"bool"}],"payable":false,"stateMutability":"view","type":"function"},{"constant":true,"inputs":[],"name":"isOpen","outputs":[{"internalType":"bool","name":"","type":"bool"}],"payable":false,"stateMutability":"view","type":"function"},{"constant":true,"inputs":[],"name":"lastPrice","outputs":[{"internalType":"uint256","name":"","type":"uint256"},{"internalType":"uint256","name":"","type":"uint256"}],"payable":false,"stateMutability":"view","type":"function"},{"constant":false,"inputs":[{"internalType":"int256","name":"difference","type":"int256"}],"name":"priceChange","outputs":[{"internalType":"uint256","name":"","type":"uint256"}],"payable":false,"stateMutability":"nonpayable","type":"function"},{"constant":false,"inputs":[],"name":"renounceCustomer","outputs":[],"payable":false,"stateMutability":"nonpayable","type":"function"},{"constant":false,"inputs":[],"name":"renounceManager","outputs":[],"payable":false,"stateMutability":"nonpayable","type":"function"},{"constant":false,"inputs":[{"internalType":"uint256","name":"tknAmount","type":"uint256"}],"name":"sell","outputs":[],"payable":false,"stateMutability":"nonpayable","type":"function"},{"constant":false,"inputs":[{"internalType":"contract IERC20","name":"token","type":"address"}],"name":"set_AMPM","outputs":[],"payable":false,"stateMutability":"nonpayable","type":"function"},{"constant":false,"inputs":[{"internalType":"contract IERC20","name":"paycoin","type":"address"}],"name":"set_PayCoin","outputs":[],"payable":false,"stateMutability":"nonpayable","type":"function"}],"bytecode":"60806040523480156200001157600080fd5b5060405162001e0738038062001e07833981810160405260608110156200003757600080fd5b50805160208201516040909201519091906200006e6200005f6001600160e01b03620002c916565b6001600160e01b03620002cd16565b620000967368706afc2acf51eee9e9c6120197e5276c0b093e6001600160e01b03620002cd16565b620000bc620000ad6001600160e01b03620002c916565b6001600160e01b036200031f16565b620000e47368706afc2acf51eee9e9c6120197e5276c0b093e6001600160e01b036200031f16565b600083116200013a576040805162461bcd60e51b815260206004820152601460248201527f45786368616e67653a2070726963652069732030000000000000000000000000604482015290519081900360640190fd5b6001600160a01b038216620001815760405162461bcd60e51b815260040180806020018281038252602581526020018062001d9d6025913960400191505060405180910390fd5b6001600160a01b038116620001c85760405162461bcd60e51b815260040180806020018281038252602381526020018062001dc26023913960400191505060405180910390fd5b620001db6001600160e01b03620002c916565b600480546001600160a01b0319166001600160a01b0392909216919091179055600680546001810182556000919091527ff652222313e28459528d920b65115c16c04f3efc82aaedc97be59f3f377c0d3f018390556200023a620002c9565b600580546001600160a01b03199081166001600160a01b0393841617909155600380548216858416179055600280549091169183169190911790556107e4620002988160066018600760008062000371602090811b6200160e17901c565b600755620002bb816006601e601060008062000371602090811b6200160e17901c565b600855506200051a92505050565b3390565b620002e8816000620003a660201b620010d01790919060201c565b6040516001600160a01b038216907f3b4a40cccf2058c593542587329dd385be4f0b588db5471fbd9598e56dd7093a90600090a250565b6200033a816001620003a660201b620010d01790919060201c565b6040516001600160a01b038216907fcd118a02bd36f224f6f1b93812f78d2bbc2c2dc1bc0f60c176e3b4fe09f1483f90600090a250565b600081603c8402610e10860262015180620003978b8b8b6001600160e01b036200043316565b02010101979650505050505050565b620003bb82826001600160e01b03620004b116565b156200040e576040805162461bcd60e51b815260206004820152601f60248201527f526f6c65733a206163636f756e7420616c72656164792068617320726f6c6500604482015290519081900360640190fd5b6001600160a01b0316600090815260209190915260409020805460ff19166001179055565b60006107b28410156200044557600080fd5b838383600062253d8c600460036064611324600c600d19890105890101050205600c80600d19870105600c02600287030361016f02816200048257fe5b0560046105b5600c600d1989010589016112c0010205617d4b8603010103039050809450505050509392505050565b60006001600160a01b038216620004fa5760405162461bcd60e51b815260040180806020018281038252602281526020018062001de56022913960400191505060405180910390fd5b506001600160a01b03166000908152602091909152604090205460ff1690565b611873806200052a6000396000f3fe608060405234801561001057600080fd5b506004361061010b5760003560e01c8063ad973d74116100a2578063d96a094a11610071578063d96a094a14610286578063e37bddc3146102a3578063e4849b32146102c0578063f3ae2415146102dd578063f8b91abe146103035761010b565b8063ad973d7414610200578063b7e5c5e314610226578063c8691b2a1461024c578063d1d5190c146102695761010b565b806343d726d6116100de57806343d726d6146101b957806347535d7b146101c15780635f56a351146101c9578063ac98e6db146101f85761010b565b8063053f14da1461011057806328fd5e83146101315780632ce45fef1461016b5780632d06177a14610193575b600080fd5b61011861030b565b6040805192835260208301919091528051918290030190f35b6101576004803603602081101561014757600080fd5b50356001600160a01b031661031e565b604080519115158252519081900360200190f35b6101916004803603602081101561018157600080fd5b50356001600160a01b0316610337565b005b610191600480360360208110156101a957600080fd5b50356001600160a01b03166103a4565b6101916103f6565b61015761044a565b6101e6600480360360208110156101df57600080fd5b5035610459565b60408051918252519081900360200190f35b6101916105cc565b6101916004803603602081101561021657600080fd5b50356001600160a01b03166105de565b6101916004803603602081101561023c57600080fd5b50356001600160a01b0316610632565b6101e66004803603602081101561026257600080fd5b503561069a565b6101916004803603602081101561027f57600080fd5b5035610707565b6101916004803603602081101561029c57600080fd5b5035610793565b610191600480360360208110156102b957600080fd5b503561087a565b610191600480360360208110156102d657600080fd5b5035610906565b610157600480360360208110156102f357600080fd5b50356001600160a01b0316610a06565b610191610a18565b600080610316610a28565b915091509091565b600061033160018363ffffffff610a7316565b92915050565b610347610342610ada565b610a06565b6103825760405162461bcd60e51b815260040180806020018281038252603281526020018061177f6032913960400191505060405180910390fd5b600380546001600160a01b0319166001600160a01b0392909216919091179055565b6103af610342610ada565b6103ea5760405162461bcd60e51b815260040180806020018281038252603281526020018061177f6032913960400191505060405180910390fd5b6103f381610ade565b50565b610401610342610ada565b61043c5760405162461bcd60e51b815260040180806020018281038252603281526020018061177f6032913960400191505060405180910390fd5b6004546001600160a01b0316ff5b6000610454610b26565b905090565b6000610466610342610ada565b6104a15760405162461bcd60e51b815260040180806020018281038252603281526020018061177f6032913960400191505060405180910390fd5b600080600084126104f157600680546104ea9186916104c790600163ffffffff610b4d16565b815481106104d157fe5b9060005260206000200154610b9690919063ffffffff16565b9150610536565b600680546105339160008790039161051090600163ffffffff610b4d16565b8154811061051a57fe5b9060005260206000200154610b4d90919063ffffffff16565b91505b600680546001818101835560008390527ff652222313e28459528d920b65115c16c04f3efc82aaedc97be59f3f377c0d3f909101849055905461057e9163ffffffff610b4d16565b6040519091508290829030907f024e1c492bc15609a5125924e67e792a203a4f550a353426fad01a2c6d5ff97690600090a46006546105c490600163ffffffff610b4d16565b949350505050565b6105dc6105d7610ada565b610bf0565b565b6105ee6105e9610ada565b61031e565b6106295760405162461bcd60e51b81526004018080602001828103825260348152602001806116de6034913960400191505060405180910390fd5b6103f381610c38565b61063d610342610ada565b6106785760405162461bcd60e51b815260040180806020018281038252603281526020018061177f6032913960400191505060405180910390fd5b600280546001600160a01b0319166001600160a01b0392909216919091179055565b6000806106a5610a28565b509050808311156106e75760405162461bcd60e51b815260040180806020018281038252602d815260200180611812602d913960400191505060405180910390fd5b600683815481106106f457fe5b9060005260206000200154915050919050565b610712610342610ada565b61074d5760405162461bcd60e51b815260040180806020018281038252603281526020018061177f6032913960400191505060405180910390fd5b60078190558061075b610ada565b6001600160a01b03167f16c752bdf6502cc829c9a81132e2e73aeb12d145e0e3b1cd632a9759485a5f5360405160405180910390a350565b61079e6105e9610ada565b6107d95760405162461bcd60e51b81526004018080602001828103825260348152602001806116de6034913960400191505060405180910390fd5b60006107e3610a28565b915060009050610811670de0b6b3a7640000610805858563ffffffff610c8016565b9063ffffffff610cd916565b905061082461081e610ada565b82610d1b565b61083661082f610ada565b8483610e47565b8183610840610ada565b6001600160a01b03167f1cbc5ab135991bd2b6a4b034a04aa2aa086dac1371cb9b16b8b5e2ed6b036bed60405160405180910390a4505050565b610885610342610ada565b6108c05760405162461bcd60e51b815260040180806020018281038252603281526020018061177f6032913960400191505060405180910390fd5b6008819055806108ce610ada565b6001600160a01b03167f9cd0f0f4c626f6284b893eff5aa9a5f50e76b4fa9811bf3ec86ac52cc6ed782760405160405180910390a350565b6109116105e9610ada565b61094c5760405162461bcd60e51b81526004018080602001828103825260348152602001806116de6034913960400191505060405180910390fd5b61095d610957610ada565b82610ef3565b6000610967610a28565b915060009050610989670de0b6b3a7640000610805858563ffffffff610c8016565b90506109c2610996610ada565b6109bd6109b06103e861080586600263ffffffff610c8016565b849063ffffffff610b4d16565b610ff7565b81836109cc610ada565b6001600160a01b03167fed7a144fad14804d5c249145e3e0e2b63a9eb455b76aee5bc92d711e9bba3e4a60405160405180910390a4505050565b6000610331818363ffffffff610a7316565b6105dc610a23610ada565b611088565b6006546000908190610a4190600163ffffffff610b4d16565b60068054610a5690600163ffffffff610b4d16565b81548110610a6057fe5b9060005260206000200154915091509091565b60006001600160a01b038216610aba5760405162461bcd60e51b81526004018080602001828103825260228152602001806117b16022913960400191505060405180910390fd5b506001600160a01b03166000908152602091909152604090205460ff1690565b3390565b610aef60008263ffffffff6110d016565b6040516001600160a01b038216907f3b4a40cccf2058c593542587329dd385be4f0b588db5471fbd9598e56dd7093a90600090a250565b60006007610b3342611151565b1015801561045457506010610b4742611151565b10905090565b6000610b8f83836040518060400160405280601e81526020017f536166654d6174683a207375627472616374696f6e206f766572666c6f77000081525061115f565b9392505050565b600082820183811015610b8f576040805162461bcd60e51b815260206004820152601b60248201527f536166654d6174683a206164646974696f6e206f766572666c6f770000000000604482015290519081900360640190fd5b610c0160018263ffffffff6111f616565b6040516001600160a01b038216907fb4c88a9c5cd906354abdd1cc29e4f94c6c4de90754fb80ce51e6a33417bc81b690600090a250565b610c4960018263ffffffff6110d016565b6040516001600160a01b038216907fcd118a02bd36f224f6f1b93812f78d2bbc2c2dc1bc0f60c176e3b4fe09f1483f90600090a250565b600082610c8f57506000610331565b82820282848281610c9c57fe5b0414610b8f5760405162461bcd60e51b81526004018080602001828103825260218152602001806117336021913960400191505060405180910390fd5b6000610b8f83836040518060400160405280601a81526020017f536166654d6174683a206469766973696f6e206279207a65726f00000000000081525061125d565b6001600160a01b038216610d605760405162461bcd60e51b81526004018080602001828103825260298152602001806116b56029913960400191505060405180910390fd5b610d87610d7a6103e861080584600263ffffffff610c8016565b829063ffffffff610b9616565b60035460408051636eb1769f60e11b81526001600160a01b0386811660048301523060248301529151919092169163dd62ed3e916044808301926020929190829003018186803b158015610dda57600080fd5b505afa158015610dee573d6000803e3d6000fd5b505050506040513d6020811015610e0457600080fd5b50511015610e435760405162461bcd60e51b815260040180806020018281038252603f8152602001806117d3603f913960400191505060405180910390fd5b5050565b60035460408051636eb1769f60e11b81526001600160a01b0380871660048301523060248301529151610ece938793169163dd62ed3e916044808301926020929190829003018186803b158015610e9d57600080fd5b505afa158015610eb1573d6000803e3d6000fd5b505050506040513d6020811015610ec757600080fd5b50516112c2565b600554610ee4906001600160a01b031682611395565b610eee8383611468565b505050565b6001600160a01b038216610f385760405162461bcd60e51b81526004018080602001828103825260298152602001806116b56029913960400191505060405180910390fd5b60025460408051636eb1769f60e11b81526001600160a01b03858116600483015230602483015291518493929092169163dd62ed3e91604480820192602092909190829003018186803b158015610f8e57600080fd5b505afa158015610fa2573d6000803e3d6000fd5b505050506040513d6020811015610fb857600080fd5b50511015610e435760405162461bcd60e51b815260040180806020018281038252602b815260200180611754602b913960400191505060405180910390fd5b60025460408051636eb1769f60e11b81526001600160a01b038086166004830152306024830152915161107e938693169163dd62ed3e916044808301926020929190829003018186803b15801561104d57600080fd5b505afa158015611061573d6000803e3d6000fd5b505050506040513d602081101561107757600080fd5b505161153b565b610e438282611395565b61109960008263ffffffff6111f616565b6040516001600160a01b038216907fef69f7d97228658c92417be1b16b19058315de71fecb435d07b7d23728b6bd3190600090a250565b6110da8282610a73565b1561112c576040805162461bcd60e51b815260206004820152601f60248201527f526f6c65733a206163636f756e7420616c72656164792068617320726f6c6500604482015290519081900360640190fd5b6001600160a01b0316600090815260209190915260409020805460ff19166001179055565b610e10620151809091060490565b600081848411156111ee5760405162461bcd60e51b81526004018080602001828103825283818151815260200191508051906020019080838360005b838110156111b357818101518382015260200161119b565b50505050905090810190601f1680156111e05780820380516001836020036101000a031916815260200191505b509250505060405180910390fd5b505050900390565b6112008282610a73565b61123b5760405162461bcd60e51b81526004018080602001828103825260218152602001806117126021913960400191505060405180910390fd5b6001600160a01b0316600090815260209190915260409020805460ff19169055565b600081836112ac5760405162461bcd60e51b81526020600482018181528351602484015283519092839260449091019190850190808383600083156111b357818101518382015260200161119b565b5060008385816112b857fe5b0495945050505050565b6003546040805163079cc67960e41b81526001600160a01b03858116600483015260248201859052915191909216916379cc67909160448083019260209291908290030181600087803b15801561131857600080fd5b505af115801561132c573d6000803e3d6000fd5b505050506040513d602081101561134257600080fd5b5051610e43576040805162461bcd60e51b815260206004820181905260248201527f45786368616e67653a206275726e696e6720506179436f696e206661696c6564604482015290519081900360640190fd5b600354604080516340c10f1960e01b81526001600160a01b03858116600483015260248201859052915191909216916340c10f199160448083019260209291908290030181600087803b1580156113eb57600080fd5b505af11580156113ff573d6000803e3d6000fd5b505050506040513d602081101561141557600080fd5b5051610e43576040805162461bcd60e51b815260206004820181905260248201527f45786368616e67653a206d696e74696e6720506179436f696e206661696c6564604482015290519081900360640190fd5b600254604080516340c10f1960e01b81526001600160a01b03858116600483015260248201859052915191909216916340c10f199160448083019260209291908290030181600087803b1580156114be57600080fd5b505af11580156114d2573d6000803e3d6000fd5b505050506040513d60208110156114e857600080fd5b5051610e43576040805162461bcd60e51b815260206004820152601e60248201527f45786368616e67653a206d696e74696e6720746f6b656e206661696c65640000604482015290519081900360640190fd5b6002546040805163079cc67960e41b81526001600160a01b03858116600483015260248201859052915191909216916379cc67909160448083019260209291908290030181600087803b15801561159157600080fd5b505af11580156115a5573d6000803e3d6000fd5b505050506040513d60208110156115bb57600080fd5b5051610e43576040805162461bcd60e51b815260206004820152601e60248201527f45786368616e67653a206275726e696e6720746f6b656e206661696c65640000604482015290519081900360640190fd5b600081603c8402610e108602620151806116298b8b8b611638565b02010101979650505050505050565b60006107b284101561164957600080fd5b838383600062253d8c600460036064611324600c600d19890105890101050205600c80600d19870105600c02600287030361016f028161168557fe5b0560046105b5600c600d1989010589016112c0010205617d4b860301010303905080945050505050939250505056fe45786368616e67653a2062656e656669636961727920697320746865207a65726f2061646472657373437573746f6d6572526f6c653a2063616c6c657220646f6573206e6f7420686176652074686520437573746f6d657220726f6c65526f6c65733a206163636f756e7420646f6573206e6f74206861766520726f6c65536166654d6174683a206d756c7469706c69636174696f6e206f766572666c6f7745786368616e67653a206e6f7420656e6f75676820746f6b656e20616c6c6f77656420746f2073656c6c2e4d616e61676572526f6c653a2063616c6c657220646f6573206e6f74206861766520746865204d616e6167657220726f6c65526f6c65733a206163636f756e7420697320746865207a65726f206164647265737345786368616e67653a206e6f7420656e6f75676820506179436f696e20616c6c6f77656420746f2070757263686173652e202872656d65626572204665652945786368616e67653a2069642067726561746572207468616e20746865206c617374207265676973746572642ea265627a7a7231582033a0faa2d4ba473fa188602d3610c3b840f9f9216de869caed3cc1a30108c26764736f6c6343000511003245786368616e67653a20506179436f696e20697320746865207a65726f206164647265737345786368616e67653a20746f6b656e20697320746865207a65726f2061646472657373526f6c65733a206163636f756e7420697320746865207a65726f2061646472657373","bytecodeSha1":"da39a3ee5e6b4b0d3255bfef95601890afd80709","compiler":{"evm_version":"istanbul","optimizer":{"enabled":true,"runs":200},"version":"0.5.17"},"contractName":"ExchangeAMPM","language":"Solidity","natspec":{"methods":{}},"opcodes":"PUSH1 0x80 PUSH1 0x40 MSTORE CALLVALUE DUP1 ISZERO PUSH2 0x10 JUMPI PUSH1 0x0 DUP1 REVERT JUMPDEST POP PUSH1 0x4 CALLDATASIZE LT PUSH2 0x10B JUMPI PUSH1 0x0 CALLDATALOAD PUSH1 0xE0 SHR DUP1 PUSH4 0xAD973D74 GT PUSH2 0xA2 JUMPI DUP1 PUSH4 0xD96A094A GT PUSH2 0x71 JUMPI DUP1 PUSH4 0xD96A094A EQ PUSH2 0x286 JUMPI DUP1 PUSH4 0xE37BDDC3 EQ PUSH2 0x2A3 JUMPI DUP1 PUSH4 0xE4849B32 EQ PUSH2 0x2C0 JUMPI DUP1 PUSH4 0xF3AE2415 EQ PUSH2 0x2DD JUMPI DUP1 PUSH4 0xF8B91ABE EQ PUSH2 0x303 JUMPI PUSH2 0x10B JUMP JUMPDEST DUP1 PUSH4 0xAD973D74 EQ PUSH2 0x200 JUMPI DUP1 PUSH4 0xB7E5C5E3 EQ PUSH2 0x226 JUMPI DUP1 PUSH4 0xC8691B2A EQ PUSH2 0x24C JUMPI DUP1 PUSH4 0xD1D5190C EQ PUSH2 0x269 JUMPI PUSH2 0x10B JUMP JUMPDEST DUP1 PUSH4 0x43D726D6 GT PUSH2 0xDE JUMPI DUP1 PUSH4 0x43D726D6 EQ PUSH2 0x1B9 JUMPI DUP1 PUSH4 0x47535D7B EQ PUSH2 0x1C1 JUMPI DUP1 PUSH4 0x5F56A351 EQ PUSH2 0x1C9 JUMPI DUP1 PUSH4 0xAC98E6DB EQ PUSH2 0x1F8 JUMPI PUSH2 0x10B JUMP JUMPDEST DUP1 PUSH4 0x53F14DA EQ PUSH2 0x110 JUMPI DUP1 PUSH4 0x28FD5E83 EQ PUSH2 0x131 JUMPI DUP1 PUSH4 0x2CE45FEF EQ PUSH2 0x16B JUMPI DUP1 PUSH4 0x2D06177A EQ PUSH2 0x193 JUMPI JUMPDEST PUSH1 0x0 DUP1 REVERT JUMPDEST PUSH2 0x118 PUSH2 0x30B JUMP JUMPDEST PUSH1 0x40 DUP1 MLOAD SWAP3 DUP4 MSTORE PUSH1 0x20 DUP4 ADD SWAP2 SWAP1 SWAP2 MSTORE DUP1 MLOAD SWAP2 DUP3 SWAP1 SUB ADD SWAP1 RETURN JUMPDEST PUSH2 0x157 PUSH1 0x4 DUP1 CALLDATASIZE SUB PUSH1 0x20 DUP2 LT ISZERO PUSH2 0x147 JUMPI PUSH1 0x0 DUP1 REVERT JUMPDEST POP CALLDATALOAD PUSH1 0x1 PUSH1 0x1 PUSH1 0xA0 SHL SUB AND PUSH2 0x31E JUMP JUMPDEST PUSH1 0x40 DUP1 MLOAD SWAP2 ISZERO ISZERO DUP3 MSTORE MLOAD SWAP1 DUP2 SWAP1 SUB PUSH1 0x20 ADD SWAP1 RETURN JUMPDEST PUSH2 0x191 PUSH1 0x4 DUP1 CALLDATASIZE SUB PUSH1 0x20 DUP2 LT ISZERO PUSH2 0x181 JUMPI PUSH1 0x0 DUP1 REVERT JUMPDEST POP CALLDATALOAD PUSH1 0x1 PUSH1 0x1 PUSH1 0xA0 SHL SUB AND PUSH2 0x337 JUMP JUMPDEST STOP JUMPDEST PUSH2 0x191 PUSH1 0x4 DUP1 CALLDATASIZE SUB PUSH1 0x20 DUP2 LT ISZERO PUSH2 0x1A9 JUMPI PUSH1 0x0 DUP1 REVERT JUMPDEST POP CALLDATALOAD PUSH1 0x1 PUSH1 0x1 PUSH1 0xA0 SHL SUB AND PUSH2 0x3A4 JUMP JUMPDEST PUSH2 0x191 PUSH2 0x3F6 JUMP JUMPDEST PUSH2 0x157 PUSH2 0x44A JUMP JUMPDEST PUSH2 0x1E6 PUSH1 0x4 DUP1 CALLDATASIZE SUB PUSH1 0x20 DUP2 LT ISZERO PUSH2 0x1DF JUMPI PUSH1 0x0 DUP1 REVERT JUMPDEST POP CALLDATALOAD PUSH2 0x459 JUMP JUMPDEST PUSH1 0x40 DUP1 MLOAD SWAP2 DUP3 MSTORE MLOAD SWAP1 DUP2 SWAP1 SUB PUSH1 0x20 ADD SWAP1 RETURN JUMPDEST PUSH2 0x191 PUSH2 0x5CC JUMP JUMPDEST PUSH2 0x191 PUSH1 0x4 DUP1 CALLDATASIZE SUB PUSH1 0x20 DUP2 LT ISZERO PUSH2 0x216 JUMPI PUSH1 0x0 DUP1 REVERT JUMPDEST POP CALLDATALOAD PUSH1 0x1 PUSH1 0x1 PUSH1 0xA0 SHL SUB AND PUSH2 0x5DE JUMP JUMPDEST PUSH2 0x191 PUSH1 0x4 DUP1 CALLDATASIZE SUB PUSH1 0x20 DUP2 LT ISZERO PUSH2 0x23C JUMPI PUSH1 0x0 DUP1 REVERT JUMPDEST POP CALLDATALOAD PUSH1 0x1 PUSH1 0x1 PUSH1 0xA0 SHL SUB AND PUSH2 0x632 JUMP JUMPDEST PUSH2 0x1E6 PUSH1 0x4 DUP1 CALLDATASIZE SUB PUSH1 0x20 DUP2 LT ISZERO PUSH2 0x262 JUMPI PUSH1 0x0 DUP1 REVERT JUMPDEST POP CALLDATALOAD PUSH2 0x69A JUMP JUMPDEST PUSH2 0x191 PUSH1 0x4 DUP1 CALLDATASIZE SUB PUSH1 0x20 DUP2 LT ISZERO PUSH2 0x27F JUMPI PUSH1 0x0 DUP1 REVERT JUMPDEST POP CALLDATALOAD PUSH2 0x707 JUMP JUMPDEST PUSH2 0x191 PUSH1 0x4 DUP1 CALLDATASIZE SUB PUSH1 0x20 DUP2 LT ISZERO PUSH2 0x29C JUMPI PUSH1 0x0 DUP1 REVERT JUMPDEST POP CALLDATALOAD PUSH2 0x793 JUMP JUMPDEST PUSH2 0x191 PUSH1 0x4 DUP1 CALLDATASIZE SUB PUSH1 0x20 DUP2 LT ISZERO PUSH2 0x2B9 JUMPI PUSH1 0x0 DUP1 REVERT JUMPDEST POP CALLDATALOAD PUSH2 0x87A JUMP JUMPDEST PUSH2 0x191 PUSH1 0x4 DUP1 CALLDATASIZE SUB PUSH1 0x20 DUP2 LT ISZERO PUSH2 0x2D6 JUMPI PUSH1 0x0 DUP1 REVERT JUMPDEST POP CALLDATALOAD PUSH2 0x906 JUMP JUMPDEST PUSH2 0x157 PUSH1 0x4 DUP1 CALLDATASIZE SUB PUSH1 0x20 DUP2 LT ISZERO PUSH2 0x2F3 JUMPI PUSH1 0x0 DUP1 REVERT JUMPDEST POP CALLDATALOAD PUSH1 0x1 PUSH1 0x1 PUSH1 0xA0 SHL SUB AND PUSH2 0xA06 JUMP JUMPDEST PUSH2 0x191 PUSH2 0xA18 JUMP JUMPDEST PUSH1 0x0 DUP1 PUSH2 0x316 PUSH2 0xA28 JUMP JUMPDEST SWAP2 POP SWAP2 POP SWAP1 SWAP2 JUMP JUMPDEST PUSH1 0x0 PUSH2 0x331 PUSH1 0x1 DUP4 PUSH4 0xFFFFFFFF PUSH2 0xA73 AND JUMP JUMPDEST SWAP3 SWAP2 POP POP JUMP JUMPDEST PUSH2 0x347 PUSH2 0x342 PUSH2 0xADA JUMP JUMPDEST PUSH2 0xA06 JUMP JUMPDEST PUSH2 0x382 JUMPI PUSH1 0x40 MLOAD PUSH3 0x461BCD PUSH1 0xE5 SHL DUP2 MSTORE PUSH1 0x4 ADD DUP1 DUP1 PUSH1 0x20 ADD DUP3 DUP2 SUB DUP3 MSTORE PUSH1 0x32 DUP2 MSTORE PUSH1 0x20 ADD DUP1 PUSH2 0x177F PUSH1 0x32 SWAP2 CODECOPY PUSH1 0x40 ADD SWAP2 POP POP PUSH1 0x40 MLOAD DUP1 SWAP2 SUB SWAP1 REVERT JUMPDEST PUSH1 0x3 DUP1 SLOAD PUSH1 0x1 PUSH1 0x1 PUSH1 0xA0 SHL SUB NOT AND PUSH1 0x1 PUSH1 0x1 PUSH1 0xA0 SHL SUB SWAP3 SWAP1 SWAP3 AND SWAP2 SWAP1 SWAP2 OR SWAP1 SSTORE JUMP JUMPDEST PUSH2 0x3AF PUSH2 0x342 PUSH2 0xADA JUMP JUMPDEST PUSH2 0x3EA JUMPI PUSH1 0x40 MLOAD PUSH3 0x461BCD PUSH1 0xE5 SHL DUP2 MSTORE PUSH1 0x4 ADD DUP1 DUP1 PUSH1 0x20 ADD DUP3 DUP2 SUB DUP3 MSTORE PUSH1 0x32 DUP2 MSTORE PUSH1 0x20 ADD DUP1 PUSH2 0x177F PUSH1 0x32 SWAP2 CODECOPY PUSH1 0x40 ADD SWAP2 POP POP PUSH1 0x40 MLOAD DUP1 SWAP2 SUB SWAP1 REVERT JUMPDEST PUSH2 0x3F3 DUP2 PUSH2 0xADE JUMP JUMPDEST POP JUMP JUMPDEST PUSH2 0x401 PUSH2 0x342 PUSH2 0xADA JUMP JUMPDEST PUSH2 0x43C JUMPI PUSH1 0x40 MLOAD PUSH3 0x461BCD PUSH1 0xE5 SHL DUP2 MSTORE PUSH1 0x4 ADD DUP1 DUP1 PUSH1 0x20 ADD DUP3 DUP2 SUB DUP3 MSTORE PUSH1 0x32 DUP2 MSTORE PUSH1 0x20 ADD DUP1 PUSH2 0x177F PUSH1 0x32 SWAP2 CODECOPY PUSH1 0x40 ADD SWAP2 POP POP PUSH1 0x40 MLOAD DUP1 SWAP2 SUB SWAP1 REVERT JUMPDEST PUSH1 0x4 SLOAD PUSH1 0x1 PUSH1 0x1 PUSH1 0xA0 SHL SUB AND SELFDESTRUCT JUMPDEST PUSH1 0x0 PUSH2 0x454 PUSH2 0xB26 JUMP JUMPDEST SWAP1 POP SWAP1 JUMP JUMPDEST PUSH1 0x0 PUSH2 0x466 PUSH2 0x342 PUSH2 0xADA JUMP JUMPDEST PUSH2 0x4A1 JUMPI PUSH1 0x40 MLOAD PUSH3 0x461BCD PUSH1 0xE5 SHL DUP2 MSTORE PUSH1 0x4 ADD DUP1 DUP1 PUSH1 0x20 ADD DUP3 DUP2 SUB DUP3 MSTORE PUSH1 0x32 DUP2 MSTORE PUSH1 0x20 ADD DUP1 PUSH2 0x177F PUSH1 0x32 SWAP2 CODECOPY PUSH1 0x40 ADD SWAP2 POP POP PUSH1 0x40 MLOAD DUP1 SWAP2 SUB SWAP1 REVERT JUMPDEST PUSH1 0x0 DUP1 PUSH1 0x0 DUP5 SLT PUSH2 0x4F1 JUMPI PUSH1 0x6 DUP1 SLOAD PUSH2 0x4EA SWAP2 DUP7 SWAP2 PUSH2 0x4C7 SWAP1 PUSH1 0x1 PUSH4 0xFFFFFFFF PUSH2 0xB4D AND JUMP JUMPDEST DUP2 SLOAD DUP2 LT PUSH2 0x4D1 JUMPI INVALID JUMPDEST SWAP1 PUSH1 0x0 MSTORE PUSH1 0x20 PUSH1 0x0 KECCAK256 ADD SLOAD PUSH2 0xB96 SWAP1 SWAP2 SWAP1 PUSH4 0xFFFFFFFF AND JUMP JUMPDEST SWAP2 POP PUSH2 0x536 JUMP JUMPDEST PUSH1 0x6 DUP1 SLOAD PUSH2 0x533 SWAP2 PUSH1 0x0 DUP8 SWAP1 SUB SWAP2 PUSH2 0x510 SWAP1 PUSH1 0x1 PUSH4 0xFFFFFFFF PUSH2 0xB4D AND JUMP JUMPDEST DUP2 SLOAD DUP2 LT PUSH2 0x51A JUMPI INVALID JUMPDEST SWAP1 PUSH1 0x0 MSTORE PUSH1 0x20 PUSH1 0x0 KECCAK256 ADD SLOAD PUSH2 0xB4D SWAP1 SWAP2 SWAP1 PUSH4 0xFFFFFFFF AND JUMP JUMPDEST SWAP2 POP JUMPDEST PUSH1 0x6 DUP1 SLOAD PUSH1 0x1 DUP2 DUP2 ADD DUP4 SSTORE PUSH1 0x0 DUP4 SWAP1 MSTORE PUSH32 0xF652222313E28459528D920B65115C16C04F3EFC82AAEDC97BE59F3F377C0D3F SWAP1 SWAP2 ADD DUP5 SWAP1 SSTORE SWAP1 SLOAD PUSH2 0x57E SWAP2 PUSH4 0xFFFFFFFF PUSH2 0xB4D AND JUMP JUMPDEST PUSH1 0x40 MLOAD SWAP1 SWAP2 POP DUP3 SWAP1 DUP3 SWAP1 ADDRESS SWAP1 PUSH32 0x24E1C492BC15609A5125924E67E792A203A4F550A353426FAD01A2C6D5FF976 SWAP1 PUSH1 0x0 SWAP1 LOG4 PUSH1 0x6 SLOAD PUSH2 0x5C4 SWAP1 PUSH1 0x1 PUSH4 0xFFFFFFFF PUSH2 0xB4D AND JUMP JUMPDEST SWAP5 SWAP4 POP POP POP POP JUMP JUMPDEST PUSH2 0x5DC PUSH2 0x5D7 PUSH2 0xADA JUMP JUMPDEST PUSH2 0xBF0 JUMP JUMPDEST JUMP JUMPDEST PUSH2 0x5EE PUSH2 0x5E9 PUSH2 0xADA JUMP JUMPDEST PUSH2 0x31E JUMP JUMPDEST PUSH2 0x629 JUMPI PUSH1 0x40 MLOAD PUSH3 0x461BCD PUSH1 0xE5 SHL DUP2 MSTORE PUSH1 0x4 ADD DUP1 DUP1 PUSH1 0x20 ADD DUP3 DUP2 SUB DUP3 MSTORE PUSH1 0x34 DUP2 MSTORE PUSH1 0x20 ADD DUP1 PUSH2 0x16DE PUSH1 0x34 SWAP2 CODECOPY PUSH1 0x40 ADD SWAP2 POP POP PUSH1 0x40 MLOAD DUP1 SWAP2 SUB SWAP1 REVERT JUMPDEST PUSH2 0x3F3 DUP2 PUSH2 0xC38 JUMP JUMPDEST PUSH2 0x63D PUSH2 0x342 PUSH2 0xADA JUMP JUMPDEST PUSH2 0x678 JUMPI PUSH1 0x40 MLOAD PUSH3 0x461BCD PUSH1 0xE5 SHL DUP2 MSTORE PUSH1 0x4 ADD DUP1 DUP1 PUSH1 0x20 ADD DUP3 DUP2 SUB DUP3 MSTORE PUSH1 0x32 DUP2 MSTORE PUSH1 0x20 ADD DUP1 PUSH2 0x177F PUSH1 0x32 SWAP2 CODECOPY PUSH1 0x40 ADD SWAP2 POP POP PUSH1 0x40 MLOAD DUP1 SWAP2 SUB SWAP1 REVERT JUMPDEST PUSH1 0x2 DUP1 SLOAD PUSH1 0x1 PUSH1 0x1 PUSH1 0xA0 SHL SUB NOT AND PUSH1 0x1 PUSH1 0x1 PUSH1 0xA0 SHL SUB SWAP3 SWAP1 SWAP3 AND SWAP2 SWAP1 SWAP2 OR SWAP1 SSTORE JUMP JUMPDEST PUSH1 0x0 DUP1 PUSH2 0x6A5 PUSH2 0xA28 JUMP JUMPDEST POP SWAP1 POP DUP1 DUP4 GT ISZERO PUSH2 0x6E7 JUMPI PUSH1 0x40 MLOAD PUSH3 0x461BCD PUSH1 0xE5 SHL DUP2 MSTORE PUSH1 0x4 ADD DUP1 DUP1 PUSH1 0x20 ADD DUP3 DUP2 SUB DUP3 MSTORE PUSH1 0x2D DUP2 MSTORE PUSH1 0x20 ADD DUP1 PUSH2 0x1812 PUSH1 0x2D SWAP2 CODECOPY PUSH1 0x40 ADD SWAP2 POP POP PUSH1 0x40 MLOAD DUP1 SWAP2 SUB SWAP1 REVERT JUMPDEST PUSH1 0x6 DUP4 DUP2 SLOAD DUP2 LT PUSH2 0x6F4 JUMPI INVALID JUMPDEST SWAP1 PUSH1 0x0 MSTORE PUSH1 0x20 PUSH1 0x0 KECCAK256 ADD SLOAD SWAP2 POP POP SWAP2 SWAP1 POP JUMP JUMPDEST PUSH2 0x712 PUSH2 0x342 PUSH2 0xADA JUMP JUMPDEST PUSH2 0x74D JUMPI PUSH1 0x40 MLOAD PUSH3 0x461BCD PUSH1 0xE5 SHL DUP2 MSTORE PUSH1 0x4 ADD DUP1 DUP1 PUSH1 0x20 ADD DUP3 DUP2 SUB DUP3 MSTORE PUSH1 0x32 DUP2 MSTORE PUSH1 0x20 ADD DUP1 PUSH2 0x177F PUSH1 0x32 SWAP2 CODECOPY PUSH1 0x40 ADD SWAP2 POP POP PUSH1 0x40 MLOAD DUP1 SWAP2 SUB SWAP1 REVERT JUMPDEST PUSH1 0x7 DUP2 SWAP1 SSTORE DUP1 PUSH2 0x75B PUSH2 0xADA JUMP JUMPDEST PUSH1 0x1 PUSH1 0x1 PUSH1 0xA0 SHL SUB AND PUSH32 0x16C752BDF6502CC829C9A81132E2E73AEB12D145E0E3B1CD632A9759485A5F53 PUSH1 0x40 MLOAD PUSH1 0x40 MLOAD DUP1 SWAP2 SUB SWAP1 LOG3 POP JUMP JUMPDEST PUSH2 0x79E PUSH2 0x5E9 PUSH2 0xADA JUMP JUMPDEST PUSH2 0x7D9 JUMPI PUSH1 0x40 MLOAD PUSH3 0x461BCD PUSH1 0xE5 SHL DUP2 MSTORE PUSH1 0x4 ADD DUP1 DUP1 PUSH1 0x20 ADD DUP3 DUP2 SUB DUP3 MSTORE PUSH1 0x34 DUP2 MSTORE PUSH1 0x20 ADD DUP1 PUSH2 0x16DE PUSH1 0x34 SWAP2 CODECOPY PUSH1 0x40 ADD SWAP2 POP POP PUSH1 0x40 MLOAD DUP1 SWAP2 SUB SWAP1 REVERT JUMPDEST PUSH1 0x0 PUSH2 0x7E3 PUSH2 0xA28 JUMP JUMPDEST SWAP2 POP PUSH1 0x0 SWAP1 POP PUSH2 0x811 PUSH8 0xDE0B6B3A7640000 PUSH2 0x805 DUP6 DUP6 PUSH4 0xFFFFFFFF PUSH2 0xC80 AND JUMP JUMPDEST SWAP1 PUSH4 0xFFFFFFFF PUSH2 0xCD9 AND JUMP JUMPDEST SWAP1 POP PUSH2 0x824 PUSH2 0x81E PUSH2 0xADA JUMP JUMPDEST DUP3 PUSH2 0xD1B JUMP JUMPDEST PUSH2 0x836 PUSH2 0x82F PUSH2 0xADA JUMP JUMPDEST DUP5 DUP4 PUSH2 0xE47 JUMP JUMPDEST DUP2 DUP4 PUSH2 0x840 PUSH2 0xADA JUMP JUMPDEST PUSH1 0x1 PUSH1 0x1 PUSH1 0xA0 SHL SUB AND PUSH32 0x1CBC5AB135991BD2B6A4B034A04AA2AA086DAC1371CB9B16B8B5E2ED6B036BED PUSH1 0x40 MLOAD PUSH1 0x40 MLOAD DUP1 SWAP2 SUB SWAP1 LOG4 POP POP POP JUMP JUMPDEST PUSH2 0x885 PUSH2 0x342 PUSH2 0xADA JUMP JUMPDEST PUSH2 0x8C0 JUMPI PUSH1 0x40 MLOAD PUSH3 0x461BCD PUSH1 0xE5 SHL DUP2 MSTORE PUSH1 0x4 ADD DUP1 DUP1 PUSH1 0x20 ADD DUP3 DUP2 SUB DUP3 MSTORE PUSH1 0x32 DUP2 MSTORE PUSH1 0x20 ADD DUP1 PUSH2 0x177F PUSH1 0x32 SWAP2 CODECOPY PUSH1 0x40 ADD SWAP2 POP POP PUSH1 0x40 MLOAD DUP1 SWAP2 SUB SWAP1 REVERT JUMPDEST PUSH1 0x8 DUP2 SWAP1 SSTORE DUP1 PUSH2 0x8CE PUSH2 0xADA JUMP JUMPDEST PUSH1 0x1 PUSH1 0x1 PUSH1 0xA0 SHL SUB AND PUSH32 0x9CD0F0F4C626F6284B893EFF5AA9A5F50E76B4FA9811BF3EC86AC52CC6ED7827 PUSH1 0x40 MLOAD PUSH1 0x40 MLOAD DUP1 SWAP2 SUB SWAP1 LOG3 POP JUMP JUMPDEST PUSH2 0x911 PUSH2 0x5E9 PUSH2 0xADA JUMP JUMPDEST PUSH2 0x94C JUMPI PUSH1 0x40 MLOAD PUSH3 0x461BCD PUSH1 0xE5 SHL DUP2 MSTORE PUSH1 0x4 ADD DUP1 DUP1 PUSH1 0x20 ADD DUP3 DUP2 SUB DUP3 MSTORE PUSH1 0x34 DUP2 MSTORE PUSH1 0x20 ADD DUP1 PUSH2 0x16DE PUSH1 0x34 SWAP2 CODECOPY PUSH1 0x40 ADD SWAP2 POP POP PUSH1 0x40 MLOAD DUP1 SWAP2 SUB SWAP1 REVERT JUMPDEST PUSH2 0x95D PUSH2 0x957 PUSH2 0xADA JUMP JUMPDEST DUP3 PUSH2 0xEF3 JUMP JUMPDEST PUSH1 0x0 PUSH2 0x967 PUSH2 0xA28 JUMP JUMPDEST SWAP2 POP PUSH1 0x0 SWAP1 POP PUSH2 0x989 PUSH8 0xDE0B6B3A7640000 PUSH2 0x805 DUP6 DUP6 PUSH4 0xFFFFFFFF PUSH2 0xC80 AND JUMP JUMPDEST SWAP1 POP PUSH2 0x9C2 PUSH2 0x996 PUSH2 0xADA JUMP JUMPDEST PUSH2 0x9BD PUSH2 0x9B0 PUSH2 0x3E8 PUSH2 0x805 DUP7 PUSH1 0x2 PUSH4 0xFFFFFFFF PUSH2 0xC80 AND JUMP JUMPDEST DUP5 SWAP1 PUSH4 0xFFFFFFFF PUSH2 0xB4D AND JUMP JUMPDEST PUSH2 0xFF7 JUMP JUMPDEST DUP2 DUP4 PUSH2 0x9CC PUSH2 0xADA JUMP JUMPDEST PUSH1 0x1 PUSH1 0x1 PUSH1 0xA0 SHL SUB AND PUSH32 0xED7A144FAD14804D5C249145E3E0E2B63A9EB455B76AEE5BC92D711E9BBA3E4A PUSH1 0x40 MLOAD PUSH1 0x40 MLOAD DUP1 SWAP2 SUB SWAP1 LOG4 POP POP POP JUMP JUMPDEST PUSH1 0x0 PUSH2 0x331 DUP2 DUP4 PUSH4 0xFFFFFFFF PUSH2 0xA73 AND JUMP JUMPDEST PUSH2 0x5DC PUSH2 0xA23 PUSH2 0xADA JUMP JUMPDEST PUSH2 0x1088 JUMP JUMPDEST PUSH1 0x6 SLOAD PUSH1 0x0 SWAP1 DUP2 SWAP1 PUSH2 0xA41 SWAP1 PUSH1 0x1 PUSH4 0xFFFFFFFF PUSH2 0xB4D AND JUMP JUMPDEST PUSH1 0x6 DUP1 SLOAD PUSH2 0xA56 SWAP1 PUSH1 0x1 PUSH4 0xFFFFFFFF PUSH2 0xB4D AND JUMP JUMPDEST DUP2 SLOAD DUP2 LT PUSH2 0xA60 JUMPI INVALID JUMPDEST SWAP1 PUSH1 0x0 MSTORE PUSH1 0x20 PUSH1 0x0 KECCAK256 ADD SLOAD SWAP2 POP SWAP2 POP SWAP1 SWAP2 JUMP JUMPDEST PUSH1 0x0 PUSH1 0x1 PUSH1 0x1 PUSH1 0xA0 SHL SUB DUP3 AND PUSH2 0xABA JUMPI PUSH1 0x40 MLOAD PUSH3 0x461BCD PUSH1 0xE5 SHL DUP2 MSTORE PUSH1 0x4 ADD DUP1 DUP1 PUSH1 0x20 ADD DUP3 DUP2 SUB DUP3 MSTORE PUSH1 0x22 DUP2 MSTORE PUSH1 0x20 ADD DUP1 PUSH2 0x17B1 PUSH1 0x22 SWAP2 CODECOPY PUSH1 0x40 ADD SWAP2 POP POP PUSH1 0x40 MLOAD DUP1 SWAP2 SUB SWAP1 REVERT JUMPDEST POP PUSH1 0x1 PUSH1 0x1 PUSH1 0xA0 SHL SUB AND PUSH1 0x0 SWAP1 DUP2 MSTORE PUSH1 0x20 SWAP2 SWAP1 SWAP2 MSTORE PUSH1 0x40 SWAP1 KECCAK256 SLOAD PUSH1 0xFF AND SWAP1 JUMP JUMPDEST CALLER SWAP1 JUMP JUMPDEST PUSH2 0xAEF PUSH1 0x0 DUP3 PUSH4 0xFFFFFFFF PUSH2 0x10D0 AND JUMP JUMPDEST PUSH1 0x40 MLOAD PUSH1 0x1 PUSH1 0x1 PUSH1 0xA0 SHL SUB DUP3 AND SWAP1 PUSH32 0x3B4A40CCCF2058C593542587329DD385BE4F0B588DB5471FBD9598E56DD7093A SWAP1 PUSH1 0x0 SWAP1 LOG2 POP JUMP JUMPDEST PUSH1 0x0 PUSH1 0x7 PUSH2 0xB33 TIMESTAMP PUSH2 0x1151 JUMP JUMPDEST LT ISZERO DUP1 ISZERO PUSH2 0x454 JUMPI POP PUSH1 0x10 PUSH2 0xB47 TIMESTAMP PUSH2 0x1151 JUMP JUMPDEST LT SWAP1 POP SWAP1 JUMP JUMPDEST PUSH1 0x0 PUSH2 0xB8F DUP4 DUP4 PUSH1 0x40 MLOAD DUP1 PUSH1 0x40 ADD PUSH1 0x40 MSTORE DUP1 PUSH1 0x1E DUP2 MSTORE PUSH1 0x20 ADD PUSH32 0x536166654D6174683A207375627472616374696F6E206F766572666C6F770000 DUP2 MSTORE POP PUSH2 0x115F JUMP JUMPDEST SWAP4 SWAP3 POP POP POP JUMP JUMPDEST PUSH1 0x0 DUP3 DUP3 ADD DUP4 DUP2 LT ISZERO PUSH2 0xB8F JUMPI PUSH1 0x40 DUP1 MLOAD PUSH3 0x461BCD PUSH1 0xE5 SHL DUP2 MSTORE PUSH1 0x20 PUSH1 0x4 DUP3 ADD MSTORE PUSH1 0x1B PUSH1 0x24 DUP3 ADD MSTORE PUSH32 0x536166654D6174683A206164646974696F6E206F766572666C6F770000000000 PUSH1 0x44 DUP3 ADD MSTORE SWAP1 MLOAD SWAP1 DUP2 SWAP1 SUB PUSH1 0x64 ADD SWAP1 REVERT JUMPDEST PUSH2 0xC01 PUSH1 0x1 DUP3 PUSH4 0xFFFFFFFF PUSH2 0x11F6 AND JUMP JUMPDEST PUSH1 0x40 MLOAD PUSH1 0x1 PUSH1 0x1 PUSH1 0xA0 SHL SUB DUP3 AND SWAP1 PUSH32 0xB4C88A9C5CD906354ABDD1CC29E4F94C6C4DE90754FB80CE51E6A33417BC81B6 SWAP1 PUSH1 0x0 SWAP1 LOG2 POP JUMP JUMPDEST PUSH2 0xC49 PUSH1 0x1 DUP3 PUSH4 0xFFFFFFFF PUSH2 0x10D0 AND JUMP JUMPDEST PUSH1 0x40 MLOAD PUSH1 0x1 PUSH1 0x1 PUSH1 0xA0 SHL SUB DUP3 AND SWAP1 PUSH32 0xCD118A02BD36F224F6F1B93812F78D2BBC2C2DC1BC0F60C176E3B4FE09F1483F SWAP1 PUSH1 0x0 SWAP1 LOG2 POP JUMP JUMPDEST PUSH1 0x0 DUP3 PUSH2 0xC8F JUMPI POP PUSH1 0x0 PUSH2 0x331 JUMP JUMPDEST DUP3 DUP3 MUL DUP3 DUP5 DUP3 DUP2 PUSH2 0xC9C JUMPI INVALID JUMPDEST DIV EQ PUSH2 0xB8F JUMPI PUSH1 0x40 MLOAD PUSH3 0x461BCD PUSH1 0xE5 SHL DUP2 MSTORE PUSH1 0x4 ADD DUP1 DUP1 PUSH1 0x20 ADD DUP3 DUP2 SUB DUP3 MSTORE PUSH1 0x21 DUP2 MSTORE PUSH1 0x20 ADD DUP1 PUSH2 0x1733 PUSH1 0x21 SWAP2 CODECOPY PUSH1 0x40 ADD SWAP2 POP POP PUSH1 0x40 MLOAD DUP1 SWAP2 SUB SWAP1 REVERT JUMPDEST PUSH1 0x0 PUSH2 0xB8F DUP4 DUP4 PUSH1 0x40 MLOAD DUP1 PUSH1 0x40 ADD PUSH1 0x40 MSTORE DUP1 PUSH1 0x1A DUP2 MSTORE PUSH1 0x20 ADD PUSH32 0x536166654D6174683A206469766973696F6E206279207A65726F000000000000 DUP2 MSTORE POP PUSH2 0x125D JUMP JUMPDEST PUSH1 0x1 PUSH1 0x1 PUSH1 0xA0 SHL SUB DUP3 AND PUSH2 0xD60 JUMPI PUSH1 0x40 MLOAD PUSH3 0x461BCD PUSH1 0xE5 SHL DUP2 MSTORE PUSH1 0x4 ADD DUP1 DUP1 PUSH1 0x20 ADD DUP3 DUP2 SUB DUP3 MSTORE PUSH1 0x29 DUP2 MSTORE PUSH1 0x20 ADD DUP1 PUSH2 0x16B5 PUSH1 0x29 SWAP2 CODECOPY PUSH1 0x40 ADD SWAP2 POP POP PUSH1 0x40 MLOAD DUP1 SWAP2 SUB SWAP1 REVERT JUMPDEST PUSH2 0xD87 PUSH2 0xD7A PUSH2 0x3E8 PUSH2 0x805 DUP5 PUSH1 0x2 PUSH4 0xFFFFFFFF PUSH2 0xC80 AND JUMP JUMPDEST DUP3 SWAP1 PUSH4 0xFFFFFFFF PUSH2 0xB96 AND JUMP JUMPDEST PUSH1 0x3 SLOAD PUSH1 0x40 DUP1 MLOAD PUSH4 0x6EB1769F PUSH1 0xE1 SHL DUP2 MSTORE PUSH1 0x1 PUSH1 0x1 PUSH1 0xA0 SHL SUB DUP7 DUP2 AND PUSH1 0x4 DUP4 ADD MSTORE ADDRESS PUSH1 0x24 DUP4 ADD MSTORE SWAP2 MLOAD SWAP2 SWAP1 SWAP3 AND SWAP2 PUSH4 0xDD62ED3E SWAP2 PUSH1 0x44 DUP1 DUP4 ADD SWAP3 PUSH1 0x20 SWAP3 SWAP2 SWAP1 DUP3 SWAP1 SUB ADD DUP2 DUP7 DUP1 EXTCODESIZE ISZERO DUP1 ISZERO PUSH2 0xDDA JUMPI PUSH1 0x0 DUP1 REVERT JUMPDEST POP GAS STATICCALL ISZERO DUP1 ISZERO PUSH2 0xDEE JUMPI RETURNDATASIZE PUSH1 0x0 DUP1 RETURNDATACOPY RETURNDATASIZE PUSH1 0x0 REVERT JUMPDEST POP POP POP POP PUSH1 0x40 MLOAD RETURNDATASIZE PUSH1 0x20 DUP2 LT ISZERO PUSH2 0xE04 JUMPI PUSH1 0x0 DUP1 REVERT JUMPDEST POP MLOAD LT ISZERO PUSH2 0xE43 JUMPI PUSH1 0x40 MLOAD PUSH3 0x461BCD PUSH1 0xE5 SHL DUP2 MSTORE PUSH1 0x4 ADD DUP1 DUP1 PUSH1 0x20 ADD DUP3 DUP2 SUB DUP3 MSTORE PUSH1 0x3F DUP2 MSTORE PUSH1 0x20 ADD DUP1 PUSH2 0x17D3 PUSH1 0x3F SWAP2 CODECOPY PUSH1 0x40 ADD SWAP2 POP POP PUSH1 0x40 MLOAD DUP1 SWAP2 SUB SWAP1 REVERT JUMPDEST POP POP JUMP JUMPDEST PUSH1 0x3 SLOAD PUSH1 0x40 DUP1 MLOAD PUSH4 0x6EB1769F PUSH1 0xE1 SHL DUP2 MSTORE PUSH1 0x1 PUSH1 0x1 PUSH1 0xA0 SHL SUB DUP1 DUP8 AND PUSH1 0x4 DUP4 ADD MSTORE ADDRESS PUSH1 0x24 DUP4 ADD MSTORE SWAP2 MLOAD PUSH2 0xECE SWAP4 DUP8 SWAP4 AND SWAP2 PUSH4 0xDD62ED3E SWAP2 PUSH1 0x44 DUP1 DUP4 ADD SWAP3 PUSH1 0x20 SWAP3 SWAP2 SWAP1 DUP3 SWAP1 SUB ADD DUP2 DUP7 DUP1 EXTCODESIZE ISZERO DUP1 ISZERO PUSH2 0xE9D JUMPI PUSH1 0x0 DUP1 REVERT JUMPDEST POP GAS STATICCALL ISZERO DUP1 ISZERO PUSH2 0xEB1 JUMPI RETURNDATASIZE PUSH1 0x0 DUP1 RETURNDATACOPY RETURNDATASIZE PUSH1 0x0 REVERT JUMPDEST POP POP POP POP PUSH1 0x40 MLOAD RETURNDATASIZE PUSH1 0x20 DUP2 LT ISZERO PUSH2 0xEC7 JUMPI PUSH1 0x0 DUP1 REVERT JUMPDEST POP MLOAD PUSH2 0x12C2 JUMP JUMPDEST PUSH1 0x5 SLOAD PUSH2 0xEE4 SWAP1 PUSH1 0x1 PUSH1 0x1 PUSH1 0xA0 SHL SUB AND DUP3 PUSH2 0x1395 JUMP JUMPDEST PUSH2 0xEEE DUP4 DUP4 PUSH2 0x1468 JUMP JUMPDEST POP POP POP JUMP JUMPDEST PUSH1 0x1 PUSH1 0x1 PUSH1 0xA0 SHL SUB DUP3 AND PUSH2 0xF38 JUMPI PUSH1 0x40 MLOAD PUSH3 0x461BCD PUSH1 0xE5 SHL DUP2 MSTORE PUSH1 0x4 ADD DUP1 DUP1 PUSH1 0x20 ADD DUP3 DUP2 SUB DUP3 MSTORE PUSH1 0x29 DUP2 MSTORE PUSH1 0x20 ADD DUP1 PUSH2 0x16B5 PUSH1 0x29 SWAP2 CODECOPY PUSH1 0x40 ADD SWAP2 POP POP PUSH1 0x40 MLOAD DUP1 SWAP2 SUB SWAP1 REVERT JUMPDEST PUSH1 0x2 SLOAD PUSH1 0x40 DUP1 MLOAD PUSH4 0x6EB1769F PUSH1 0xE1 SHL DUP2 MSTORE PUSH1 0x1 PUSH1 0x1 PUSH1 0xA0 SHL SUB DUP6 DUP2 AND PUSH1 0x4 DUP4 ADD MSTORE ADDRESS PUSH1 0x24 DUP4 ADD MSTORE SWAP2 MLOAD DUP5 SWAP4 SWAP3 SWAP1 SWAP3 AND SWAP2 PUSH4 0xDD62ED3E SWAP2 PUSH1 0x44 DUP1 DUP3 ADD SWAP3 PUSH1 0x20 SWAP3 SWAP1 SWAP2 SWAP1 DUP3 SWAP1 SUB ADD DUP2 DUP7 DUP1 EXTCODESIZE ISZERO DUP1 ISZERO PUSH2 0xF8E JUMPI PUSH1 0x0 DUP1 REVERT JUMPDEST POP GAS STATICCALL ISZERO DUP1 ISZERO PUSH2 0xFA2 JUMPI RETURNDATASIZE PUSH1 0x0 DUP1 RETURNDATACOPY RETURNDATASIZE PUSH1 0x0 REVERT JUMPDEST POP POP POP POP PUSH1 0x40 MLOAD RETURNDATASIZE PUSH1 0x20 DUP2 LT ISZERO PUSH2 0xFB8 JUMPI PUSH1 0x0 DUP1 REVERT JUMPDEST POP MLOAD LT ISZERO PUSH2 0xE43 JUMPI PUSH1 0x40 MLOAD PUSH3 0x461BCD PUSH1 0xE5 SHL DUP2 MSTORE PUSH1 0x4 ADD DUP1 DUP1 PUSH1 0x20 ADD DUP3 DUP2 SUB DUP3 MSTORE PUSH1 0x2B DUP2 MSTORE PUSH1 0x20 ADD DUP1 PUSH2 0x1754 PUSH1 0x2B SWAP2 CODECOPY PUSH1 0x40 ADD SWAP2 POP POP PUSH1 0x40 MLOAD DUP1 SWAP2 SUB SWAP1 REVERT JUMPDEST PUSH1 0x2 SLOAD PUSH1 0x40 DUP1 MLOAD PUSH4 0x6EB1769F PUSH1 0xE1 SHL DUP2 MSTORE PUSH1 0x1 PUSH1 0x1 PUSH1 0xA0 SHL SUB DUP1 DUP7 AND PUSH1 0x4 DUP4 ADD MSTORE ADDRESS PUSH1 0x24 DUP4 ADD MSTORE SWAP2 MLOAD PUSH2 0x107E SWAP4 DUP7 SWAP4 AND SWAP2 PUSH4 0xDD62ED3E SWAP2 PUSH1 0x44 DUP1 DUP4 ADD SWAP3 PUSH1 0x20 SWAP3 SWAP2 SWAP1 DUP3 SWAP1 SUB ADD DUP2 DUP7 DUP1 EXTCODESIZE ISZERO DUP1 ISZERO PUSH2 0x104D JUMPI PUSH1 0x0 DUP1 REVERT JUMPDEST POP GAS STATICCALL ISZERO DUP1 ISZERO PUSH2 0x1061 JUMPI RETURNDATASIZE PUSH1 0x0 DUP1 RETURNDATACOPY RETURNDATASIZE PUSH1 0x0 REVERT JUMPDEST POP POP POP POP PUSH1 0x40 MLOAD RETURNDATASIZE PUSH1 0x20 DUP2 LT ISZERO PUSH2 0x1077 JUMPI PUSH1 0x0 DUP1 REVERT JUMPDEST POP MLOAD PUSH2 0x153B JUMP JUMPDEST PUSH2 0xE43 DUP3 DUP3 PUSH2 0x1395 JUMP JUMPDEST PUSH2 0x1099 PUSH1 0x0 DUP3 PUSH4 0xFFFFFFFF PUSH2 0x11F6 AND JUMP JUMPDEST PUSH1 0x40 MLOAD PUSH1 0x1 PUSH1 0x1 PUSH1 0xA0 SHL SUB DUP3 AND SWAP1 PUSH32 0xEF69F7D97228658C92417BE1B16B19058315DE71FECB435D07B7D23728B6BD31 SWAP1 PUSH1 0x0 SWAP1 LOG2 POP JUMP JUMPDEST PUSH2 0x10DA DUP3 DUP3 PUSH2 0xA73 JUMP JUMPDEST ISZERO PUSH2 0x112C JUMPI PUSH1 0x40 DUP1 MLOAD PUSH3 0x461BCD PUSH1 0xE5 SHL DUP2 MSTORE PUSH1 0x20 PUSH1 0x4 DUP3 ADD MSTORE PUSH1 0x1F PUSH1 0x24 DUP3 ADD MSTORE PUSH32 0x526F6C65733A206163636F756E7420616C72656164792068617320726F6C6500 PUSH1 0x44 DUP3 ADD MSTORE SWAP1 MLOAD SWAP1 DUP2 SWAP1 SUB PUSH1 0x64 ADD SWAP1 REVERT JUMPDEST PUSH1 0x1 PUSH1 0x1 PUSH1 0xA0 SHL SUB AND PUSH1 0x0 SWAP1 DUP2 MSTORE PUSH1 0x20 SWAP2 SWAP1 SWAP2 MSTORE PUSH1 0x40 SWAP1 KECCAK256 DUP1 SLOAD PUSH1 0xFF NOT AND PUSH1 0x1 OR SWAP1 SSTORE JUMP JUMPDEST PUSH2 0xE10 PUSH3 0x15180 SWAP1 SWAP2 MOD DIV SWAP1 JUMP JUMPDEST PUSH1 0x0 DUP2 DUP5 DUP5 GT ISZERO PUSH2 0x11EE JUMPI PUSH1 0x40 MLOAD PUSH3 0x461BCD PUSH1 0xE5 SHL DUP2 MSTORE PUSH1 0x4 ADD DUP1 DUP1 PUSH1 0x20 ADD DUP3 DUP2 SUB DUP3 MSTORE DUP4 DUP2 DUP2 MLOAD DUP2 MSTORE PUSH1 0x20 ADD SWAP2 POP DUP1 MLOAD SWAP1 PUSH1 0x20 ADD SWAP1 DUP1 DUP4 DUP4 PUSH1 0x0 JUMPDEST DUP4 DUP2 LT ISZERO PUSH2 0x11B3 JUMPI DUP2 DUP2 ADD MLOAD DUP4 DUP3 ADD MSTORE PUSH1 0x20 ADD PUSH2 0x119B JUMP JUMPDEST POP POP POP POP SWAP1 POP SWAP1 DUP2 ADD SWAP1 PUSH1 0x1F AND DUP1 ISZERO PUSH2 0x11E0 JUMPI DUP1 DUP3 SUB DUP1 MLOAD PUSH1 0x1 DUP4 PUSH1 0x20 SUB PUSH2 0x100 EXP SUB NOT AND DUP2 MSTORE PUSH1 0x20 ADD SWAP2 POP JUMPDEST POP SWAP3 POP POP POP PUSH1 0x40 MLOAD DUP1 SWAP2 SUB SWAP1 REVERT JUMPDEST POP POP POP SWAP1 SUB SWAP1 JUMP JUMPDEST PUSH2 0x1200 DUP3 DUP3 PUSH2 0xA73 JUMP JUMPDEST PUSH2 0x123B JUMPI PUSH1 0x40 MLOAD PUSH3 0x461BCD PUSH1 0xE5 SHL DUP2 MSTORE PUSH1 0x4 ADD DUP1 DUP1 PUSH1 0x20 ADD DUP3 DUP2 SUB DUP3 MSTORE PUSH1 0x21 DUP2 MSTORE PUSH1 0x20 ADD DUP1 PUSH2 0x1712 PUSH1 0x21 SWAP2 CODECOPY PUSH1 0x40 ADD SWAP2 POP POP PUSH1 0x40 MLOAD DUP1 SWAP2 SUB SWAP1 REVERT JUMPDEST PUSH1 0x1 PUSH1 0x1 PUSH1 0xA0 SHL SUB AND PUSH1 0x0 SWAP1 DUP2 MSTORE PUSH1 0x20 SWAP2 SWAP1 SWAP2 MSTORE PUSH1 0x40 SWAP1 KECCAK256 DUP1 SLOAD PUSH1 0xFF NOT AND SWAP1 SSTORE JUMP JUMPDEST PUSH1 0x0 DUP2 DUP4 PUSH2 0x12AC JUMPI PUSH1 0x40 MLOAD PUSH3 0x461BCD PUSH1 0xE5 SHL DUP2 MSTORE PUSH1 0x20 PUSH1 0x4 DUP3 ADD DUP2 DUP2 MSTORE DUP4 MLOAD PUSH1 0x24 DUP5 ADD MSTORE DUP4 MLOAD SWAP1 SWAP3 DUP4 SWAP3 PUSH1 0x44 SWAP1 SWAP2 ADD SWAP2 SWAP1 DUP6 ADD SWAP1 DUP1 DUP4 DUP4 PUSH1 0x0 DUP4 ISZERO PUSH2 0x11B3 JUMPI DUP2 DUP2 ADD MLOAD DUP4 DUP3 ADD MSTORE PUSH1 0x20 ADD PUSH2 0x119B JUMP JUMPDEST POP PUSH1 0x0 DUP4 DUP6 DUP2 PUSH2 0x12B8 JUMPI INVALID JUMPDEST DIV SWAP6 SWAP5 POP POP POP POP POP JUMP JUMPDEST PUSH1 0x3 SLOAD PUSH1 0x40 DUP1 MLOAD PUSH4 0x79CC679 PUSH1 0xE4 SHL DUP2 MSTORE PUSH1 0x1 PUSH1 0x1 PUSH1 0xA0 SHL SUB DUP6 DUP2 AND PUSH1 0x4 DUP4 ADD MSTORE PUSH1 0x24 DUP3 ADD DUP6 SWAP1 MSTORE SWAP2 MLOAD SWAP2 SWAP1 SWAP3 AND SWAP2 PUSH4 0x79CC6790 SWAP2 PUSH1 0x44 DUP1 DUP4 ADD SWAP3 PUSH1 0x20 SWAP3 SWAP2 SWAP1 DUP3 SWAP1 SUB ADD DUP2 PUSH1 0x0 DUP8 DUP1 EXTCODESIZE ISZERO DUP1 ISZERO PUSH2 0x1318 JUMPI PUSH1 0x0 DUP1 REVERT JUMPDEST POP GAS CALL ISZERO DUP1 ISZERO PUSH2 0x132C JUMPI RETURNDATASIZE PUSH1 0x0 DUP1 RETURNDATACOPY RETURNDATASIZE PUSH1 0x0 REVERT JUMPDEST POP POP POP POP PUSH1 0x40 MLOAD RETURNDATASIZE PUSH1 0x20 DUP2 LT ISZERO PUSH2 0x1342 JUMPI PUSH1 0x0 DUP1 REVERT JUMPDEST POP MLOAD PUSH2 0xE43 JUMPI PUSH1 0x40 DUP1 MLOAD PUSH3 0x461BCD PUSH1 0xE5 SHL DUP2 MSTORE PUSH1 0x20 PUSH1 0x4 DUP3 ADD DUP2 SWAP1 MSTORE PUSH1 0x24 DUP3 ADD MSTORE PUSH32 0x45786368616E67653A206275726E696E6720506179436F696E206661696C6564 PUSH1 0x44 DUP3 ADD MSTORE SWAP1 MLOAD SWAP1 DUP2 SWAP1 SUB PUSH1 0x64 ADD SWAP1 REVERT JUMPDEST PUSH1 0x3 SLOAD PUSH1 0x40 DUP1 MLOAD PUSH4 0x40C10F19 PUSH1 0xE0 SHL DUP2 MSTORE PUSH1 0x1 PUSH1 0x1 PUSH1 0xA0 SHL SUB DUP6 DUP2 AND PUSH1 0x4 DUP4 ADD MSTORE PUSH1 0x24 DUP3 ADD DUP6 SWAP1 MSTORE SWAP2 MLOAD SWAP2 SWAP1 SWAP3 AND SWAP2 PUSH4 0x40C10F19 SWAP2 PUSH1 0x44 DUP1 DUP4 ADD SWAP3 PUSH1 0x20 SWAP3 SWAP2 SWAP1 DUP3 SWAP1 SUB ADD DUP2 PUSH1 0x0 DUP8 DUP1 EXTCODESIZE ISZERO DUP1 ISZERO PUSH2 0x13EB JUMPI PUSH1 0x0 DUP1 REVERT JUMPDEST POP GAS CALL ISZERO DUP1 ISZERO PUSH2 0x13FF JUMPI RETURNDATASIZE PUSH1 0x0 DUP1 RETURNDATACOPY RETURNDATASIZE PUSH1 0x0 REVERT JUMPDEST POP POP POP POP PUSH1 0x40 MLOAD RETURNDATASIZE PUSH1 0x20 DUP2 LT ISZERO PUSH2 0x1415 JUMPI PUSH1 0x0 DUP1 REVERT JUMPDEST POP MLOAD PUSH2 0xE43 JUMPI PUSH1 0x40 DUP1 MLOAD PUSH3 0x461BCD PUSH1 0xE5 SHL DUP2 MSTORE PUSH1 0x20 PUSH1 0x4 DUP3 ADD DUP2 SWAP1 MSTORE PUSH1 0x24 DUP3 ADD MSTORE PUSH32 0x45786368616E67653A206D696E74696E6720506179436F696E206661696C6564 PUSH1 0x44 DUP3 ADD MSTORE SWAP1 MLOAD SWAP1 DUP2 SWAP1 SUB PUSH1 0x64 ADD SWAP1 REVERT JUMPDEST PUSH1 0x2 SLOAD PUSH1 0x40 DUP1 MLOAD PUSH4 0x40C10F19 PUSH1 0xE0 SHL DUP2 MSTORE PUSH1 0x1 PUSH1 0x1 PUSH1 0xA0 SHL SUB DUP6 DUP2 AND PUSH1 0x4 DUP4 ADD MSTORE PUSH1 0x24 DUP3 ADD DUP6 SWAP1 MSTORE SWAP2 MLOAD SWAP2 SWAP1 SWAP3 AND SWAP2 PUSH4 0x40C10F19 SWAP2 PUSH1 0x44 DUP1 DUP4 ADD SWAP3 PUSH1 0x20 SWAP3 SWAP2 SWAP1 DUP3 SWAP1 SUB ADD DUP2 PUSH1 0x0 DUP8 DUP1 EXTCODESIZE ISZERO DUP1 ISZERO PUSH2 0x14BE JUMPI PUSH1 0x0 DUP1 REVERT JUMPDEST POP GAS CALL ISZERO DUP1 ISZERO PUSH2 0x14D2 JUMPI RETURNDATASIZE PUSH1 0x0 DUP1 RETURNDATACOPY RETURNDATASIZE PUSH1 0x0 REVERT JUMPDEST POP POP POP POP PUSH1 0x40 MLOAD RETURNDATASIZE PUSH1 0x20 DUP2 LT ISZERO PUSH2 0x14E8 JUMPI PUSH1 0x0 DUP1 REVERT JUMPDEST POP MLOAD PUSH2 0xE43 JUMPI PUSH1 0x40 DUP1 MLOAD PUSH3 0x461BCD PUSH1 0xE5 SHL DUP2 MSTORE PUSH1 0x20 PUSH1 0x4 DUP3 ADD MSTORE PUSH1 0x1E PUSH1 0x24 DUP3 ADD MSTORE PUSH32 0x45786368616E67653A206D696E74696E6720746F6B656E206661696C65640000 PUSH1 0x44 DUP3 ADD MSTORE SWAP1 MLOAD SWAP1 DUP2 SWAP1 SUB PUSH1 0x64 ADD SWAP1 REVERT JUMPDEST PUSH1 0x2 SLOAD PUSH1 0x40 DUP1 MLOAD PUSH4 0x79CC679 PUSH1 0xE4 SHL DUP2 MSTORE PUSH1 0x1 PUSH1 0x1 PUSH1 0xA0 SHL SUB DUP6 DUP2 AND PUSH1 0x4 DUP4 ADD MSTORE PUSH1 0x24 DUP3 ADD DUP6 SWAP1 MSTORE SWAP2 MLOAD SWAP2 SWAP1 SWAP3 AND SWAP2 PUSH4 0x79CC6790 SWAP2 PUSH1 0x44 DUP1 DUP4 ADD SWAP3 PUSH1 0x20 SWAP3 SWAP2 SWAP1 DUP3 SWAP1 SUB ADD DUP2 PUSH1 0x0 DUP8 DUP1 EXTCODESIZE ISZERO DUP1 ISZERO PUSH2 0x1591 JUMPI PUSH1 0x0 DUP1 REVERT JUMPDEST POP GAS CALL ISZERO DUP1 ISZERO PUSH2 0x15A5 JUMPI RETURNDATASIZE PUSH1 0x0 DUP1 RETURNDATACOPY RETURNDATASIZE PUSH1 0x0 REVERT JUMPDEST POP POP POP POP PUSH1 0x40 MLOAD RETURNDATASIZE PUSH1 0x20 DUP2 LT ISZERO PUSH2 0x15BB JUMPI PUSH1 0x0 DUP1 REVERT JUMPDEST POP MLOAD PUSH2 0xE43 JUMPI PUSH1 0x40 DUP1 MLOAD PUSH3 0x461BCD PUSH1 0xE5 SHL DUP2 MSTORE PUSH1 0x20 PUSH1 0x4 DUP3 ADD MSTORE PUSH1 0x1E PUSH1 0x24 DUP3 ADD MSTORE PUSH32 0x45786368616E67653A206275726E696E6720746F6B656E206661696C65640000 PUSH1 0x44 DUP3 ADD MSTORE SWAP1 MLOAD SWAP1 DUP2 SWAP1 SUB PUSH1 0x64 ADD SWAP1 REVERT JUMPDEST PUSH1 0x0 DUP2 PUSH1 0x3C DUP5 MUL PUSH2 0xE10 DUP7 MUL PUSH3 0x15180 PUSH2 0x1629 DUP12 DUP12 DUP12 PUSH2 0x1638 JUMP JUMPDEST MUL ADD ADD ADD SWAP8 SWAP7 POP POP POP POP POP POP POP JUMP JUMPDEST PUSH1 0x0 PUSH2 0x7B2 DUP5 LT ISZERO PUSH2 0x1649 JUMPI PUSH1 0x0 DUP1 REVERT JUMPDEST DUP4 DUP4 DUP4 PUSH1 0x0 PUSH3 0x253D8C PUSH1 0x4 PUSH1 0x3 PUSH1 0x64 PUSH2 0x1324 PUSH1 0xC PUSH1 0xD NOT DUP10 ADD SDIV DUP10 ADD ADD SDIV MUL SDIV PUSH1 0xC DUP1 PUSH1 0xD NOT DUP8 ADD SDIV PUSH1 0xC MUL PUSH1 0x2 DUP8 SUB SUB PUSH2 0x16F MUL DUP2 PUSH2 0x1685 JUMPI INVALID JUMPDEST SDIV PUSH1 0x4 PUSH2 0x5B5 PUSH1 0xC PUSH1 0xD NOT DUP10 ADD SDIV DUP10 ADD PUSH2 0x12C0 ADD MUL SDIV PUSH2 0x7D4B DUP7 SUB ADD ADD SUB SUB SWAP1 POP DUP1 SWAP5 POP POP POP POP POP SWAP4 SWAP3 POP POP POP JUMP INVALID GASLIMIT PUSH25 0x6368616E67653A2062656E6566696369617279206973207468 PUSH6 0x207A65726F20 PUSH2 0x6464 PUSH19 0x657373437573746F6D6572526F6C653A206361 PUSH13 0x6C657220646F6573206E6F7420 PUSH9 0x617665207468652043 PUSH22 0x73746F6D657220726F6C65526F6C65733A206163636F PUSH22 0x6E7420646F6573206E6F74206861766520726F6C6553 PUSH2 0x6665 0x4D PUSH2 0x7468 GASPRICE KECCAK256 PUSH14 0x756C7469706C69636174696F6E20 PUSH16 0x766572666C6F7745786368616E67653A KECCAK256 PUSH15 0x6F7420656E6F75676820746F6B656E KECCAK256 PUSH2 0x6C6C PUSH16 0x77656420746F2073656C6C2E4D616E61 PUSH8 0x6572526F6C653A20 PUSH4 0x616C6C65 PUSH19 0x20646F6573206E6F7420686176652074686520 0x4D PUSH2 0x6E61 PUSH8 0x657220726F6C6552 PUSH16 0x6C65733A206163636F756E7420697320 PUSH21 0x6865207A65726F206164647265737345786368616E PUSH8 0x653A206E6F742065 PUSH15 0x6F75676820506179436F696E20616C PUSH13 0x6F77656420746F207075726368 PUSH2 0x7365 0x2E KECCAK256 0x28 PUSH19 0x656D65626572204665652945786368616E6765 GASPRICE KECCAK256 PUSH10 0x64206772656174657220 PUSH21 0x68616E20746865206C617374207265676973746572 PUSH5 0x2EA265627A PUSH27 0x7231582033A0FAA2D4BA473FA188602D3610C3B840F9F9216DE869 0xCA 0xED EXTCODECOPY 0xC1 LOG3 ADD ADDMOD 0xC2 PUSH8 0x64736F6C63430005 GT STOP ORIGIN ","sha1":"ad1d535697bdb1b5ec53fe1dc8552cb56aace396","source":"pragma solidity ^0.5.0;\n\nimport \"@openzeppelin/contracts/token/ERC20/IERC20.sol\";\nimport \"@openzeppelin/contracts/token/ERC20/ERC20Mintable.sol\";\nimport \"../ERC20/ERC20Burnable.sol\";\n\nimport \"@openzeppelin/contracts/token/ERC20/SafeERC20.sol\";\nimport \"@openzeppelin/contracts/math/SafeMath.sol\";\nimport \"../Utils/time/BokkyPooBahsDateTimeLibrary.sol\";\n\nimport \"./IExchangeAMPM.sol\";\nimport \"../Utils/roles/ManagerRole.sol\";\nimport \"../Utils/roles/CustomerRole.sol\";\n\ncontract ExchangeAMPM is ManagerRole, CustomerRole {\n  using SafeMath for uint256;\n  using SafeERC20 for IERC20;\n  using BokkyPooBahsDateTimeLibrary for uint256;\n\n  // The token being sold\n  IERC20 private _token;\n  IERC20 private _paycoin;\n\n  address payable private _owner;\n\n  // Address where tokens are collected\n  address private _tokenWallet;\n\n  uint256[] _prices;\n\n  uint256 private _start;\n  uint256 private _end;\n\n    //Events\n    event Buy(address indexed buyer, uint256 indexed amount, uint256 indexed price);\n    event Sell(address indexed buyer, uint256 indexed amount, uint256 indexed price);\n    event PriceChange(address indexed addres, uint256 indexed id_price, uint256 indexed price);\n    event ChangeStart(address indexed who, uint256 indexed when);\n    event ChangeEnd(address indexed who, uint256 indexed when);\n\n\n    constructor (uint256 price, IERC20 paycoin, IERC20 token) public {\n        require(price > 0, \"Exchange: price is 0\");\n        require(address(paycoin) != address(0), \"Exchange: PayCoin is the zero address\");\n        require(address(token) != address(0), \"Exchange: token is the zero address\");\n\n        _owner = _msgSender();\n        _prices.push(price);\n        _tokenWallet = _msgSender();\n        _paycoin = paycoin;\n        _token = token;\n\n        uint year = 2020;\n        _start = year.timestampFromDateTime(6, 24, 7, 0, 0);\n        _end = year.timestampFromDateTime(6, 30, 16, 0, 0);\n    }\n\n    function set_PayCoin(IERC20 paycoin) external onlyManager {\n      _paycoin = paycoin;\n    }\n\n    function set_AMPM(IERC20 token) external onlyManager {\n      _token = token;\n    }\n\n    function changeStart(uint256 start) external onlyManager {\n      _start = start;\n      emit ChangeStart(_msgSender(), start);\n    }\n\n    function changeEnd(uint256 end) external onlyManager {\n      _end = end;\n      emit ChangeEnd(_msgSender(), end );\n    }\n\n    function isOpen() external view returns (bool){\n      return _isOpen();\n    }\n\n    function _isOpen() internal view returns (bool){\n      return ( now.getHour() >= 7 && now.getHour() < 16 );\n    }\n\n    function lastPrice() external view returns (uint256, uint256) {\n            return _lastPrice();\n    }\n\n    function _lastPrice() internal view returns (uint256, uint256) {\n      return (_prices.length.sub(1), _prices[_prices.length.sub(1)]);\n    }\n\n    function getHistory(uint256 _id_prezzo) external view returns (uint256) {\n      (uint256 last_id, ) = _lastPrice();\n      require( _id_prezzo <= last_id, \"Exchange: id greater than the last registerd.\");\n      return _prices[_id_prezzo];\n    }\n\n    function priceChange(int256 difference) external onlyManager returns (uint256) {\n      uint256 new_price;\n      uint256 new_id;\n      if (difference >= 0) new_price = _prices[_prices.length.sub(1)].add(uint256(difference));\n      else new_price = _prices[_prices.length.sub(1)].sub(uint256(-difference));\n      _prices.push(new_price);\n      new_id = _prices.length.sub(1);\n\n      emit PriceChange(address(this), new_id, new_price);\n      return _prices.length.sub(1);\n    }\n\n    function buy(uint256 tknAmount) external onlyCustomer {\n      //require( now > _start && now < _end , \"Exchange: not available.\");\n      //require( _isOpen(), \"Exchange: market closed.\"  );\n\n      ( , uint256 price) = _lastPrice();\n      uint256 final_price = tknAmount.mul( price ).div(10**18);\n      _preValidatePurchase(_msgSender(), final_price);\n\n      //update state\n      _processPurchase(_msgSender(), tknAmount, final_price);\n      emit Buy(_msgSender(), tknAmount, price);\n\n    }\n\n    function sell(uint256 tknAmount) external onlyCustomer {\n      //require( now > _start && now < _end, \"Exchange: not available.\");\n      //require( _isOpen(), \"Exchange: market closed.\"  );\n      _preValidateSale(_msgSender(), tknAmount);\n\n      ( , uint256 price) = _lastPrice();\n      uint256 final_price = tknAmount.mul( price ).div(10**18);\n\n      //update state\n      _processSale(_msgSender(), final_price.sub( final_price.mul(2).div(1000) ) );\n      emit Sell(_msgSender(), tknAmount, price);\n\n    }\n\n    function _deliverTokens(address beneficiary, uint256 tokenAmount) internal {\n        require(\n            ERC20Mintable(address(_token)).mint(beneficiary, tokenAmount),\n                \"Exchange: minting token failed\"\n        );\n    }\n\n    function _deliverCoins(address beneficiary, uint256 payAmount) internal {\n        require(\n            ERC20Mintable(address(_paycoin)).mint(beneficiary, payAmount),\n                \"Exchange: minting PayCoin failed\"\n        );\n    }\n\n    function _burnTokens(address beneficiary, uint256 tokenAmount) internal {\n      require(\n          ERC20Burnable(address(_token)).burnFrom(beneficiary, tokenAmount),\n              \"Exchange: burning token failed\"\n      );\n    }\n\n    function _burnCoins(address beneficiary, uint256 payAmount) internal {\n      require(\n          ERC20Burnable(address(_paycoin)).burnFrom(beneficiary, payAmount),\n              \"Exchange: burning PayCoin failed\"\n      );\n    }\n\n    function _preValidatePurchase(address beneficiary, uint256 payAmount) internal view {\n        require(beneficiary != address(0), \"Exchange: beneficiary is the zero address\");\n        require( _paycoin.allowance(beneficiary, address(this)) >= payAmount.add( payAmount.mul(2).div(1000) ), \"Exchange: not enough PayCoin allowed to purchase. (remeber Fee)\");\n        this; // silence state mutability warning without generating bytecode - see https://github.com/ethereum/solidity/issues/2691\n    }\n\n    function _preValidateSale(address beneficiary, uint256 tknAmount) internal view {\n        require(beneficiary != address(0), \"Exchange: beneficiary is the zero address\");\n\t      require( _token.allowance(beneficiary, address(this)) >= tknAmount, \"Exchange: not enough token allowed to sell.\");\n        this; // silence state mutability warning without generating bytecode - see https://github.com/ethereum/solidity/issues/2691\n    }\n\n    function _processPurchase(address beneficiary, uint256 tknAmount, uint256 payAmount) internal {\n        _burnCoins(beneficiary, _paycoin.allowance(beneficiary, address(this)));\n        _deliverCoins(_tokenWallet, payAmount);\n        _deliverTokens(beneficiary, tknAmount);\n    }\n\n    function _processSale(address beneficiary, uint256 payAmount) internal {\n        _burnTokens(beneficiary, _token.allowance(beneficiary, address(this)));\n        _deliverCoins(beneficiary, payAmount);\n    }\n\n    function close() public onlyManager {\n      selfdestruct(_owner);\n    }\n\n}\n","sourcePath":"contracts/Exchange/ExchangeAMPM.sol","type":"contract"}